:020000040800F2
:1000000040090020F50100089B350008B9310008BF
:10001000993500087D1A0008D53A00080000000054
:100020000000000000000000000000007936000819
:100030002D1B0008000000009D3500087B360008DD
:100040000F0200080F0200080F0200080F0200084C
:100050000F0200080F0200080F0200080F0200083C
:100060000F0200080F0200080F0200080F0200082C
:100070000F0200080F020008811A00088D1A0008FC
:100080000F0200080F0200080F0200080F0200080C
:100090000F0200080F0200080F0200080F020008FC
:1000A0000F0200080F0200080F0200080F020008EC
:1000B0000F0200080F0200080F0200080F020008DC
:1000C0000F0200080F0200080F0200080F020008CC
:1000D0000F020008C93A00080F0200080F020008CA
:1000E0000F0200080F0200080F0200080F020008AC
:1000F0000F0200080F0200080F0200080F0200089C
:100100000F0200080F0200080F0200080F0200088B
:100110000F0200080F0200080F0200080F0200087B
:100120000F0200080F0200080F0200080F0200086B
:1001300000F002F800F04FF80AA090E8000C8244AA
:100140008344AAF10107DA4501D100F044F8AFF287
:10015000090EBAE80F0013F0010F18BFFB1A43F0A5
:10016000010318474462000064620000103A24BF93
:1001700078C878C1FAD8520724BF30C830C144BF0C
:1001800004680C607047000000230024002500264E
:10019000103A28BF78C1FBD8520728BF30C148BFEA
:1001A0000B607047662905F0EC86002070471FB58C
:1001B0009DE8030000F070FE00F01CFB040000202E
:1001C000002104F097FEE06000F018FC1FBD10B5A0
:1001D00000F07DFC10BD00F0E5FC1146FFF7E7FFE5
:1001E00004F094FA00F0EAFD03B4FFF7F0FF03BC5B
:1001F00000F0E4FF0948804709480047FEE7FEE7B2
:10020000FEE7FEE7FEE7FEE7FEE7FEE7FEE7FEE7C6
:1002100004480549054A064B70470000DD360008D2
:100220003101000840030020400900204005002063
:10023000400500200FB4044910B503AA029800F04D
:10024000C7FA10BC5DF814FB340200202DE9F04120
:100250000E460446002020622046E168884730B3FD
:10026000252805D0D4E901219047206A401CF2E7F7
:10027000E168204600278847050018D0A5F1410015
:10028000192802D820354FF4006732462946204607
:100290002760FFF787FF40B1012804D0F61D26F044
:1002A00007060836D8E7361DD6E72846DAE7206A7B
:1002B000BDE8F08110B5203AC0F00B80B1E81850CD
:1002C000203AA0E81850B1E81850A0E81850BFF440
:1002D000F5AF5FEA027C24BFB1E81850A0E81850DF
:1002E00044BF18C918C0BDE810405FEA827C24BF33
:1002F00051F8043B40F8043B08BF7047D20728BFC1
:1003000031F8023B48BF11F8012B28BF20F8023B0F
:1003100048BF00F8012B70474FF0000200B51346AC
:1003200094469646203922BFA0E80C50A0E80C5015
:10033000B1F12001BFF4F7AF090728BFA0E80C50C6
:1003400048BF0CC05DF804EB890028BF40F8042BBF
:1003500008BF704748BF20F8022B11F0804F18BF2C
:1003600000F8012B704770477047704710B500F0D8
:1003700045FA006810BD10B5044600F03FFA04606D
:1003800010BD70472DE9FF4F0C461E464FF0FF375A
:100390008BB0D2E90001DDF860800A908A46C1F393
:1003A0000A5505B93D46002108464FF00000BAF154
:1003B000000F00F4400005DA00EB80004FF440012C
:1003C00001EA50004FEA9059B9F1010F00DDB9463A
:1003D0000A9850EA4A000ED044F61050A5F2FF35B4
:1003E00045432F14B8F1000F1ED07542291E1EDDA3
:1003F000C9F100021CE0B8F1010F4FF0000001D07C
:10040000302103E0F24305E02154401CB042FBDB05
:1004100030460022002121540B99C1F80880C1E91F
:1004200000200FB0BDE8F08FBD1B6D1CDEE74A4613
:1004300000DA694206A800F06BFA06AB93E8070001
:1004400003AB83E8070050460A9900F04FFF8DE8A0
:100450000700A0F500501F3800900398002D0ADD1A
:1004600042F21F014A460844002303A9039068464C
:1004700001F0B8F909E0A0F500504A461F38002302
:1004800003A90390684601F0C2F98DE80700000453
:10049000000C03D04FF0FF30410800E01046B8F1E7
:1004A000000F03D00022009215461EE0751E05D4F1
:1004B00000F0A8F9303262556D1EF9D5B34601221D
:1004C000084302D000227F1C04E02078302801D1AC
:1004D00000227F1E002A099784D01DE0112D07DA23
:1004E00000F090F9303262556D1C50EA0102F5D1EE
:1004F000084302D00098C8B10EE00021681E05E054
:10050000235C625C63542254401E491C8142F7DB29
:10051000AB46A81B401E0990002004F80B000B9866
:10052000099AC0F80880C0E9002B7AE711264FF03D
:10053000000857E72DE9F04F88460446D21D22F007
:10054000070191B0D1E90001CDE90A0103F0C3FA36
:1005500002460B98C00F01D02D2007E020688107CC
:1005600001D52B2002E0202101EAC000032A0990D6
:1005700001D0072A05DB03464146204600F088F9F2
:100580000BE12078800601D5E06900E00620B8F193
:10059000650F814606D0B8F1660F18D0B8F1670F25
:1005A00070D131E00020B9F1110F009001DB11236F
:1005B00001E009F101030AAA01A90CA8FFF7E2FE74
:1005C000DDE90C70002609F10105834647E00120B2
:1005D0004B4600904FF000470AAA01A90CA8FFF76C
:1005E000D1FEDDE90DB00C995D46002610B909F188
:1005F00001000D18B9EB050003D4C0F1FF3609F175
:100600000105A5EB09002BE0B9F1010F01DA4FF06C
:1006100001090020B9F1110F0090484601DD1123B6
:1006200000E003460AAA01A90CA8FFF7ABFEDDE92A
:100630000C704D4600268346207800070AD4AB454F
:1006400000DA5D4601A8012D04DD411911F8011CF5
:10065000302907D04F4502DA17F1040F04DA0120E0
:1006600082460FE06D1EEEE7002F02DCED1B3E44DC
:1006700003E0781CA84200DD7D1CB81B00F1010AD4
:100680004FF000472078000703D4AA4501DB4FF064
:10069000FF3A0021B7F1004F0DF143088DF84310E8
:1006A00024D002202B23002F01DA7F422D230A21A0
:1006B000021EA0F1010000DC5FB197FBF1FC97FB8B
:1006C000F1F201FB1C7C17460CF1300C08F801CD4F
:1006D000EEE7A8F1010003702188090501D5452145
:1006E00000E06521A0F1010800F8011C09980FA99C
:1006F000A1EB0807FF1D00B10120411901EBEA70D1
:10070000A1693844081A401EA0612078C00602D4AE
:100710002046AFF30080099828B1D4E90121904721
:10072000206A401C20622078C00622D52046AFF304
:1007300000801EE0002E04DBB34502DD01A8805DD1
:1007400000E03020D4E901219047206A401C20625B
:10075000761CAAF101005FEA000A0AD100F04AF80B
:10076000C0680168405CD4E901219047206A401CC0
:100770002062281EA5F10105DCDC07E0D4E9012197
:1007800018F8010B9047206A401C2062381EA7F120
:100790000107F3DC2046AFF30080032011B041E6EF
:1007A00001694A1C02610878704700B58FB0CDE935
:1007B00001310021059105497944CDE90310114625
:1007C0006846FFF743FD0FB000BD0000E5FFFFFFE7
:1007D000074B70B50D467B44FFF7E7FF04462846FC
:1007E00000F008F910B14FF0FF3070BD204670BD29
:1007F0001B3F000000487047FC0200200048704783
:10080000DC02002030B5B0F10A024FEA900E71F11F
:1008100000034EEA817EB0EB0E0061EB91014FEADE
:10082000101E4EEA017E10EB0E0041EB11114FEA53
:10083000102E4EEA016E10EB0E0041EB11214FEA33
:10084000104E4EEA014E10EB0E0041EB11414018E4
:1008500041F100014FEAD00040EA41704FEAD10176
:1008600010EB80054FEA810444EA907444EB0104E4
:100870006D1944EB0404521BA3414FF0000348BF21
:100880000A3200D530BD401C41F1000130BD0000EE
:100890002DE9F0411F46044603260168072A01F4AA
:1008A000006004DB08B116A505E016A503E008B159
:1008B00015A500E015A521F010002060A069C01E5C
:1008C000A0610FB1401EA0612046AFF300804FB180
:1008D000D4E9012138469047206A401C2062C01CA0
:1008E000206206E0206AFAE7D4E9012115F8010B3D
:1008F0009047761EF8D22046AFF30080BDE8F08125
:100900004E414E006E616E00494E4600696E6600B3
:100910002DE9F047814616468AB0354878440DC81F
:100920008DE80D0032487844801C03AC0DC884E883
:100930000D0041F69B300844372190FBF1F290FB0B
:10094000F1F5A5F1800501FB12041B3C02D56442C0
:10095000012000E00020DFF898A080460027FA443C
:10096000AAF1BE0A0EE0E0070AD03246684607EB5D
:10097000470101230AEB810100F049FF8DE80700E0
:1009800064107F1C002CEED1194F7F44AE3F19E05C
:10099000E80715D007EB04100DF1180A90E80E00D7
:1009A0008AE80E00C068F04201D1981908903246DA
:1009B000012306A903A800F02AFF03AB83E8070080
:1009C0006D10641C002DE3D14FF0010332466946DF
:1009D000B8F1000F03A802D000F004FF01E000F01E
:1009E00016FFC9E90001C9F808200AB0BDE8F08780
:1009F000645A0000007B00F08000704710B5424848
:100A00005421FFF789FC41485421FFF785FC4048F9
:100A10005421FFF781FC3F493B483C4A3F4B08606B
:100A20003D490A603A491960531C0365481C10652A
:100A3000012008653B48344A39A1784400F022F986
:100A400020B9384878440A3800F0C1F937482F4AAD
:100A500035A1784400F016F920B9344878440A38B2
:100A600000F0B5F932482A4A2FA1784400F00AF97B
:100A700020B92F4878440A3800F0A9F940232248C9
:100A8000DC000021224600F0D9F820B12548784446
:100A9000543800F09CF91D4822464023002100F004
:100AA000CDF820B121487844543800F090F9184826
:100AB00022461023002100F0C1F8002806D01C486F
:100AC0007844BDE81040563800F081B910BD104898
:100AD00070B5006D20F001040B4800F049F90B4897
:100AE00000F046F90A4800F043F909E0206D20F0D3
:100AF0000105204600F03CF9204600F078F82C462D
:100B0000002CF3D170BD0000E00100203402002071
:100B10008802002034000020380000203C00002023
:100B2000720000005E590000770000004A59000082
:100B3000365900000EB5CDE9000100F01FFB029010
:100B400069460120ABBE0EBD08B569460090022083
:100B5000ABBE08BD1FB58DE8070069460520ABBEDA
:100B600004B010BD1FB58DE80F0069460620ABBE6E
:100B7000F6E708B5694600900920ABBE08BD1CB574
:100B8000CDE9000169460A20ABBE1CBD704708B51F
:100B9000694600900C20ABBE08BD000000487047BD
:100BA000DC0200207546FFF7F9FFAE4605006946F6
:100BB000534620F00700854618B020B5FFF728FB04
:100BC000BDE820404FF000064FF000074FF000084E
:100BD0004FF0000B21F00701AC46ACE8C009ACE8CF
:100BE000C009ACE8C009ACE8C0098D46704770B5D3
:100BF0000446051F00F034F90068002C14BF446857
:100C000070BD002C18BFAC423CBF20466468F8D3CE
:100C100001680A18AA4218BF456003D12A68054630
:100C20001144016028684119A1421CBF6C6070BD6D
:100C30006168696021680844286070BD70B5C46847
:100C4000A50713D0650211D4B2F5807F09D0B2F5A3
:100C5000007F06D0B2F5806F08D1012300F1240196
:100C600006E05D1E6FF07F46B54201D3012070BDE6
:100C70000161C361416024F470611143C1600020CF
:100C800070BD00002DE9F0410C460746164610469F
:100C900000F06EF82078611C61280AD0722802D01A
:100CA00077283CD102E00125002405E00225042438
:100CB00002E0082448F2020511F8010B2B2806D0A7
:100CC000622809D011F8010C74280AD00BE045F015
:100CD000030544F00204EFE745F0040544F0010485
:100CE000EAE744F0100438462146FFF723FF411C91
:100CF00015D00021316171604FF40071F560F16130
:100D00007061200704D530460222002100F022F94C
:100D1000306D40F0010030653046BDE8F0810020C4
:100D2000FBE72DE9F0410D460646104C206DC1074A
:100D300004D0410804D020F00104F7E722460EE079
:100D4000542000F0D8F807000ED0206D47F00101C4
:100D50000843542120653846FFF7DEFA3A46294613
:100D60003046BDE8F0418DE70020D6E7E0010020E5
:100D70002DE9F04704464FF000094FF0FF37C568F2
:100D8000D4E90486A80707D0204600F093F930463E
:100D9000FFF7DAFE002802DA3846BDE8F0872805BA
:100DA00002D54046FFF723FF4C212046FFF7B4FA57
:100DB000206D20F0010020654846EEE710B504469E
:100DC000AFF300802046BDE81040FFF70DBA10B524
:100DD00000F0BAF9BDE8104000F0B0B94FF0013CA6
:100DE00050F8042B51F8043B9A4221D1A2EB0C039A
:100DF000934313EACC1317D150F8042B51F8043B5A
:100E00009A4215D1A2EB0C03934313EACC130BD1F6
:100E100050F8042B51F8043B9A4209D1A2EB0C0381
:100E2000934313EACC13DBD04FF00000704700BFB0
:100E3000D01A01BAB1FA81F101F0180122FA01F0D9
:100E4000CB40C1F12001DBB2C0B2C01A2CFA01F3D1
:100E5000D11A914311EAC311E6D1704770470000DF
:100E600000487047E40200207047704770477047A1
:100E700038B504460A4600206946AFF300800028D2
:100E800008BF38BD02460099204600F0A4F90120B1
:100E900038BD012000F0F3B9F8B5AFF30080054686
:100EA00000200C46102000BF0646A819A0420DD90C
:100EB000324669460020AFF30080070008BF00F00B
:100EC000DEF90098A04218BF0546C419FFF7C8FF15
:100ED00005600746F01D20F007004619284600F07F
:100EE00073F9B44208BFF8BDA21B31463868BDE8AB
:100EF000F84000F070B970B50646FFF7B1FF05681D
:100F000006F10B0020F00704B4429CBF002070BD26
:100F10002B466A68BAB11068A04210D304F10801E8
:100F200088423CBF5068586007D35168101941602F
:100F30001168091B016058601460101D70BD1346D4
:100F40005268002AE7D121462846FFF791FF002882
:100F5000DED170BD2DE9F041044616460D464769C5
:100F6000007B80072ED03846FFF703FE50BB3EB310
:100F7000012E02D0022E25D104E0204600F045F9D2
:100F800005441DE03846FFF702FEE168002841F005
:100F90001001E16005DA204600F058F80120BDE8B4
:100FA000F081C9030BD56268E16A914200D811460D
:100FB000A26911442269891A814200DD084605446C
:100FC000002D01DA0220EAE7E16A6068E268814206
:100FD00006D29103E06203D522F4003141F0100201
:100FE000A6690027AE4213DCE16A814201D90B46B3
:100FF00000E0034603EB060C2369ACEB030CAC45A5
:1010000006DD814201D98C4600E084469C4505D12D
:10101000A760276042F02000A5620DE0AD1BE669E5
:10102000AE1B8142A66000D90846C01A281A20606B
:101030005819606022F0200003490840E060002059
:1010400084F84870ABE70000BFCFD7FFC16821F438
:10105000001141F08001C160002181600160704792
:101060002DE9F047814614460E464FF0FF383248CE
:10107000D5685769054209D03846A169FFF77FFD59
:10108000002811DB2C48C0430540E5602B46324662
:1010900049463846FFF75EFDA16920F00042B21ACA
:1010A00011440028A16103D02046FFF7CFFF40463E
:1010B000BDE8F08770B504460569C06A616888427A
:1010C00000D80846E16821F42011E160C90312D577
:1010D000A84208D02246411B2846FFF7C1FF10B1A5
:1010E0004FF0FF3070BD0020E562C4E90150E068B8
:1010F00020F48030E060002070BD10B50446C06868
:1011000020F02000E060A16AA06988420DD020464E
:10111000FFF7D0FFE06820F4405040F01000E0609E
:10112000A06AA0612069E062606044F24001E0686A
:101130008843E06010BD000010000200002801D0CC
:1011400000F03CB87047000010B5014602A000F066
:101150007DF8012010BD00005349475254524544C8
:101160003A2052656469726563743A2063616E2740
:1011700074206F70656E3A200000000010B5431CAB
:1011800002E010F8011B71B18107FAD14FF0013272
:1011900002C88C1A8C4314EAC211F9D0C01A0A068C
:1011A00003D0C01E10BDC01A10BD0A0401D0801E9D
:1011B00010BD0902FCD0401E10BD000001491820DE
:1011C000ABBEFEE72600020000210160C0E901106D
:1011D000704710207047034640688C46002818BFAF
:1011E00088423CBF03464068F8D3186818448842D8
:1011F00007D00CF1030020F00700001D411A521A1D
:101200000146081D0A60FFF7F2BC10B50146C2682E
:10121000900703D0900607D5886A0AE0FFF7EEFA38
:1012200001210160881E10BD8B69486818440B6954
:10123000C01A91F848301BB191F84910401A10BDFE
:101240001103FCD50028FADD401E10BD70B505461F
:101250000C460A2000E06D1C00F018F835B1287823
:101260000028F8D102E0641C00F010F814B12078D6
:101270000028F8D1BDE870400A2000F007B810B58A
:1012800000F00CF8BDE81040FFF758BF08B56946FC
:101290008DF800000320ABBE08BD000010B501288A
:1012A00005D0002103A0FFF7D1FF012010BD09A147
:1012B000F8E7000053494752544D454D3A204F75C9
:1012C00074206F662068656170206D656D6F72793E
:1012D000000000003A2048656170206D656D6F72F6
:1012E0007920636F72727570746564005FEA400CF8
:1012F00008BF91F0000F4FEA8C234FEAC12243EA66
:1013000051514FEA1C5018BF00F5F0404FEA300031
:1013100018BF41F000415FEA6C5C00F02980BCF12D
:10132000FF3F08BF40F080407047130C06BF120417
:101330004FF0100C4FF0000C130E04BF12020CF112
:10134000080C130F04BF12010CF1040C930F04BF1F
:1013500092000CF1020CD30F04BF52000CF1010CEF
:1013600011464FF00002A0F11F00A0EB0C007047E7
:1013700011F0004F08BF704731F000413FF4D5AF86
:101380000B0C06BF09044FF0100C4FF0000C0B0EB5
:1013900004BF09020CF1080C0B0F04BF09010CF18A
:1013A000040C8B0F04BF89000CF1020CCB0F04BF9F
:1013B00049000CF1010CCCF12003A0EB0C0022FA47
:1013C00003F302FA0CF241EA030100F10100704755
:1013D00020F07F4C80EA030023F07F47ACEB07034B
:1013E00003F57C5300F0004003F1FF032DE9804931
:1013F0004FEA154B09B44FEA144325EA0B4E24EA91
:1014000003480FF2042606EB132749083E785FEAEB
:10141000320203FB0667C7F5000707FB06F64FEA33
:1014200054374FEAD64606F1020607FB066CCCF1AC
:10143000005C4FEA1C472CEA074C07FB06F40CFB48
:1014400006F504EB15464FEA961634BF00204FF020
:1014500000404FEAD13706FB07FC4FEA1C4C0CFB5F
:101460000BF7D21B03FB0CF761EB07010CFB0EF72C
:10147000B0EB074072EB17420CFB08F734BFA2EB4E
:101480000742B2EB074261EB17414FEA0C444FEAC7
:10149000910706FB07FC4FEA1C4C0CFB0BF7B0EB6B
:1014A000C74072EB573203FB0CF734BFA2EBC742C5
:1014B000B2EBC74261EB57310CFB0EF7B0EBC70044
:1014C00072EB57720CFB08F734BFA2EBC702B2EB0A
:1014D000C70261EB5771039F4FEA816141EA9211A4
:1014E00004EBCC044FEAD1374FEA826206FB07FCDB
:1014F00042EA90124FEA80604FEA1C4C0CFB0BF75B
:10150000D21B03FB0CF761EB07010CFB0EF7B0EBF2
:10151000074072EB17420CFB08F734BFA2EB0742FF
:10152000B2EB074261EB17414FEA8C554FEA910746
:1015300004EB9C2406FB07FC4FEA1C4C0CFB0BF74E
:10154000B0EBC74072EB573203FB0CF734BFA2EB92
:10155000C742B2EBC74261EB57310CFB0EF7B0EB61
:10156000C70072EB57720CFB08F734BFA2EBC7023F
:10157000B2EBC70261EB577115EB4C254FEA816165
:1015800041EA92114FEA82624FEAD13742EA901261
:1015900006FB07FC44F100044FEA80604FEA1C4C54
:1015A0000CFB0BF7D21B03FB0CF761EB07010CFBE9
:1015B0000EF7B0EB074072EB17420CFB08F734BF95
:1015C000A2EB0742B2EB074261EB174115EB1C158A
:1015D0004FEA813141EA92414FEA823242EA904237
:1015E0004FEA80304FEA0C7644F1000448EA0343A6
:1015F0004EEA0B484FF0000EB2EB080C71EB0307FC
:1016000024BF624639464EEB0E0E4FF0000B001819
:10161000524149414BEB0B0BB2EB080C71EB03074A
:101620007BF1000B24BF624639464EEB0E0E4FF0A5
:10163000000B0018524149414BEB0B0BB2EB080C6D
:1016400071EB03077BF1000B24BF624639464EEB7A
:101650000E0E51EA020718BF46F0010616EB0E7691
:1016600055F1000254F1000103D5BDE88901BDE840
:101670000088BDE88901BDE80048B619524141EB38
:101680000101A3F10103704780807F7E7D7C7B7A1E
:101690007978777676757473727171706F6E6E6D1E
:1016A0006C6C6B6A6A6968686766666564646363C4
:1016B00062616160605F5F5E5E5D5D5C5C5B5B5A4A
:1016C0005A595958585757565655555554545353B7
:1016D00052525251515050504F4F4F4E4E4D4D4D12
:1016E0004C4C4C4B4B4B4A4A4A494949484848475D
:1016F000474747464646454545444444444343439B
:101700004342424242414141002B9C4630D4770043
:101710002BD01CB54FEA370703B44FF010004FF041
:101720001001BAF1000F06D0BCF1000FDCBF40F091
:10173000080040F008014FF000000FBCBDE8104069
:101740000BF1010BBBF1010F08BF5FEA170722BFC6
:1017500012F1010211F101014FF0004143F10003C8
:1017600000F0004043EA00007047F9D35708D0E783
:1017700046EA064613F1400F4FEA16461FDD13F105
:10178000200FDFBF16430A46002120335B42BED044
:10179000C3F1200746EA064602FA07F74FEA164663
:1017A00046EA0706C3F1200722FA03F201FA07F717
:1017B00021FA03F14FF0000342EA0702A7E746EAE5
:1017C000020646EA06464FEA164646EA0106BCBF4E
:1017D00046EA0646360C4FF000034FF000024FF089
:1017E000000194E72DE9804C9A46934670B491E845
:1017F000380007C831EA400C48BF34EA430C03D52F
:10180000FFF7E6FDFFF780FFF0BCBDE8008C2DE997
:10181000804C9A46934670B491E8380007C810F09F
:10182000804F08BF13F0804F03D100F005F8FFF799
:101830006BFFF0BCBDE8008C20F07F4780EA03001E
:1018400023F07F4C07EB0C03A3F57C5300F0004022
:10185000A3F1FE0392F0000F00F0B38095F0000FAB
:1018600000F077802DE901494FEA11404FEA144614
:1018700021EA004800FB06FC24EA064708FB06F6BE
:1018800007FB08F800FB07F718EB06484CEB164C73
:101890004FEA124B18EB07484FEA15464CEB17403E
:1018A00022EA0B4E0BFB06FC25EA06470EFB06F66A
:1018B00007FB0EFE0BFB07F71EEB064E4CEB164C20
:1018C0004FF000061EEB074E4CEB174B18EB0B08C6
:1018D00040F1000018EB0E0B58EB000840F100003F
:1018E0008F1A4FF000013CBFC943661B14BFB5EB14
:1018F000040C00213CBFC943F61B4FEA17444EEAD3
:101900008E0E27EA04454FEA1C4704FB07622CEAC7
:10191000074C05FB07F70CFB05F604FB0CFC16EB6C
:10192000074642EB174216EB0C4642EB1C421BEB00
:10193000060658EB0202414146EA9E0601D5BDE883
:101940000189B619524141EB0101A3F10103BDE840
:1019500001894FEA14454FEA114724EA054621EA76
:10196000074C05FB07F406FB07F70CFB06F105FB2C
:101970000CFC11EB074144EB17444FEA124711EB03
:101980000C4144EB1C4422EA074C05FB07F206FB22
:1019900007F70CFB06F605FB0CFC16EB074642EBC3
:1019A000174216EB0C4642EB1C456A1854F1000135
:1019B00048BF7047B619524141EB0101A3F1010341
:1019C000704795F0000F37D04FEA11424FEA1447A5
:1019D00021EA024624EA074C02FB07F106FB07F75F
:1019E0000CFB06F402FB0CFC14EB074441EB174123
:1019F0004FEA154714EB0C4441EB1C4125EA074C18
:101A000002FB07F506FB07F70CFB06F602FB0CFCD6
:101A100016EB074645EB174516EB0C4645EB1C420B
:101A2000121951F1000148BF7047B619524141EBFC
:101A30000101A3F1010370474FEA14454FEA114732
:101A400024EA054621EA074C05FB07F106FB07F7E8
:101A50000CFB06F24FF0000605FB0CFC12EB0742F4
:101A600041EB174112EB0C4251EB1C4148BF704750
:101A7000921841EB0101A3F101037047FEE700005A
:101A8000014800F009BA000064010020014800F09C
:101A900003BA00002001002030B590F84050012426
:101AA000AC40C56B6C60046863604368102B0368CE
:101AB00003D099600068C26030BD9A600068C16060
:101AC00030BD000038B50446094840680090094818
:101AD000006804F001F9054620680099081A04F02E
:101AE000FBF8294604F01EF80099216038BD00007B
:101AF000001000E03000002008490A6842F08072BF
:101B00000A60074900224A600A6842F001020A603E
:101B1000044948430449086070470000FCED00E0B8
:101B2000001000E040420F0030000020704772B605
:101B3000FEE7000070B50546084602F06DFE074C52
:101B40002070284602F068FE6070E11EB4F90000C3
:101B5000C880BDE8704004F0A7B800001B0000205A
:101B60002DE9F0473C213B20FFF7E4FF0F2104F073
:101B70006AFA03F043FF514A514B03F065FC6FF0E2
:101B80000E052A4604F031FA4E4A4F4B03F0FAF99B
:101B900003F0C6F94D4C3E2120603D20FFF7CAFFFF
:101BA0000F2104F050FA03F029FF494A494B03F092
:101BB0004BFC2A4604F019FA474A484B03F034FE1E
:101BC00003F0AEF9606040213F20FFF7B3FF0F2123
:101BD00004F039FA03F012FF414A424B03F034FC9F
:101BE0002A4604F002FA404A404B03F0CBF903F0D6
:101BF00097F9A06044214320FFF79CFF3C4E3146FB
:101C000004F07EF8294604F01EFA03F0F7FE394A84
:101C1000394B03F0B7F9394FDFF8E4803A464346D1
:101C200003F012FCDFF8DC9000224B4603F05AFA76
:101C300003F076F9E06046214520FFF77BFF31464F
:101C400004F05EF8294604F0FEF903F0D7FE2E4AB0
:101C50002E4B03F0E9FD3A46434603F0F5FB002224
:101C60004B4603F03FFA03F05BF92061482147201F
:101C7000FFF760FF314604F043F8294604F0E3F92A
:101C800003F0BCFE224A234B03F07CF93A4643465C
:101C900003F0DAFB00224B4603F024FA03F040F98C
:101CA000606142214120FFF745FF1B4903F03AFFE5
:101CB0001A4903F0CFFEA061BDE8F087D1915CFE28
:101CC00043FAEF3F9A9999999999993FA801002071
:101CD000EA95B20C71ACEF3F9D11A5BDC117B63F9F
:101CE0009D8026C286A7EF3FF2B0506B9A77DC3F0B
:101CF0000000FA44C6FCDCD094DDFA3F1F85EB51AE
:101D0000B81E09400080664043A9BD88B6C30040A4
:101D100037E15E99B7EAF33F5CEFA6430000A841C4
:101D200010B590F821100022022905D0042181630A
:101D300080F82020012010BD01680B6823F00E03FD
:101D40000B6001680B6823F001030B6090F84030D2
:101D5000C46B012101FA03F3636080F8211080F85D
:101D60002020104610BD00002DE9F05F90F82110F2
:101D70000024022903D004218163012485E0016845
:101D80000A6822F00E020A6001680A6822F0010265
:101D90000A603F4E3E4FB215DFF8F4C0DFF8F09016
:101DA000DFF8ECA0DFF8E8B0DFF8E4E00168783FA6
:101DB00013011502ACF1640CA9F15009AAF13C0A17
:101DC000ABF1280BAEF1140E4FF48018B14227D9B5
:101DD000B9420ED0614512D049451DD0514518D0A9
:101DE000594518D0714501D1424615E0294EB142FE
:101DF00001D1012210E0274E1436B14201D1102248
:101E00000AE0244E2836B14206D0224A3C329142A2
:101E100001D11A4600E02A461E49091F0A602BE03C
:101E2000B94213D0614517D0494522D051451DD044
:101E300059451DD0714501D142461AE0B14202D147
:101E40004FF0807215E0134EB14201D1012210E033
:101E5000104E1436B14201D110220AE00D4E283640
:101E6000B14206D00B4A3C32914201D11A4600E001
:101E70002A46074980394A60012180F82110002153
:101E800080F82010416B01B188472046BDE8F09FE3
:101E900080000240080402402DE9F05FC16B0A682F
:101EA00001680B68046C4FF0040808FA04F8844DCC
:101EB000844E854FDFF814C2DFF81492DFF814A2C5
:101EC000DFF814B2DFF814E218EA020F65D05FEA17
:101ED000437862D50A68920603D40A6822F00402A5
:101EE0000A60DFF8F0814FF48062016808F114089D
:101EF00013011402414524D9A9420DD0B1420FD09B
:101F0000B9421AD0614515D0494515D0514501D186
:101F1000120312E0594501D104220EE0714501D1AE
:101F200040220AE06D4D1435A94206D06B4A283292
:101F3000914201D11A4600E022466749091F0A6012
:101F400029E0A94213D0B14215D0B94220D0614551
:101F50001BD049451BD0514502D14FF4800217E0F8
:101F6000414502D14FF0806212E0594501D104226F
:101F70000EE0714501D140220AE0584D1435A942C6
:101F800006D0564A2832914201D11A4600E0224634
:101F90004B4908394A60C16A71E04FF0020808FAFB
:101FA00004F818EA020F70D05FEA83786DD50A68EA
:101FB000920606D40A6822F00A020A60012180F81B
:101FC0002110DFF810814FF40072016808F1140845
:101FD00013011402414524D9A9420DD0B1420FD0BA
:101FE000B9421AD0614515D0494515D0514501D1A6
:101FF000120312E0594501D102220EE0714501D1D0
:1020000020220AE0354D1435A94206D0334A283241
:10201000914201D11A4600E022462F49091F0A6069
:1020200029E0A94213D0B14215D0B94220D0614570
:102030001BD049451BD0514502D14FF4001217E087
:10204000414502D14FF0007212E0594501D1022200
:102050000EE0714501D120220AE0204D1435A9423D
:1020600006D01E4A2832914201D11A4600E022468B
:10207000134908394A60002180F82010816A00293C
:102080001CD0BDE8F05F0847FFE70825A5401542D2
:1020900014D01A0712D50A6822F00E020A6090F8CE
:1020A0004020C36B012101FA02F25A60816380F87B
:1020B0002110002180F82010016BE0E7BDE8F09FBF
:1020C000080002401C000240300002404400024070
:1020D000580002406C000240080402401C04024008
:1020E00030B560B11A4B026814219A4209D2194BDB
:1020F0001344B3FBF1F18900016417490AE00120A0
:1021000030BD134B5B421344B3FBF1F18900016412
:102110000F490839C163022180F82110136843F682
:10212000F0718B43F0E901142143D0E902452C43BF
:1021300021430469214344692143846921431943AC
:10214000116000214163012242770177084630BDCA
:1021500008040240F8FFFDBF0000024070B50446CD
:1021600090F82000002501280CD0012084F82000E0
:1021700094F821600020012E06D084F8200002256A
:10218000284670BD022070BD022684F82160A0633D
:102190002068066826F0010606602046FFF77CFCF2
:1021A000E06A00282068016802D041F00E0106E0D4
:1021B00021F0040101602068016841F00A0101601A
:1021C0002068016841F001010160D9E770B504465B
:1021D00000F010F90546601C02D004480078044461
:1021E00000F008F9401BA042FAD370BD080000209F
:1021F0002DE9F84FDFF8C8910024A9F1040B23461C
:102200000F2709F1040AABF1040ED1E00125A54026
:1022100006EA0502AA4276D1DFF8A8C14E68A6EB0D
:102220000C0866452BD00DDC032E34D005DC36B30C
:10223000012E19D0022E2FD11BE0112E16D0122EF6
:102240002AD119E0B8F5881F19D006DCB8F5803F0F
:1022500015D0B8F5801F1FD111E0B8F5001F0ED0C2
:10226000B8F5041F18D10AE0CB6815E0CB681B1D38
:1022700012E0CB6808330FE0CB680C330CE08B68BE
:102280002BB1012B4FF0080303D0456104E0042378
:1022900002E0056100E00023FF2A01D8064601E0C4
:1022A00000F104064FEA840501D9A5F12005D6F80E
:1022B000008007FA05FC28EA0C0803FA05F548EA4D
:1022C0000508C6F800804D68ED0070D53E4DAE693A
:1022D00046F00106AE61AD6924F0030605F0010584
:1022E00000953A4D06EB050CDCF80850A607360FB2
:1022F00007FA06F825EA0805DFF8D480404503D13F
:102300004FF0000825E052E0DFF8C880404502D1D8
:102310004FF001081DE0DFF8C080404502D14FF0CA
:10232000020816E0DFF8B480404502D14FF0030800
:102330000FE0DFF8AC80404502D14FF0040808E020
:10234000DFF8A080404502D14FF0050801E04FF0D2
:10235000060808FA06F848EA0508CCF808804D682F
:10236000D9F80060ED024D4601D5164300E09643D2
:102370002E604D68DAF80060AD02554601D516436F
:1023800000E096432E604D68DBF80060AD035D46CB
:1023900001D5164300E096432E604D68DEF80060DC
:1023A000ED03754601D5164300E096432E60641C8C
:1023B0000A681646E2407FF429AFBDE8F88F0000B6
:1023C000080401400000111000100240000001400C
:1023D00000080140000C01400010014000140140C1
:1023E00000180140001C01400AB101617047090456
:1023F000FBE70000014880687047000008000020EB
:10240000024881680278114481607047080000200A
:10241000074810B5016841F010010160032000F089
:1024200075F80F2000F006F800F024F8002010BD29
:102430000020024070B50D4D04464FF47A712878A3
:10244000B1FBF0F00A490968B1FBF0F000F065FC5F
:1024500048B9102C07D200222146501E00F036F851
:1024600000206C6070BD012070BD000008000020DD
:10247000140000200C4808B5816941F00101816118
:10248000816901F001010091C16941F08051C16190
:10249000C06900F0805000900448416821F0E0617C
:1024A00041F00071416008BD001002400000014091
:1024B000002809DB00F01F02012191404009800043
:1024C00000F1E020C0F8001170470000F0B40E4B9E
:1024D0001B680C46C3F30223C3F10705042D00D982
:1024E0000425191D072901D2002300E0DB1E012667
:1024F00006FA05F1491E214099409E40761E16407D
:102500003143F0BC01F0FBBA0CED00E0064900F0ED
:10251000070208684FF6FF03184040EA0220034A0A
:1025200010430860704700000CED00E00000FA0561
:102530002DE9F0470F46050061D0434E306800F0AA
:102540000700B84209D2306820F0070038433060F5
:10255000306800F00700B84251D128683B4C810731
:1025600012D5400703D5606840F4E06060602878C9
:10257000000703D5606840F4605060606068A96837
:1025800020F0F000084360602878C00728D0686811
:10259000012810D02168022810D0890700292EDADE
:1025A000616821F0030101436160FFF723FF80466A
:1025B00041F288390DE021688903EFE78901EDE7F1
:1025C000FFF718FFA0EB0801494502D90320BDE839
:1025D000F0876068696800F00C00B0EB810FEFD104
:1025E000306800F00700B8420BD9306820F00700CF
:1025F00038433060306800F00700B84201D0012055
:10260000E5E72878400705D56068E96820F4E060D0
:10261000084360602878000706D56068296920F4BF
:10262000605040EAC100606000F038F86168084A14
:10263000C1F30311515CC8400649086006480068B0
:10264000FFF7F8FE0020C2E7002002400010024021
:10265000D4600008140000200C0000200448054944
:1026600000684968044AC1F30221515CC8407047C0
:102670001400002000100240E460000804480549EE
:1026800000684968044AC1F3C221515CC8407047E0
:102690001400002000100240E46000080E4A516857
:1026A0000E4801F00C03042B11D0082B0FD10C485D
:1026B000C1F38343C903C05C0AD55168084AC1F31A
:1026C0004041921E515C054A5043B0FBF1F0704707
:1026D00004494843704700000010024000127A008D
:1026E000C460000800093D002DE9F84F040070D0D7
:1026F0002078C04DC00749D06868C0F38100012828
:1027000007D06868C0F38100022809D16868C00357
:1027100006D52868800339D560680028E7D035E001
:102720006068B0F5803F0BD010B1B0F5A02F11D08C
:10273000286820F480302860286820F4802002E097
:10274000286840F480302860606890B1FFF752FE3E
:1027500006460AE0286840F480202860F0E700BFC1
:10276000FFF748FE801B642873D828688003F7D5DC
:102770000CE0FFF73FFE064605E000BFFFF73AFE1C
:10278000801B6428F0D828688003F7D420789A4EFC
:1027900080074FF001094FF0000839D5686810F044
:1027A0000C0F07D06868C0F38100022809D168685F
:1027B000C00306D42868800714D52069012808D1F1
:1027C00010E02069B0B1C6F80090FFF713FE07468D
:1027D00005E00AE1FFF70EFEC01B0228C4D82868F6
:1027E0008007F7D52868616920F0F80040EAC10049
:1027F00028600DE0C6F80080FFF7FCFD074604E006
:10280000FFF7F8FDC01B022823D828688007F7D4FB
:10281000207800072CD57948A169D9B1C0F800907B
:10282000FFF7E8FD074604E0FFF7E4FDC01B0228C0
:102830000FD8686A8007F7D571484FF4FA510068DD
:10284000B0FBF1F0009000BF0098411E0091FAD259
:102850000EE080E0C0F80080FFF7CCFD074604E002
:10286000FFF7C8FDC01B022875D8686A8007F7D437
:102870002078400760D5E8690027C00008D4E869DF
:1028800040F08050E861E869012700F08050009036
:102890005C480168C90513D40168834641F480711E
:1028A0000160FFF7A7FD824606E000BFFFF7A2FD2B
:1028B000A0EB0A0064284ED8DBF80000C005F5D56F
:1028C000E06801280AD008B1052813D0286A20F052
:1028D00001002862286A20F0040002E0286A40F023
:1028E00001002862E06841F2883B98B1FFF782FD61
:1028F00082460BE0286A40F004002862EEE700BF41
:10290000FFF778FDA0EB0A0159455AD8286A8007DD
:10291000F6D50CE0FFF76EFD824605E0FFF76AFD95
:10292000A0EB0A0159454CD8286A8007F6D41FB19C
:10293000E86920F08050E861E06988B36968C1F314
:102940008101022944D00228C6F8608004D0FFF734
:1029500051FD044638E034E0FFF74CFD074604E043
:10296000FFF748FDC01B02282BD828688001F7D448
:10297000206AB0F5803F05D16868A16820F4003076
:1029800008436860D4E908010843696821F47411B8
:1029900008436860C6F86090FFF72CFD044606E027
:1029A00025E000BFFFF726FD001B022809D8286894
:1029B0008001F7D51BE000BFFFF71CFD001B0228BC
:1029C00002D90320BDE8F88F28688001F4D40EE016
:1029D0000128F7D06868226A00F48031914204D15E
:1029E000616A00F47010884201D00120EAE70020FB
:1029F000E8E700000010024000004242800442422A
:102A0000140000200070004070B5040009D0606A16
:102A1000002540B125616561A56294F8510040B17F
:102A20000CE0012070BD6068B0F5827FF4D0E561F4
:102A3000F2E784F85050204600F040F8022084F875
:102A400051002068016821F040010160A0882189BF
:102A500000F4827001F404410843A18901F400618B
:102A60000843217C01F002010843217D01F00101AE
:102A70000843218B01F400710843217F01F03801E4
:102A8000084394F8201001F080010843218D01F4DF
:102A90000051084321680860A069042101EA104040
:102AA000216848602068C16921F40061C1616565E1
:102AB000012084F85100002070BD000030B585B0C1
:102AC00000240094019402940394006814498842FD
:102AD00023D11448816941F480518161816901F4F5
:102AE00080510491816941F00401816180690E4D3A
:102AF00000F004000490A020009002200190032028
:102B0000039069462846FFF773FB4020CDE9000497
:102B1000694628460294FFF76BFB05B030BD000004
:102B20000030014000100240000801402DE9FF4F35
:102B300081B0044690F8500000260E9F1D46934633
:102B40004FF0010901280FD04FF0010A84F850A07E
:102B5000FFF750FC804694F85100616801280DD0C1
:102B6000B1F5827F08D103E0022005B0BDE8F08F07
:102B7000A16809B9042801D00226C9E002980028FA
:102B800065D0BBF1000FFBD0002DF9D094F85100B7
:102B9000042802D0052084F8510000206065C4F8A4
:102BA00038B0E587A58702992163E586A58620646C
:102BB000606420680168490603D4016841F040015F
:102BC0000160E068B0F5006F606803D0F0B3012DDC
:102BD00047D081E008B1012D3CD1206B21680088ED
:102BE000C860206B801C2063E08E401EE08631E0D0
:102BF0002068816889070FD5E18E69B1B9F1010FAD
:102C00000AD1216B0988C160206B801C2063E08E93
:102C1000401EE0864FF0000920688168C9070CD08B
:102C2000E18F51B1C068A16B0880A06B801CA063CC
:102C3000E08F401EE0874FF00109FFF7DBFBA0EBC0
:102C40000800B84206D3781C04D001E009E05BE03C
:102C500003265BE0E08E0028CAD1E08F0028C7D1B0
:102C600040E0206B216800780873206B401C2063D3
:102C7000E08E401EE0862FE02068816889070FD52E
:102C8000E18E69B1B9F1010F0AD1216B09780173A5
:102C9000206B401C2063E08E401EE0864FF0000950
:102CA00020688168C9070CD0E18F51B1C068A16B61
:102CB0000870A06B401CA063E08F401EE0874FF0BF
:102CC0000109FFF797FBA0EB0800B84202D3781C7C
:102CD00002D0BAE7002FB8D0E08E0028CCD1E08F28
:102CE0000028C9D142463946204600F058FC18B1A8
:102CF0000126202060650BE0A06818B92068C16833
:102D000080680090606D08B1012601E084F851A050
:102D1000002084F85000304627E710B5401EB0F17F
:102D2000807F01D3012010BD4FF0E02460610F21AE
:102D3000601700F0E4FE0020A06107202061002061
:102D400010BD704770470000F8B501680446086878
:102D5000CA684B6910F00F0F4FF0000559D003F00F
:102D6000010602F49077374365D0C10705D0D1053D
:102D700003D5616C41F001016164410705D5D907B4
:102D800003D0616C41F002016164810705D5D90768
:102D900003D0616C41F004016164010707D502F0C2
:102DA0002001314303D0616C41F008016164616C22
:102DB00000293AD0800604D5900602D5204600F0BE
:102DC00042FD20684069616CC0F38010090700D49F
:102DD00060B3204600F002FD20684069400621D51E
:102DE0002068143050E8001F21F0400140E8001234
:102DF000002AF5D1E06BA8B16D494163E06BFEF7A5
:102E0000B3FF002811D0E06B416B01B0BDE8F0408A
:102E1000084783060FD593060DD52046BDE8F84038
:102E200000F011BD2046FFF78DFFF8BD2046FFF7EB
:102E300089FF6564F8BD266B2023012E7CD1C60670
:102E40007AD5D60678D508684868009048694FF06A
:102E50000206400640D5E16B086840680004000C9B
:102E6000E8D0A28D8242E5D9E085886920282DD05E
:102E700020680C3050E8001F21F4807140E80012F7
:102E8000002AF5D12068143050E8001F21F001011C
:102E900040E80012002AF5D12068143050E8001FE5
:102EA00021F0400140E80012002AF5D184F84230B8
:102EB000256320680C3050E8001F21F0100140E825
:102EC0000012002AF5D1E06BFEF72AFF6663A08DA1
:102ED000E18D401A81B22AE0A08DE18D401A81B2C5
:102EE000E08D0028A6D00029A4D022680C3252E838
:102EF000000F20F4907042E80007002FF5D1206801
:102F0000143050E8002F22F0010240E80027002F83
:102F1000F5D184F84230256320680C3050E8002F4A
:102F200022F0100240E80023002BF5D16663204612
:102F3000FFF707FFF8BDFFE705062BD5150629D5D6
:102F400094F841002128F5D1A068B0F5805F01D147
:102F50002069B0B1206A411C216221680078486074
:102F6000E08C401E0004000CE084E3D12068C168BE
:102F700021F08001C1602068C16841F04001C1605A
:102F8000D8E7206A0088C0F308004860206A801CE7
:102F90002062E5E74006CDD55006CBD5CA6820466D
:102FA00022F04002CA6084F8413000F004F9C1E721
:102FB000DF36000870B5040004D094F84100002505
:102FC00010B106E0012070BD84F84050204600F0AA
:102FD00023F8242084F841002068C16821F40051BE
:102FE000C160204600F090FC2068016921F4904106
:102FF00001612068416921F02A0141612068C168AE
:1030000041F40051C1606564202084F8410084F8D7
:1030100042006563002070BD2DE9F04186B00024B8
:103020000646009401940294039400682E49884255
:1030300056D12E48816941F480418161816901F452
:1030400080410491816941F0040181618069284DCA
:1030500000F0040004904FF40070009002200190F2
:103060000320039069462846FFF7C2F82815CDE9EA
:103070000004694628460294FFF7BAF81E4D1D4821
:103080008027C5E90004C5E902474FF020082C61FC
:10309000C5E905482846EC61FFF722F808B1FEF7BC
:1030A00046FDF5636E62144D12484435143801C56F
:1030B000102091C5104845F810494430C5E905482D
:1030C000EC61FFF70DF808B1FEF731FDB5630022A2
:1030D000114625206E62FFF7F9F92520FFF7E8F980
:1030E00006B0BDE8F0810000003801400010024049
:1030F00000080140580002402001002090F84230B2
:10310000202B01D00220704721B11AB100230363A4
:1031100000F056BC01207047704770472DE9F84316
:10312000044690F841001F4616460D46202802D05E
:103130000220BDE8F8837DB176B1002060642120D3
:1031400084F84100FFF756F9A6848046E684A0681B
:10315000B0F5805F02D003E00120EAE7206910B1FA
:103160002E4600250EE000260CE08021204600F0CF
:103170006FFCA0B9AEB116F8010B21684860E08C75
:10318000401EE084E08C43464FF000020097002888
:10319000EBD14FF04001204600F05AFC30B1032043
:1031A000C7E735F8020BC0F30800E6E7202084F8F3
:1031B00041000020BDE77047FEE700000D4808B55C
:1031C000416941F0010141614069002200F00100C4
:1031D000009011460E20FFF779F90E20FFF768F9ED
:1031E000002211460F20FFF771F9BDE808400F20BB
:1031F000FFF75EB90010024030B585B000241848D2
:103200000094019402940394816941F0200181614A
:10321000816901F020010491816941F0040181611B
:10322000816901F004010491816941F0100181611B
:1032300080690C4D00F010000490012210212846F6
:10324000FFF7D2F8102000900120CDE90104022000
:10325000039069462846FEF7CBFF05B030BD00005D
:103260000010024000100140104810B50E490160E6
:103270004FF48271416000218160C1604FF400729F
:103280000161C0E905120822C0E90721416281629B
:103290000A21C162FFF7B8FB002803D0BDE8104047
:1032A000FEF745BC10BD000000300140800000204A
:1032B0000C4810B50A4901604FF4E131416000212A
:1032C00081600C22C160C0E904128161C161FFF715
:1032D00071FE002803D0BDE81040FEF728BC10BDE9
:1032E00000380140D80000202DE9F14F84B04FF0A4
:1032F000000BA64CCDF800B0CDF804B0CDF808B066
:10330000206810F0FF4F07D1606810F0FF4F03D125
:10331000A06810F0FF4F7CD000F022FF9C4ED6F842
:10332000089037684946384602F0EAFCF568766846
:1033300080462946304602F0E3FC414602F0ACFDEF
:1033400080462946484602F0DBFC81463146384635
:1033500002F0D6FC494602F07DFB064629460846A7
:1033600002F0CEFC05463946084602F0C9FC4FF093
:103370007C5102F091FD294602F06CFBD4F808A0C4
:1033800005463146504602F0BBFCD4F8049007468F
:103390002946484602F0B4FC394602F07DFD039010
:1033A00027682946384602F0ABFC054641465046A0
:1033B00002F0A6FC294602F06FFD824641464846CF
:1033C00002F09EFC05463146384602F099FC29463B
:1033D00002F062FD6F4D06466868B0F5000F32DB03
:1033E0000399686802F08CFC049902F089FC00994A
:1033F00002F030FB00905146686802F081FC0499AD
:1034000002F07EFC019902F025FB019031466868CC
:1034100000E036E002F074FC049902F071FC0299BD
:1034200002F018FB0290E068009902F013FBE060E4
:103430002069019902F00EFB20616069029902F097
:1034400009FB606105E0CDF800B0CDF804B0CDF81F
:1034500008B00399286802F053FCE16802F0FAFA18
:10346000E0605146286802F04BFC216902F0F2FA54
:1034700020613146286802F043FC616902F0EAFAF3
:1034800060614FF0FF31049802F0DDFD0546E16810
:1034900002F036FCE06082462846216902F030FCEA
:1034A000206183462846616902F02AFC6061384C3D
:1034B00081464946D4E90260D4E90075804602F0AD
:1034C0001FFC01905946304602F01AFC009085F02E
:1034D0000040514602F014FC009902F0DDFC019915
:1034E00002F0DAFC394602F0B5FA2060594640464F
:1034F00002F006FC01904946304602F001FC0090C3
:103500005146384602F0FCFB009902F0A3FA0199FB
:1035100002F0C2FC294602F09DFA60605146404626
:1035200002F0EEFB01904946284602F0E9FB0090CC
:103530005946384602F0E4FB009902F0ADFC0199CF
:1035400002F088FA314602F085FAA0605146304612
:1035500002F0D6FB06465946284602F0D1FB054646
:103560004946384602F0CCFB294602F073FA314650
:1035700002F092FC414602F06DFAE06001F002FCBC
:1035800005B0BDE8F04F01F099B90000A801002096
:10359000C401002020000020FEE7FEE7704738B598
:1035A0000B46009204460022802100F009F8002812
:1035B00004D0606D40F020006065032038BD00003D
:1035C0002DE9F8431E46914688460446089DFEF7BD
:1035D00011FF401B351AFEF70DFF0746254800680E
:1035E000C0F3CB30684338E0701C37D0FEF702FFE1
:1035F000C01BA84203D215B1009860B32CE020682C
:10360000416821F0E00141606068B0F5827F0BD134
:10361000A068B0F5004F02D0B0F5806F04D12068EB
:10362000016821F040010160A06AB0F5005F09D196
:103630002068016821F4005101602068016841F4AC
:1036400000510160012084F85100002084F85000EE
:103650000320BDE8F8830025401E009020688168A3
:1036600038EA010004D000214945BDD10020F0E72F
:103670000121F9E7140000207047FEF7C1BE30B504
:103680008FB028216846FCF747FE14210AA8FCF7F2
:1036900043FE01210804CDE9001000240294022514
:1036A0000491CDE907504FF4E01009906846FFF708
:1036B0001BF808B172B6FEE70F20CDE90A054FF4FA
:1036C0008060CDE90C4002210AA80E94FEF730FF7D
:1036D000002801D072B6FEE70FB030BD704710B5BC
:1036E000406A0021C185C184FFF72CFB10BD70B575
:1036F000446A2068406994F84110C0F3C010002566
:10370000212904D118B1E584204600F08EF8206804
:10371000406994F84210C0F38010222904D118B1F6
:10372000E585204600F05AF8606C40F010006064B7
:103730002046FFF707FB70BD10B50146406A0968D7
:1037400009684FF0000289062ED4C28501680C3149
:1037500051E8003F23F4807341E80034002CF5D198
:103760000168143151E8003F23F0010341E80034BF
:10377000002CF5D10168143151E8003F23F04003DB
:1037800041E80034002CF5D1202180F84210016B73
:10379000012909D101680C3151E8003F23F01003E1
:1037A00041E80034002CF5D14263016B012902D0BD
:1037B000FFF7B2FC10BD818DFFF7C3FA10BD10B545
:1037C000406A01214163016B012902D0FFF7A5FC8A
:1037D00010BD818D4908FFF7B4FA10BD01680C31A6
:1037E00051E8002F22F4907241E80023002BF5D11C
:1037F0000168143151E8002F22F0010241E8002352
:10380000002BF5D1016B012909D101680C3151E878
:10381000002F22F0100241E80023002BF5D12021D7
:1038200080F8421000210163704701680C3151E8B3
:10383000002F22F0C00241E80023002BF5D1202107
:1038400080F84110704708B590F84210222901D045
:10385000022008BD82684FF480539A4201D1016969
:1038600021B1816A9A421BD04AB10AE00268816A9A
:103870005268C2F308020A80816A891C08E0026962
:1038800072B10268526802F07F020A70816A491CB4
:103890008162C18D491E0904090CC18503D01BE05A
:1038A00002685268F1E70168CA6822F02002CA6023
:1038B0000168CA6822F48072CA6001684A6922F00D
:1038C00001024A61202180F8421000214163026B0D
:1038D000012A03D0FFF720FC002008BD0163016826
:1038E0000C3151E8002F22F0100241E80023002B98
:1038F000F5D101680A68D20602D50A6849680091C4
:10390000818DFFF71EFAE7E770B50446006801698C
:10391000E26821F44051114301612169A068084324
:10392000616908432168CA6841F20C639A43024303
:10393000CA6020684169A26921F440711143416164
:103940001E492068884202D1FEF798FE01E0FEF78A
:1039500085FE00EBC00101EB00126068642180006D
:10396000B2FBF0F3B3FBF1F36FF018067343B2FB55
:10397000F0F5B2FBF0F605EB8305322303EB0515FA
:10398000B5FBF1F5B6FBF1F605F0F00505EB061514
:10399000B2FBF0F6B2FBF0F0B0FBF1F06FF0180202
:1039A000504306EB800003EB0010B0FBF1F0216800
:1039B00000F00F002844886070BD0000003801400E
:1039C00038B5816204468285002013466064222255
:1039D00084F84220E56B1B4AAA62E56B1A4AEA6248
:1039E000E56B1A4A2A63E26B50630A462168E06B72
:1039F000091DFEF7B3FB206801684068009020694C
:103A000048B120680C3050E8001F41F4807140E854
:103A10000012002AF5D12068143050E8001F41F050
:103A2000010140E80012002AF5D12068143050E866
:103A3000001F41F0400140E80012002AF5D10020AB
:103A400038BD000039370008BF370008EF360008DE
:103A50002DE9F041984617460E460446069D27E09C
:103A6000681C25D02DB1FEF7C5FCA0EB0800A842CC
:103A70001ED920680C3050E8001F21F4D07140E8B6
:103A80000012002AF5D12068143050E8001F21F000
:103A9000010140E80012002AF5D1202084F84100FD
:103AA00084F84200002084F840000320BDE8F08143
:103AB0002068006836EA000004D00020B842CFD069
:103AC0000020F3E70120F9E70148FFF73DB90000C6
:103AD000D8000020FEE7490050EAC12018BF0420AA
:103AE0004A0D18BF40F0010040F2FF72B2EB515F87
:103AF00008BF40F00200012808BF052070470907F1
:103B0000090E002804DB00F1E02080F80014704763
:103B100000F00F0000F1E02080F8141D7047000055
:103B20002DE9F74F144694B00021C4E9021115990C
:103B3000079121F00045C9498D4206DC1599C4E979
:103B4000000117B00020BDE8F08FC549DFF814A3CD
:103B5000A9423CDD0799C44E0029C44FC44A1599B7
:103B6000534619DD01F060FE554506D0C14AC24BEF
:103B700001F05AFEC4E900010AE04FF0D352BE4BF7
:103B800001F052FE32463B4601F04EFEC4E9000110
:103B900017B00120BDE8F08F01F0F4F9554506D0CB
:103BA000B44AB54B01F0EEF9C4E900010AE04FF068
:103BB000D352B14B01F0E6F932463B4601F0E2F94F
:103BC000C4E9000117B04FF0FF30BDE8F08FAB49FA
:103BD000A942159978DB21F0004183468846A84A1E
:103BE000A84B01F031FC0022A74B01F0CBF901F00A
:103BF000D1FB099001F0FDFB06460F469C4A534657
:103C000001F022FC43465A4601F01CFD80468A46DC
:103C1000984A994B3046394601F016FC2A0D012589
:103C20000B924246534601F00DFD032DC4E90001FD
:103C300039D00B98C1F30A51401A05EB45111139DF
:103C4000814230DA9148C346784400EB0510CDF844
:103C50000CA00C90D0E900233046394601F0F4FB6B
:103C600002460B46049106905846039901F0DCFD8C
:103C700080468A4602460B465846039901F0D4FD19
:103C8000049B069A01F0D0FD83460C9803913946B7
:103C9000D0E90223304601F0D7FB5A46039B01F0DE
:103CA000C3FD6D1CBDE707980028A2BF099817B097
:103CB000BDE8F08F616881F000416160099817B03C
:103CC0004042BDE8F08FFFE784461598C1F3130129
:103CD000C0F30A50A0F2F5304FEA601800F01F065A
:103CE000C6F12000139000200690079041F4801E3A
:103CF00005206D4676B1664A08EB00017A4452F819
:103D0000213002EB8101B3404A68139922FA01F194
:103D1000194305E05F4908EB0002794451F822108D
:103D2000A1FB0E27A1FB0C131A449A4234BF0123B6
:103D3000002303EB070A05EB8003D3E901B70F4427
:103D40008F4234BF0121002193448B4411B193452C
:103D500002D903E0934501D2012100E00021C3E92B
:103D600001B7514445F82010011EA0F10100C1DC4B
:103D70000298059F00F10050800F12900298DDE933
:103D80000356800001F035FB834628460D9101F073
:103D900047FB6FF01D0202F028F9CDE90E01304615
:103DA00001F03EFB6FF03D0202F01FF980468A46AB
:103DB000384601F035FB6FF05D0202F016F9074658
:103DC00042465346119101F0DDF8DDE90E2301F082
:103DD000D9F85A460D9B01F0D5F800250E465A46F3
:103DE00028460D9B01F020FDDDE90E2301F01CFDAE
:103DF0004246534601F018FD3A46119B01F022FC61
:103E0000DFF898A0244A534601F01EFB0746884677
:103E1000234A244B3146284601F016FB3A464346D6
:103E200001F0B0F8074688464FF0A84253463146A5
:103E3000284601F009FB3A46434601F0A3F8159ADB
:103E400012F0004F04D0129A81F0004152421292B7
:103E5000C4E90001129817B0BDE8F08FFB21E93FDB
:103E60007CD90240FB21F93F7370032E8A19A33BD2
:103E7000000040543163621A61B4D03DFB213941E6
:103E800083C8C96D305FE43F0000E03FCC250000EF
:103E9000482500002A250000182D4454FB21F93D37
:103EA0003326A611460B113C2DE9FF4D21F00048A9
:103EB00007460C46B8F1795F08DA01F06BFA002882
:103EC00001BF0020324904B0BDE8F08D3A462346D8
:103ED0001046194601F0B8FA054602462D480E462E
:103EE0000B460621784400F05DF82A46334601F07F
:103EF000ABFADDE9022382468B463846214601F0C3
:103F0000A3FA04460F4652465B462846314601F066
:103F10009BFA22463B4601F087FC07468A464FF053
:103F2000FF322846314602F060F81B4A90450ADA13
:103F30003A46534601F078FC04B00022BDE8F04D4B
:103F4000134B01F07FBB154A4245A8BFA8F50015E9
:103F50004FF00004B8BF124D22462B4601F064FC1E
:103F60000646884622462B460020094901F05CFCA3
:103F700004460D463A4653463046414601F054FC4D
:103F800004B022462B46BDE8F04D01F05BBB0000BB
:103F90000000F03F002300003333D33F0000E93F2F
:103FA0000000D23F2DE9F0414F1E00EBC70104464F
:103FB000D1E9000115461E4637F006020DD02A460B
:103FC000334601F041FA7F1E04EBC703D3E9002317
:103FD00000F0D8FF37F00602F1D1022F25D0042FD0
:103FE00013D0062F18BFBDE8F0812A46334601F0F2
:103FF0002BFAD4E90A2300F0C5FF2A46334601F024
:1040000023FAD4E9082300F0BDFF2A46334601F025
:104010001BFAD4E9062300F0B5FF2A46334601F027
:1040200013FAD4E9042300F0ADFF2A46334601F029
:104030000BFAD4E9022300F0A5FF2A46334601F02B
:1040400003FAD4E90023BDE8F04100F09BBF000073
:104050002DE9FF4D054621F0004084B00C46B0F13B
:10406000795F0BDA2846FFF736FD042808BF00F019
:104070006FF8284608B02146BDE8F08D2A460B4669
:10408000104601F0E1F906460F462A46234601F0A4
:10409000DBF9804626488A4632463B46052178446D
:1040A000FFF780FF83461098029160B3214A224BAC
:1040B0004046514601F0C8F9CDE900015A46404654
:1040C0005146029B01F0C0F982468846DDE90601AF
:1040D0004FF0FF3201F089FF5246434601F0A4FB46
:1040E00032463B4601F0B0F9DDE9062301F09CFBC6
:1040F000DDE9002301F098FB08B02A462346BDE81D
:10410000F04D01F09FBA0B465A463046394601F051
:104110009BF9084A084B00F035FF4246534601F030
:1041200093F908B02A462346BDE8F04D00F02ABFB7
:104130003E220000495555555555C5BF012201F095
:1041400054BF002213461046114600F0CBBF0000BA
:10415000024A0020110701F048BF000001FDFFFFE7
:1041600070B5174CA068014601F0CAFD06466068AC
:10417000014601F0C5FD05462068014601F0C0FD7D
:10418000294601F067FC314601F064FC01F036FC81
:1041900000F08AFE00F0C4FE0A490546C8602946C0
:1041A000206801F0BFFC20602946606801F0BAFC7D
:1041B00060602946A06801F0B5FCA06070BD0000F9
:1041C000A8010020200000202DE9F04D8D4F21F0A6
:1041D000004A86B005460C46BA452ADBAAEB070022
:1041E00028430AD08848824501DC1AD1CDB106B0F7
:1041F0002846BDE8F04DFFF7A1BF844A844B28460E
:1042000001F022F907460E46824A834B2846214692
:1042100001F01AF906B03A463346BDE8F04D00F019
:10422000B1BE0120FCF7A7F806B0BDE8F04DFFF7DE
:1042300088BF7A48824542DABAF1795F0BDA2846BC
:10424000FFF749FC042808BFFFF782FF284606B0A5
:104250002146BDE8F08D2A460B46104601F0F4F8E1
:10426000834602466E480E460B4606217844FFF709
:1042700099FE5A46334601F0E7F8804669488A4677
:104280005A46334604217844FFF78CFE5A4633469B
:1042900001F0DAF800223B4600F074FE02460B46BD
:1042A0004046514600F01EFF2A46234601F0CCF856
:1042B00006B02A462346BDE8F04D00F063BE28460E
:1042C00024F0004100223D463B4601F0BBF94FF08F
:1042D000FF3201F08AFE0646024653480F460B465F
:1042E00006217844FFF75EFE32463B4601F0ACF80B
:1042F000CDE900014D4832463B4604217844FFF7A2
:1043000051FE32463B4601F09FF800222B4600F05A
:1043100039FE834602913046394600F0C5FD80469D
:1043200043480D46504517DCDDE900015A46029B23
:1043300000F0D8FE42462B4601F086F842462B4656
:1043400000F020FE012201F050FE304A304B01F017
:104350006BFA304A304B4CE04FF0000A52460B46A5
:10436000404600F00FFECDE9031052462B461046A2
:10437000194601F069F832463B4601F063F9DDE980
:10438000033200F0AFFE06460F46DDE900015A4653
:10439000029B00F0A7FE8346009101223046394679
:1043A00001F023FE194A1A4B01F04CF906460F465C
:1043B00001224046294601F018FE5A46009B01F0B2
:1043C00043F832463B4601F02FFA06460F460122DB
:1043D0005046294601F009FE0E4DDFF858802A4666
:1043E000434601F02FF932463B4601F02BF92A46AD
:1043F000434601F027F9002CD8BF81F0004106B0F8
:10440000BDE8F08D0000F03F0000F07F075C143342
:1044100026A6913C182D4454FB21F93F0000E03FB3
:10442000901E0000A61E00001A1E0000301E000094
:104430003333EF3FFB21E93F2DE9F84F04460D46AA
:1044400021F0004000917349814211DC7249884299
:1044500001DC06D12CB120462946BDE8F84FFFF714
:104460006DBE6E48002DCCBF6D496E49BDE8F88F1A
:104470006D49814211DD6D498142D8BF4FF0FF3651
:104480006DDD20462946FFF726FB042808BFFFF70D
:104490005FFE20462946BDE8F88F6549654F25F047
:1044A0000045814233DD6449814219DD00263246F0
:1044B0004FF080432046294600F064FD80468A463E
:1044C00001222046294601F090FD00223B4601F0E2
:1044D000ABF94246534600F005FE04460D463EE069
:1044E00001260022BA463B462046294600F04AFDF6
:1044F00080460F46002253462046294601F094F993
:1045000042463B4600F0EEFD04460D4627E04B498F
:1045100081421BDDDFF828A10226002253462046F7
:10452000294600F091FF00223B4600F02BFD80461B
:104530000F46002253462046294601F075F94246AF
:104540003B4600F0CFFD04460D4608E00326224618
:104550002B4600203B4900F0C5FD04460D4622468F
:104560002B461046194600F06FFF8B4682460246E6
:104570000B4600F069FF07460246334888460B4663
:1045800006217844FFF70EFD52465B4600F05CFFC3
:1045900082462E488B463A46434605217844FFF72B
:1045A00001FD3A46434600F04FFF02460B46002EFF
:1045B000504659460CDA00F0E5FC22462B4600F046
:1045C00043FF01B022462B46BDE8F04F01F03AB858
:1045D00000F0D8FC22462B4600F036FF1C4A7A44F5
:1045E00002EBC603D3E9002301F01EF922462B4655
:1045F00001F01AF9174A7A4402EBC603D3E9002303
:1046000001F020F8009A002AB8BF81F00041BDE80F
:10461000F88F0000000010440000F07F182D445473
:10462000FB21F93FFB21F9BF0000DC3F0000203EE9
:104630000000F33F0000F03F0000E63F0080034031
:104640000000F83F0000F0BF321C0000F01B00002B
:104650008E1B0000561B000000B5244B21F00042C9
:1046600087B09A42DCBF0022134629DD204B9A42D4
:1046700008D140B94FF00100FBF77DFEFFF761FD67
:1046800007B000BD03DBFFF759FD07B000BD02AA6C
:10469000FFF746FA10F0030104BF0DF1080C9CE887
:1046A0000F000DD0012001290ED0022914D00DF1E8
:1046B000080C00909CE80F00FFF7CAFC07B000BD93
:1046C000FFF7F2FB07B000BD0DF1080C00909CE86D
:1046D0000F00FFF7BDFC05E00DF1080C9CE80F0092
:1046E000FFF7E2FB07B081F0004100BDFB21E93F8D
:1046F0000000F07F13B54FF47A7301226946024837
:10470000FEF70CFD00981CBDD80000201FB5FDF77A
:104710007FFEFEF7B4FFFEF76FFDFEF74FFDFEF7DD
:10472000A3FDFEF7C5FD4820FDF7E6F91B4800682C
:10473000C16841F01001C160642219491748FEF7B1
:10474000DDFC00F041F8FDF70BFA00F05DF9DFF851
:104750005490154C1348FDF7B5F94D46C9F80400BF
:10476000FDF7FEF96868FEF7BFFDA06801F046F9A5
:1047700007468846606801F041F905460E46206804
:1047800001F03CF98DE8E00102460B4607A0FBF77B
:1047900051FD0120FDF71AFDDCE70000D8000020E4
:1047A0004000002000000020D40100207961773D06
:1047B00025662C726F6C6C3D25662C70697463687D
:1047C0003D25660D0A00000030B585B06420FDF778
:1047D000FDFC752000F020F80D490024142288709B
:1047E0000C496846FBF766FD4FEA0D0505EB4400F2
:1047F000417815F8140000F037F80120FDF7E6FCC9
:10480000641CE4B20A2CF1D305B0002030BD0000D6
:1048100018000020EC600008F8B5104E0446002295
:1048200010213046FDF7E0FD44F080000C4C3725A8
:10483000621C20700123511E0A480095FEF776F98C
:10484000621C0123511E07480095FEF76FF90122F3
:1048500010213046FDF7C8FD6078F8BD001001401A
:104860001800002080000020F8B5114F0E460446C5
:10487000002210213846FDF7B7FD04F07F000D4CF3
:104880003725621C20700123511E0B480095FEF74E
:104890004DF92670621C0123511E07480095FEF752
:1048A00045F9012210213846FDF79EFD0020F8BD94
:1048B0000010014018000020800000202DE9F04F7A
:1048C0004D4C85B0D4F80C904946484601F018FA92
:1048D0000490D4F8088007464146404601F010FA9B
:1048E0000390666805463146304601F009FA2468AF
:1048F00082462146084601F003FA514601F0CCFAFF
:104900002946029001F0A6F8394601F0C5FA07469B
:104910000121304601F097FB4146019001F0F0F98A
:1049200005460121204601F08EFB4946009001F02A
:10493000E7F9294601F0B0FA394601F0F3F801F041
:104940005DF8FFF779FDDFF8B4A00022534600F0D0
:104950007BFDDFF8ACB02B4B5A4600F0C3FB00F0F8
:10496000DFFA254C1034206002A823C801F094FA25
:10497000294601F06FF807464946019801F0C0F951
:1049800005464146009801F0BBF9294601F084FA3A
:10499000394601F0C7F801F031F8FFF74DFD00226C
:1049A000534600F051FD5A46164B00F09BFB00F0B9
:1049B000B7FA60603146009801F0A2F9054601217E
:1049C000404601F040FB494601F09AF9294601F0C2
:1049D00041F801F013F8FFF7F7FB0022534600F00F
:1049E00033FD5A46074B00F07DFB00F099FAA060BA
:1049F00005B0BDE8F08F0000C401002000806640D3
:104A00001F85EB51B81E09402DE9F05FD84CD94DF8
:104A100000202060D5E901673946304601F082F870
:104A200000F0ECFFFFF708FDDFF84C83002243465F
:104A300000F00AFDDFF84493DFF844A34A465346EA
:104A400000F050FB00F06CFA39466060084601F057
:104A500057F907463146084601F052F906462868DC
:104A6000014601F04DF9314600F0F4FF394600F0FF
:104A7000F1FF00F0C3FF00F017FA06460F46686822
:104A800000F0BCFF32463B4600F02CFBFFF79CFBDE
:104A90000022434600F0D8FC4A46534600F022FB71
:104AA00000F03EFA4FF0FF31A06001F0CCFA00F0C8
:104AB000A5FF00F0A9F9074688464FF0FF3160686E
:104AC00001F0C1FA00F09AFF00F09EF905460E468B
:104AD0004FF0FF31206801F0B6FA00F08FFF00F0D0
:104AE00093F92A46334600F0AFFC3A46434600F0BD
:104AF000ABFC81468A464FF0FF31A06801F0A3FA73
:104B000000F07CFFFFF7A8FD06460F464FF0FF318F
:104B1000606801F098FA00F071FFFFF79DFD05460F
:104B200088464FF0FF31206801F08DFA00F066FFF3
:104B3000FFF792FD43462A4600F086FC32463B468C
:104B400000F082FC4A46534600F06EFE00F0E8F9A1
:104B5000A4F1100B4FF0FF31CBF80000206801F0FA
:104B600072FA00F04BFF00F04FF9074688464FF00D
:104B7000FF31606801F067FA00F040FF00F044F98F
:104B80000E4605464FF0FF31A06801F05CFA00F0D8
:104B900035FFFFF761FD2A46334600F055FC3A46E3
:104BA000434600F051FC804689464FF0FF31A06833
:104BB00001F049FA00F022FF00F026F982460F4684
:104BC0004FF0FF31206801F03EFA00F017FFFFF7C9
:104BD00043FD05460E464FF0FF31606801F033FAA1
:104BE00000F00CFFFFF738FD2A46334600F02CFC9E
:104BF00052463B4600F028FC42464B4600F014FE6D
:104C000000F08EF9CBF804004FF0FF31206801F07E
:104C10001AFA00F0F3FE00F0F7F8074688464FF066
:104C2000FF31A06801F00FFA00F0E8FE00F0ECF8A8
:104C300005460E464FF0FF31606801F004FA00F0BF
:104C4000DDFEFFF709FD2A46334600F0FDFB3A463C
:104C5000434600F0F9FB82460F464FF0FF31606893
:104C600001F0F1F900F0CAFE00F0CEF806468846E1
:104C70004FF0FF31206801F0E6F900F0BFFEFFF7CA
:104C8000EBFC054689464FF0FF31A06801F0DBF9E7
:104C900000F0B4FEFFF7E0FC2A464B4600F0D4FBE0
:104CA0003246434600F0D0FB52463B4600F0BCFD86
:104CB00000F036F9CBF808004FF0FF31606801F0E2
:104CC000C2F900F09BFE00F09FF8064688464FF0C0
:104CD000FF31A06801F0B7F900F090FE00F094F801
:104CE00007460D464FF0FF31206801F0ACF900F0A7
:104CF00085FEFFF7B1FC3A462B4600F0A5FB324695
:104D0000434600F0A1FB80460F464FF0FF3120687C
:104D100001F099F900F072FE00F076F806468A4636
:104D20004FF0FF31606801F08EF900F067FEFFF789
:104D300093FC054689464FF0FF31A06801F083F9E6
:104D400000F05CFEFFF788FC2A464B4600F07CFB37
:104D50003246534600F078FB42463B4600F064FD85
:104D600000F0DEF8CBF80C00BDE8F05F00F00AB808
:104D7000D4010020A8010020008066401F85EB516F
:104D8000B81E09402DE9F0411D4CE068014600F0D5
:104D9000B7FF0746A068014600F0B2FF064660680C
:104DA000014600F0ADFF05462068014600F0A8FF6F
:104DB000294600F04FFE314600F04CFE394600F027
:104DC00049FE00F01BFE00F06FF800F0A9F80D4955
:104DD000054688602946206800F0A4FE2060294628
:104DE000606800F09FFE60602946A06800F09AFEAF
:104DF000A0602946E06800F095FEE060BDE8F08123
:104E0000C40100202000002000B5254B21F0004205
:104E100087B09A4203DC0022134600922BE0214B1C
:104E20009A4208D140B94FF00100FBF7A4FAFFF70E
:104E300088F907B000BD03DBFFF780F907B000BDBC
:104E400002AAFEF76DFE10F003014FF001000DD035
:104E5000012914D002291AD00DF1080C9CE80F008A
:104E6000FFF722F807B081F0004100BD0DF1080CFA
:104E700000909CE80F00FFF7EBF807B000BD0DF1C4
:104E8000080C9CE80F00FFF70FF807B000BD0DF10C
:104E9000080C00909CE80F00FFF7DAF8E2E700004A
:104EA000FB21E93F0000F07F2DE9F04106460F4667
:104EB00000F0D4FB041E0D4618BF0120284320F04B
:104EC0000040C0F17F6000F1E040C00F0ED0301C08
:104ED00018BF0120384320F00040C0F17F6000F18E
:104EE000E040C00F04BF0120FBF745FA20462946E9
:104EF000BDE8F08110B500290AD00878002807D055
:104F000005487844FBF76AFF002801D0002010BD57
:104F10000248784410BD0000C6140000BE14000012
:104F200021F00042A2F16052B2F5801F01F000436F
:104F300028BFD2F17F6C0BD95FEA001C43EAC202A2
:104F400042EB507018BF704728BF20F00100704737
:104F5000B2F5801FBCBF184670474FEA410C1CF5E4
:104F6000001F02D2084600F092BF70B500F016FB99
:104F700000000089FFF7F6BF4FF00040A0F5800069
:104F80007047000010B591EA030F48BF83F000435B
:104F900000F15284841A71EB030C05D2121943EB11
:104FA0000C03001B61EB0C01DFF824E14FEA115404
:104FB000A4EB135C1EEA430F18BF9EEA445F73D054
:104FC00023EA0E03DCF1200E21EA045143F480139E
:104FD00032D322FA0CFE10EB0E0023FA0CFE41EB4A
:104FE0000E01CCF1200E03FA0EFE10EB0E0051F173
:104FF0000001B1F5801FCCF1200E32D201EB04513B
:1050000012FA0EF2BDE8104058BF7047401C38BF7E
:105010005FEA420218BF7047002814BF20F0010069
:1050200041F100014FEA410313F5001F38BF7047FB
:10503000A1F1C04100F000BB012A43EB0302ACF137
:10504000200CDCF11F0E32BF4FF0000E23FA0CF3E0
:1050500010EB030041EB0451B4EB115FD0D0A1EB96
:10506000045101F5801149085FEA300001EB045159
:105070000ED350F1000038BF12FA0EFE08D1BDE881
:105080001040C9E7401C38BF5FEA4202CAD1C3E7FB
:10509000BDE810404FEA410313F5001F38BF7047C9
:1050A000A1F1C04100F0C8BA9EEA445F08D011EAFD
:1050B0005E0FBDE8104004BF01F0004100207047C2
:1050C000BDE8104070B500F069FA00BF64FBBE3E59
:1050D0000000E0FF02494FF0000000F054BF00BFA5
:1050E0000000F87F2DE9C04130B4DFF8A0C23CEAEF
:1050F000111418BF3CEA131400F0EC8081EA030598
:105100001CEA111444EAD57418BF1CEA131500F008
:10511000C780A4EB05044FF0004545EAC12145EAEC
:10512000C32341EA505143EA525304F17F74994238
:1051300004F500344FEAC0204FEAC22208BF904273
:1051400000F09C804FEA13650FF24016765D4FEA3F
:10515000134506FB05F7C7F1807706FB07F74FEA13
:10516000D737A7FB03687642C8F58038A7FB06CE81
:1051700038BFA8F1010807FB08E64FF0000EA6FBB8
:10518000028CE6FB03CEDCF1000CCEF1004E38BF02
:10519000AEF1010EA6FB0C584FF000074FF00005D2
:1051A000E6FB0E87A1FB08C6A0FB07CE16EB0E069A
:1051B00045F10005E1FB076515F1E04E7EBFA4F562
:1051C00080345FEA46066D4116F1800745F100051F
:1051D0004FEA17274FEA066647EA0567A6F1DE465B
:1051E000B6F1805F4FEA15251FD9384624F0010C2F
:1051F00005EBC471BCF1FE6F01EB0C1102D8F0BCE1
:10520000BDE8008124425CBF01F5801E9EEAC47F98
:1052100002D4F0BCBDE80081244238D4F0BCA1F136
:10522000C041BDE8004100F007BA4FEAD22242EA8D
:1052300043524FEAD323A7FB02864FEAD02040EA2D
:10524000415007FB03661EEA0E0F4FEAD12105FB12
:10525000026658BFA6EB0056B6EB00564FEA520E58
:105260004EEAC37E18EB0E0E56EB530EBDD518EB6F
:1052700002085E417F1C55F10005B6E74FF480152A
:105280004FF000074FF000064FF00008ADE7F0BC0C
:105290004FF0000001F1C04101F00041BDE8008184
:1052A00011EA0C1F0CEA131500D00CE013EA0C1FD6
:1052B00000F025804FF00000F0BC81EA030101F00E
:1052C0000041BDE80081F0BCBDE8004181EA030176
:1052D00000F0B2B9F0BCBDE8004170B500F05EF975
:1052E000097EFC3E00F007B881EA03014FF00000A0
:1052F00001F00041704781EA030100F09DB9F0BC64
:10530000BDE800414FF0000021497047FFFDFBF967
:10531000F7F5F4F2F0EEEDEBE9E8E6E4E3E1E0DEE8
:10532000DDDBDAD8D7D5D4D3D1D0CFCDCCCBCAC85A
:10533000C7C6C5C4C2C1C0BFBEBDBCBBBAB9B8B781
:10534000B6B5B4B3B2B1B0AFAEADACABAAA9A8A874
:10535000A7A6A5A4A3A3A2A1A09F9F9E9D9C9C9B42
:105360009A999998979796959594939392919190ED
:105370008F8F8E8E8D8C8C8B8B8A8989888887877E
:105380008685858484838382828181800000FF07F3
:105390000000F87F4FEA41034FEA5353A3F58063BF
:1053A000D3F11E03C8BFD3F1210C0CDD4FF0004236
:1053B00042EAC12242EA505232FA03FC8CEAE17C12
:1053C000ACEBE1707047102BC4BF0020704703F5B1
:1053D000787CBCF1FF3F04D06FF0004282EA2100EC
:1053E000704770B500F0DAF84992248000207047C9
:1053F000F2E710F0004248BF4042B0FA80F310FAE2
:1054000003F10AD0C3F11D0303F580634FEA415055
:1054100002EB035202EBD12170474FF000007047BE
:10542000B0FA80F310FA03F10AD0C3F11D0303F5BB
:1054300080634FEA41504FEA035202EBD12170479B
:105440004FF0000070470000DFF848C170B51CEA5B
:10545000111E1EBF1CEA13159EEA0C0F95EA0C0FD5
:1054600000F06F8081EA030423EA4C134EEAD47EF5
:1054700021EA4C1141F4801143F48013AE44A1FBA6
:10548000024CA0FB0365AEF17F7E361955EB0C058F
:10549000A1FB034C4CF10003A0FB021C16EB0C0615
:1054A000654153F10003094218BF46F0010613F4A9
:1054B000007F0BD14FEA03314FEA0530340341EA54
:1054C000155140EA16506FF003020AE04FEAC3217B
:1054D0004FEAC520F40241EA555140EA56506FF0B8
:1054E000020202EB2E4201EB025585EACE710AD090
:1054F0005FEA440C18BF24F0004450F1000041F171
:10550000000120EAD47040F2FE7C624500D270BDFA
:10551000A84214BF4FF080444FF04044002E08BF13
:105520000024BEF1806FA8BFA1F1C041BDE870406A
:1055300080F282804FF0000001F1C04101F0004193
:1055400070479EEA0C0F0CEA131518BF95EA0C0F72
:1055500006D04FF0000081EA030E0EF0004170BD4E
:1055600000F01CF88900013E00F007B800F009B80F
:105570004FEA430C5FEA5C5C08D081EA030100F06B
:105580005BB84FEA410C5FEA5C5CF6D14FF000007B
:10559000014970470000FF070000F87F0EF1020E7E
:1055A0002EF0030E5EF8046B364205D4012A43EB5D
:1055B000030515F5001F12D8012841EB010C1CF55D
:1055C000001F0CD80ED14FEAD17C15F5001F0CEB53
:1055D0004C0C0CF1020C08BF4CEBD37C04E04FF0F8
:1055E000080C01E04FEAD37C0CEB4C0526FA05F6DB
:1055F00006F00706B6F1040C06D20EEB860CBDE8E9
:1056000070404CF0010C6047DFE80CF0090B02021F
:105610004FF000414FF00000A1F5002170BD194688
:105620001046012851EB010418BFD4F5001484BFC3
:10563000002001F0004170BD0808A0F500114FEAFC
:105640003101704791EA030F10B581F000413FF539
:10565000A1AC83F0004300F0EFB800002DE9F04169
:1056600001F5801CBCF5001FC0F2C3804FEA115C3D
:1056700021EA0C510CF1FD0C41F480115FEA5C0C45
:105680000CF5C07C01D3400049413DA4890241EAA8
:10569000905187028E0E0A0CA45D04FB04F602FBF7
:1056A00006F6C6F14046A4FB0662F60D46EA42261F
:1056B00006FB06F4A4FB01235242C3F1404338BF6A
:1056C0005B1EA6FB02420024E6FB0324D20B42EA47
:1056D0004446A6FB0623A1FB02E2A3FB07E4A418B1
:1056E0004FF0000252F10002E3FB01426442C2F1BA
:1056F000404E38BFAEF1010EA6FB04234FF000026E
:10570000E6FB0E32A2FB03464FF00004B61954F13B
:105710000004E2FB0264A1FB06E6A4FB07E816EB2B
:1057200008064FF0000858F10008E4FB01687642D3
:10573000C8F1405838BFA8F10108A2FB06E4A3FB5A
:1057400008E52D194FF0000454F10004E2FB085461
:10575000A1FB05E6A7FB04E818EB06084FF00006DE
:1057600056F10006E1FB048618F1200556F100060B
:10577000A809A8F11B08B10908F03F08B8F10A0F01
:1057800040EA86601CD901EB0C51BDE8F08100BFF6
:10579000FCF5EEE8E2DDD8D3CFCBC7C3C0BDB9B6C8
:1057A000B4B1AEACA9A7A5A3A19F9D9B9A989695CD
:1057B0009392908F8D8C8B89888786858483828154
:1057C000A0FB006800FB01F208EB4208B8EB872859
:1057D00007D5341858EB0104D5D5401C51F1000110
:1057E000D1E7341A78EB0104CDD4401E71F10001E9
:1057F000C9E75FEA4C0C5FEA9C5C0DD105D34FF022
:10580000000001F00041BDE8F081BDE8F04170B555
:10581000FFF7C4FE6DDBFFBEBDE8F0414FF00000B6
:10582000004970470000F87F10B591EA030F48BFA8
:1058300083F000433FF5AEAB841A71EB030C07D243
:1058400012198CF0004C43EB0C03001B61EB0C01B4
:10585000DFF8A4E14FEA1154A4EB135C1EEA430FF6
:1058600018BF9EEA445F00F0B08023EA6E03524204
:1058700021EA0451C3EB6E0338BF5B1EDCF1200E3E
:1058800025D322FA0CFE10EB0E0043FA0CFE41EB7E
:105890000E01CCF1200E03FA0EFE10EB0E0051F1BA
:1058A0000001CCF1200E29D412FA0EF201EB0451C2
:1058B000BDE8104058BF7047401C1CBFB2F1004FFC
:1058C000704700280CBF491C20F00100704712EB04
:1058D000020E43EB030218BF4FF0010E4EEA4202E4
:1058E000ACF1200CDCF11E0E54D943FA0CFE10EB87
:1058F0000E0051F1FF31CCF11E0ED5D50EF1010E87
:1059000012FA0EFE404141EB010101EB445C5FEAFB
:105910005C5C10D910EBDE7001EB045138BFBEF1B6
:10592000004FBDE8104018BF704700280CBF491C4D
:1059300020F00100704730D24FEAD42C11F500114D
:1059400024F400641BD0B1FA81F20B3AA41AA41E0D
:10595000D2F12003914030FA03F31943904001EB58
:10596000CC71002C01EB0451BDE81040A8BF70477A
:1059700001F1C0414FF0000001F000417047B0FA62
:1059800080F310FA03F100D110BDE41A173C48056A
:10599000C90AE4E701EB045110BD491001EB0451C1
:1059A000BDE810404FEA300002E04FF000017047C0
:1059B0004A0008BF0042F8D0B2F5001F28BF704768
:1059C00001F000414FF0000070479EEA445F07D0AD
:1059D00011EA5E0FBDE8104004BF002100207047AF
:1059E000BDE8104070B5FFF7D9FD00BF40DFF63EBF
:1059F00083F00041104670470000E0FF43004FEA8B
:105A0000D30C4FEA3C0C43401FBF40070CF16051E0
:105A100013F0FE4F70471CF0006F03D100200CF014
:105A2000004170470CF0004343EA507010B540EA63
:105A3000CC0000F0E6F900BF000000924FEA000140
:105A4000FFF7FABD4FF000414FF00000A1F5002133
:105A50007047000090EA010F48BF81F0004100F15B
:105A60002282421A3CBF801A89184FEAD0524FF066
:105A70007F4C1CEA410FA2EBD15318BF9CEA026F86
:105A800000F03B804FF0004C4CEA00204CEA012132
:105A900021FA03FC10EB0C0C1ED202F1FF325FEA7C
:105AA0001C2040EBC25038BF70471CF07F0F4FEAFC
:105AB000400C18BFBCF17F4F38BF7047C3F12003C3
:105AC000994008BF20F00100BCF17F4F38BF7047FC
:105AD000A0F1C04000F0DBB94FEA3C00000A40EB07
