:020000040800F2
:10000000E005002045010008E7250008052200085A
:10001000E5250008CB0A0008212B0008000000009D
:10002000000000000000000000000000C5260008DD
:10003000790B000800000000E9250008C726000829
:100040005F0100085F0100085F0100085F01000810
:100050005F0100085F0100085F0100085F01000800
:100060005F0100085F0100085F0100085F010008F0
:100070005F0100085F010008CD0A0008D90A0008E6
:100080005F0100085F0100085F0100085F010008D0
:100090005F0100085F0100085F0100085F010008C0
:1000A0005F0100085F0100085F0100085F010008B0
:1000B0005F0100085F0100085F0100085F010008A0
:1000C0005F0100085F0100085F0100085F01000890
:1000D0005F010008152B00085F0100085F010008A0
:1000E0005F0100085F0100085F0100085F01000870
:1000F0005F0100085F0100085F0100085F01000860
:100100005F0100085F0100085F0100085F0100084F
:100110005F0100085F0100085F0100085F0100083F
:100120005F0100085F0100085F0100085F0100082F
:10013000DFF80CD000F098FC00480047DD410008D3
:10014000E00500200648804706480047FEE7FEE736
:10015000FEE7FEE7FEE7FEE7FEE7FEE7FEE7FEE777
:1001600029270008310100082DE9F05F054600202D
:1001700092469B4688460646814640241BE0284618
:1001800041464746224600F02FF853465A46C01AC9
:10019000914110D311461846224600F016F82D1A48
:1001A00067EB01084F4622460120002100F00DF8C0
:1001B00017EB00094E41201EA4F10104DFDC484684
:1001C00031462A464346BDE8F09F202A04DB203A08
:1001D00000FA02F1002070479140C2F1200320FA9A
:1001E00003F3194390407047202A04DB203A21FA98
:1001F00002F00021704721FA02F3D040C2F1200240
:100200009140084319467047202A06DBCB17203A55
:1002100041FA02F043EAE07306E041FA02F3D0400B
:10022000C2F12002914008431946704740EA010399
:100230009B0703D009E008C9121F08C0042AFAD29C
:1002400003E011F8013B00F8013B521EF9D2704760
:10025000D2B201E000F8012B491EFBD27047002208
:10026000F6E710B513460A4604461946FFF7F0FFB5
:10027000204610BDF0B480EA0102D40F4200B2EB78
:10028000410F02D20246084611464A0042D0C30D31
:10029000DDB2C1F3C752AD1A202D35DAC1F3160114
:1002A00041F4000204B15242C5F1200602FA06F1FF
:1002B0002A411044B3EBD05F23D0C4B1012DA0EB91
:1002C000C35009DCF0BC4FF0004202EAC352DBB27B
:1002D00000F5000000F0AABA400000F1807000EBC9
:1002E000C350A0F1807040EAD170490009E049088C
:1002F00041EAC071A0EBC35000F50000400800EBDC
:10030000C350F0BC00F089BA6142012202EB410106
:10031000001BF6E7F0BC704781F00041AAE780F0CF
:100320000040A7E780EA010210B502F00043400058
:1003300022D04A001FD0010E01EB1261C0F356001B
:10034000C2F3560240F4000042F40002A0FB022077
:1003500000047F39140400D0401C50EA124001D43C
:100360004000491EC2B20C0604EBD010401C4008ED
:10037000802A02D003E0002010BD20F001000029F7
:1003800000DA0020184310BD30B480EA010202F008
:10039000004530F0004221F0004013D090B1C30D71
:1003A000D40DC2F31601C0F31600E41A41F40001A3
:1003B00040F400027D34914201D3641C00E0490006
:1003C000002C02DA30BC002070474FF400000023FC
:1003D000914201D3891A034340084FEA4101F7D102
:1003E00051B1914202D14FF0004105E002D24FF0ED
:1003F000010101E06FF0010103EBC450284430BC5F
:1004000000F00BBA420005D0C0F3C75252429142ED
:1004100001DC0020704700EBC15070472DE9FE4F12
:10042000804681EA0300C00F0C46009021F0004195
:1004300023F00045B8EB0200A94105D24046214611
:1004400090461C460B46024623F00040104347D01E
:10045000270DC7F30A00C3F30A510290401A019016
:1004600040286BDAC3F3130040F4801B00989246D7
:1004700020B10023D2EB030A63EB0B0B0198594622
:10048000C0F140025046FFF7A0FE06460D4650461A
:100490005946019AFFF7B8FE10EB080061410024AD
:1004A00087EA115284EAE7731A4340D0009A62B394
:1004B000019A012A4FEA075215DC001B61EB020189
:1004C0004FF0004202EA0752CDE90042001C41F51C
:1004D000801132462B4600F0E6F903B0BDE8F08FFC
:1004E00040462146F9E7001B61EB0201001C41F583
:1004F000801300185B412018A2F5001747EB030199
:1005000040EAD570B6196D4111E06D084FEA360624
:1005100045EAC0754FEA0752001B61EB0201001C5F
:1005200041F5801149084FEA300000195141324627
:100530002B4603B0BDE8F04F00F0A6B900980122A9
:1005400040000023D0EB020263EBE07300982146E9
:100550004FEAE074B8EB000061EB0401E9E783F0D7
:1005600000435BE781F0004158E72DE9FE4F81EA47
:10057000030404F0004421F0004100944FF0000B0C
:1005800023F0004350EA01045ED052EA03045BD03A
:10059000C3F30A54C1F30A552C44A4F2F334019472
:1005A000A0FB0254C1F3130141F48011C3F3130300
:1005B00043F4801301FB024400FB034E840A970AB4
:1005C00044EA815447EA8357A4FB076802958D0AE1
:1005D00005FB07854FEA932C04FB0C542705029D6D
:1005E0004FEA065847EA1637B5EB08056EEB070CDD
:1005F000870E920E47EA811742EA8312A7FB020197
:10060000B6EB0B0164EB00042B0D43EA0C335E18D0
:1006100044EB1C50DA465146E7FB0201C5F31304D4
:100620004FEA0B3343EA14534FEA0432019C43EA86
:100630000603A4F10C040294009CCDE900B400F080
:1006400032F903B0BDE8F08F00200146F9E72DE94B
:10065000F04D81EA030404F0004B21F000451446FC
:100660004FF0000A23F0004150EA050220D054EA7E
:1006700001021DD0C5F30A570246C5F31303C1F3A7
:100680001300C1F30A5640F4801543F48013A7EB1E
:100690000608101BD64608F2FD3873EB050002D39E
:1006A00008F1010801E092185B41B8F1000F03DA8C
:1006B00000200146BDE8F08D00204FF48011064671
:1006C00084460EE0171B73EB050705D3121B63EB83
:1006D000050306434CEA010C49084FEA3000921822
:1006E0005B4150EA0107EDD152EA030012D082EAE1
:1006F000040083EA0501084305D0101BAB4106D274
:100700000122002306E000224FF0004302E06FF0D8
:10071000010253101AEB06004CEB085110EB0A00D3
:1007200041EB0B01BDE8F04D00F0AEB870B521F023
:10073000004303430CD0C1F30A550024D5EB040554
:1007400064EB0403D617AD1AB34102DB0020014667
:1007500070BD201841EB025170BDC10F80EAE070FE
:100760000844CA079623002100F060B896230022AF
:10077000114600F05BB80EB540F233410291002102
:10078000CDE900110A460B4600F08DF803B000BD1C
:1007900000F0004230F000400AD0C10D01F5607158
:1007A000C0F3160042EA0151C208400711437047E6
:1007B00000200146704701F0004330B421F00041B1
:1007C00050EA010206D00A0DA2F56072C1F31301CE
:1007D000002A02DC30BC00207047440F44EAC10408
:1007E000C100E01830BC00EBC25000F016B830B5C4
:1007F0000B46014600202022012409E021FA02F5DF
:100800009D4205D303FA02F5491B04FA02F5284478
:10081000151EA2F10102F1DC30BD0029A8BF70470E
:10082000401C490008BF20F00100704710B4B0FA26
:1008300080FC00FA0CF050EA010404BF10BC7047C1
:1008400049B1CCF1200421FA04F411FA0CF118BFDB
:10085000012121430843A3EB0C01CB1D4FEA0061AA
:100860004FEA102042BF002010BC704700EBC3507D
:1008700010440029A4BF10BC7047401C490008BFA9
:1008800020F0010010BC704710B5141E73F1000475
:1008900008DA401C41F1000192185B411A4301D172
:1008A00020F0010010BD2DE9F04D92469B4611B19C
:1008B000B1FA81F202E0B0FA80F220329046FFF7FE
:1008C00084FC04460F4640EA0A0041EA0B01534605
:1008D0005A46084313D0114653EA010019D0C8F113
:1008E00040025046FFF780FC05460E4650465946EA
:1008F0004246FFF76AFC084305D0012004E0204689
:100900003946BDE8F08D0020054346EAE0762C43E9
:1009100037430A986305E40AA0EB08000022FD0AA9
:1009200044EA47540A3002D500200146E9E70105B0
:1009300010196941DDE9084500196941BDE8F04D2C
:10094000A2E72DE9F04D00231A461B1A8A4103DB6A
:1009500000200146BDE8F08DC1F30A52C1F3130136
:1009600041F480154FF0000BD10702D100186D4102
:10097000521E0027044640F2FF11384601EB620A7E
:100980003E468046024600204FF48011FFF72CFCC3
:10099000C2197141BB1846EB0100B4EB030C75EBB7
:1009A000000C04D3E41A65EB000517460E46241923
:1009B00008F101006D4180463428E3DDF91946EB6A
:1009C0000600091BA84103D24FF0FF32134601E095
:1009D000002213461BEB070046EB0A51BDE8F04D21
:1009E000FFF752BF0EB5C10F80EAE0700844CA0796
:1009F000002140F233438DE80E000A460B46FFF714
:100A000052FF03B000BDC1F30A52C1F3130140F21B
:100A1000FF3341F480119A4202DA00200146704708
:100A200040F233439A42A2F2334202DC5242FFF7D1
:100A3000DBBBFFF7CABB000030B5041E71F1000438
:100A400004DB4FF00044404264EB0101141E73F1DB
:100A5000000405DB1C464FF00043524263EB0403E5
:100A6000994208BF904230BD064C074D06E0E06851
:100A700040F0010394E8070098471034AC42F6D3E5
:100A8000FFF75AFB584C0008784C000870B5C1F3CA
:100A90000A5201F000450024C1F3130140F2FF3374
:100AA00041F480119A4201DA002070BD40F23343D4
:100AB0009A42A2F2334203DC5242FFF795FB00E078
:100AC00090402C43F1D0404270BDFEE7014800F059
:100AD00009BA000060010020014800F003BA0000DC
:100AE0001C01002030B590F840500124AC40C56B8B
:100AF0006C60046863604368102B036803D09960DE
:100B00000068C26030BD9A600068C16030BD0000FE
:100B100038B5044609484068009009480068FFF766
:100B200025FE054620680099081AFFF71FFE294692
:100B3000FFF72AFC0099216038BD0000001000E09A
:100B40003000002008490A6842F080720A600749B4
:100B500000224A600A6842F001020A6004494843E0
:100B60000449086070470000FCED00E0001000E060
:100B700040420F0030000020704772B6FEE70000D0
:100B800070B50546084603F0AFFB074C20702846B9
:100B900003F0AAFB6070E11EB4F90000C880BDE854
:100BA0007040FFF7DABD00001B0000202DE9F04780
:100BB0003C213B20FFF7E4FF0F21FFF723FCFFF769
:100BC000E7FD514A514BFFF7D0FC6FF00E052A4666
:100BD000FFF7ACFD4E4A4F4BFFF720FCFFF7EBFD54
:100BE0004D4C3E2120603D20FFF7CAFF0F21FFF74B
:100BF00009FCFFF7CDFD494A494BFFF7B6FC2A46F1
:100C0000FFF794FD474A484BFFF7A9FCFFF7D3FDD8
:100C1000606040213F20FFF7B3FF0F21FFF7F2FB99
:100C2000FFF7B6FD414A424BFFF79FFC2A46FFF70C
:100C30007DFD404A404BFFF7F1FBFFF7BCFDA06094
:100C400044214320FFF79CFF3C4E3146FFF76AFBEF
:100C50002946FFF7D7FBFFF79BFD394A394BFFF7D2
:100C6000DDFB394FDFF8E4803A464346FFF77DFC71
:100C7000DFF8DC9000224B46FFF7E9FCFFF79BFD15
:100C8000E06046214520FFF77BFF3146FFF74AFB36
:100C90002946FFF7B7FBFFF77BFD2E4A2E4BFFF7E8
:100CA0005EFC3A464346FFF760FC00224B46FFF7E6
:100CB000CEFCFFF780FD206148214720FFF760FF51
:100CC0003146FFF72FFB2946FFF79CFBFFF760FD3E
:100CD000224A234BFFF7A2FB3A464346FFF745FC67
:100CE00000224B46FFF7B3FCFFF765FD6061422130
:100CF0004120FFF745FF1B49FFF746FB1A49FFF765
:100D0000B9FAA061BDE8F087D1915CFE43FAEF3FEC
:100D10009A9999999999993FA4010020EA95B20C62
:100D200071ACEF3F9D11A5BDC117B63F9D8026C296
:100D300086A7EF3FF2B0506B9A77DC3F0000FA4491
:100D4000C6FCDCD094DDFA3F1F85EB51B81E09408C
:100D50000080664043A9BD88B6C3004037E15E9974
:100D6000B7EAF33F5CEFA6430000A84110B590F846
:100D700021100022022905D00421816380F820205F
:100D8000012010BD01680B6823F00E030B600168A1
:100D90000B6823F001030B6090F84030C46B012115
:100DA00001FA03F3636080F8211080F820201046D8
:100DB00010BD00002DE9F05F90F8211000240229F9
:100DC00003D004218163012485E001680A6822F0D0
:100DD0000E020A6001680A6822F001020A603F4EB2
:100DE0003E4FB215DFF8F4C0DFF8F090DFF8ECA06A
:100DF000DFF8E8B0DFF8E4E00168783F130115029E
:100E0000ACF1640CA9F15009AAF13C0AABF1280B32
:100E1000AEF1140E4FF48018B14227D9B9420ED06A
:100E2000614512D049451DD0514518D0594518D0BB
:100E3000714501D1424615E0294EB14201D101224E
:100E400010E0274E1436B14201D110220AE0244EA0
:100E50002836B14206D0224A3C32914201D11A468C
:100E600000E02A461E49091F0A602BE0B94213D050
:100E7000614517D0494522D051451DD059451DD057
:100E8000714501D142461AE0B14202D14FF0807261
:100E900015E0134EB14201D1012210E0104E14367C
:100EA000B14201D110220AE00D4E2836B14206D0DF
:100EB0000B4A3C32914201D11A4600E02A460749CA
:100EC00080394A60012180F82110002180F820102B
:100ED000416B01B188472046BDE8F09F8000024089
:100EE000080402402DE9F05FC16B0A6801680B68D5
:100EF000046C4FF0040808FA04F8844D844E854FC2
:100F0000DFF814C2DFF81492DFF814A2DFF814B28D
:100F1000DFF814E218EA020F65D05FEA437862D581
:100F20000A68920603D40A6822F004020A60DFF815
:100F3000F0814FF48062016808F114081301140273
:100F4000414524D9A9420DD0B1420FD0B9421AD09F
:100F5000614515D0494515D0514501D1120312E024
:100F6000594501D104220EE0714501D140220AE029
:100F70006D4D1435A94206D06B4A2832914201D1F9
:100F80001A4600E022466749091F0A6029E0A94283
:100F900013D0B14215D0B94220D061451BD049458C
:100FA0001BD0514502D14FF4800217E0414502D1D8
:100FB0004FF0806212E0594501D104220EE07145E4
:100FC00001D140220AE0584D1435A94206D0564AB4
:100FD0002832914201D11A4600E022464B49083995
:100FE0004A60C16A71E04FF0020808FA04F818EA92
:100FF000020F70D05FEA83786DD50A68920606D436
:101000000A6822F00A020A60012180F82110DFF844
:1010100010814FF40072016808F1140813011402E2
:10102000414524D9A9420DD0B1420FD0B9421AD0BE
:10103000614515D0494515D0514501D1120312E043
:10104000594501D102220EE0714501D120220AE06A
:10105000354D1435A94206D0334A2832914201D188
:101060001A4600E022462F49091F0A6029E0A942DA
:1010700013D0B14215D0B94220D061451BD04945AB
:101080001BD0514502D14FF4001217E0414502D167
:101090004FF0007212E0594501D102220EE0714575
:1010A00001D120220AE0204D1435A94206D01E4A63
:1010B0002832914201D11A4600E0224613490839EC
:1010C0004A60002180F82010816A00291CD0BDE808
:1010D000F05F0847FFE70825A540154214D01A071E
:1010E00012D50A6822F00E020A6090F84020C36B05
:1010F000012101FA02F25A60816380F82110002177
:1011000080F82010016BE0E7BDE8F09F0800024086
:101110001C000240300002404400024058000240DF
:101120006C000240080402401C04024030B560B16B
:101130001A4B026814219A4209D2194B1344B3FB8B
:10114000F1F18900016417490AE0012030BD134B19
:101150005B421344B3FBF1F1890001640F49083984
:10116000C163022180F82110136843F6F0718B43AC
:10117000F0E901142143D0E902452C4321430469DD
:1011800021434469214384692143194311600021AB
:101190004163012242770177084630BD08040240CE
:1011A000F8FFFDBF0000024070B5044690F8200033
:1011B000002501280CD0012084F8200094F821603B
:1011C0000020012E06D084F820000225284670BD9C
:1011D000022070BD022684F82160A06320680668A2
:1011E00026F0010606602046FFF77CFCE06A002836
:1011F0002068016802D041F00E0106E021F00401F0
:1012000001602068016841F00A01016020680168FE
:1012100041F001010160D9E770B5044600F010F912
:101220000546601C02D004480078044400F008F928
:10123000401BA042FAD370BD080000202DE9F84FF2
:10124000DFF8C8910024A9F1040B23460F2709F108
:10125000040AABF1040ED1E00125A54006EA05021F
:10126000AA4276D1DFF8A8C14E68A6EB0C08664505
:101270002BD00DDC032E34D005DC36B3012E19D073
:10128000022E2FD11BE0112E16D0122E2AD119E0DA
:10129000B8F5881F19D006DCB8F5803F15D0B8F531
:1012A000801F1FD111E0B8F5001F0ED0B8F5041F44
:1012B00018D10AE0CB6815E0CB681B1D12E0CB68A3
:1012C00008330FE0CB680C330CE08B682BB1012B9B
:1012D0004FF0080303D0456104E0042302E00561F8
:1012E00000E00023FF2A01D8064601E000F10406D1
:1012F0004FEA840501D9A5F12005D6F8008007FA48
:1013000005FC28EA0C0803FA05F548EA0508C6F8C2
:1013100000804D68ED0070D53E4DAE6946F0010687
:10132000AE61AD6924F0030605F0010500953A4D64
:1013300006EB050CDCF80850A607360F07FA06F88E
:1013400025EA0805DFF8D480404503D14FF00008B6
:1013500025E052E0DFF8C880404502D14FF0010897
:101360001DE0DFF8C080404502D14FF0020816E0D2
:10137000DFF8B480404502D14FF003080FE0DFF8FA
:10138000AC80404502D14FF0040808E0DFF8A080AF
:10139000404502D14FF0050801E04FF0060808FA79
:1013A00006F848EA0508CCF808804D68D9F80060CE
:1013B000ED024D4601D5164300E096432E604D6880
:1013C000DAF80060AD02554601D5164300E09643B9
:1013D0002E604D68DBF80060AD035D4601D5164315
:1013E00000E096432E604D68DEF80060ED03754620
:1013F00001D5164300E096432E60641C0A68164629
:10140000E2407FF429AFBDE8F88F000008040140F6
:1014100000001110001002400000014000080140CF
:10142000000C014000100140001401400018014070
:10143000001C01400AB1016170470904FBE700008C
:101440000148806870470000080000200248816859
:10145000027811448160704708000020074810B5E9
:10146000016841F010010160032000F075F80F20C1
:1014700000F006F800F024F8002010BD0020024023
:1014800070B50D4D04464FF47A712878B1FBF0F039
:101490000A490968B1FBF0F000F065FC48B9102C6E
:1014A00007D200222146501E00F036F800206C6062
:1014B00070BD012070BD0000080000201400002055
:1014C0000C4808B5816941F001018161816901F031
:1014D00001010091C16941F08051C161C06900F012
:1014E000805000900448416821F0E06141F00071B3
:1014F000416008BD0010024000000140002809DBE7
:1015000000F01F02012191404009800000F1E0201D
:10151000C0F8001170470000F0B40E4B1B680C4679
:10152000C3F30223C3F10705042D00D90425191DB7
:10153000072901D2002300E0DB1E012606FA05F18F
:10154000491E214099409E40761E16403143F0BC12
:1015500001F00CBB0CED00E0064900F00702086842
:101560004FF6FF03184040EA0220034A1043086088
:10157000704700000CED00E00000FA052DE9F0478F
:101580000F46050061D0434E306800F00700B842B6
:1015900009D2306820F0070038433060306800F02E
:1015A0000700B84251D128683B4C810712D540074B
:1015B00003D5606840F4E06060602878000703D5D8
:1015C000606840F4605060606068A96820F0F000D6
:1015D000084360602878C00728D06868012810D0C8
:1015E0002168022810D0890700292EDA616821F0CD
:1015F000030101436160FFF723FF804641F2883910
:101600000DE021688903EFE78901EDE7FFF718FF97
:10161000A0EB0801494502D90320BDE8F0876068C6
:10162000696800F00C00B0EB810FEFD1306800F07A
:101630000700B8420BD9306820F00700384330600B
:10164000306800F00700B84201D00120E5E72878B3
:10165000400705D56068E96820F4E06008436060F1
:101660002878000706D56068296920F4605040EAB0
:10167000C100606000F038F86168084AC1F30311E6
:10168000515CC8400649086006480068FFF7F8FE4C
:101690000020C2E700200240001002401A4A000861
:1016A000140000200C000020044805490068496827
:1016B000044AC1F30221515CC84070471400002065
:1016C000001002402A4A0008044805490068496899
:1016D000044AC1F3C221515CC84070471400002085
:1016E000001002402A4A00080E4A51680E4801F0D4
:1016F0000C03042B11D0082B0FD10C48C1F38343EA
:10170000C903C05C0AD55168084AC1F34041921E22
:10171000515C054A5043B0FBF1F07047044948431F
:10172000704700000010024000127A000A4A0008C8
:1017300000093D002DE9F84F040070D02078C04D1D
:10174000C00749D06868C0F38100012807D06868E5
:10175000C0F38100022809D16868C00306D5286853
:10176000800339D560680028E7D035E06068B0F5BF
:10177000803F0BD010B1B0F5A02F11D0286820F415
:1017800080302860286820F4802002E0286840F437
:1017900080302860606890B1FFF752FE06460AE08C
:1017A000286840F480202860F0E700BFFFF748FE7B
:1017B000801B642873D828688003F7D50CE0FFF7F6
:1017C0003FFE064605E000BFFFF73AFE801B642897
:1017D000F0D828688003F7D420789A4E80074FF01D
:1017E00001094FF0000839D5686810F00C0F07D0D8
:1017F0006868C0F38100022809D16868C00306D474
:101800002868800714D52069012808D110E02069D4
:10181000B0B1C6F80090FFF713FE074605E00AE1F5
:10182000FFF70EFEC01B0228C4D828688007F7D532
:101830002868616920F0F80040EAC10028600DE0E6
:10184000C6F80080FFF7FCFD074604E0FFF7F8FD4F
:10185000C01B022823D828688007F7D42078000707
:101860002CD57948A169D9B1C0F80090FFF7E8FDFF
:10187000074604E0FFF7E4FDC01B02280FD8686AA2
:101880008007F7D571484FF4FA510068B0FBF1F0CA
:10189000009000BF0098411E0091FAD20EE080E057
:1018A000C0F80080FFF7CCFD074604E0FFF7C8FD55
:1018B000C01B022875D8686A8007F7D420784007D3
:1018C00060D5E8690027C00008D4E86940F080507E
:1018D000E861E869012700F0805000905C480168E9
:1018E000C90513D40168834641F480710160FFF794
:1018F000A7FD824606E000BFFFF7A2FDA0EB0A00AD
:1019000064284ED8DBF80000C005F5D5E068012852
:101910000AD008B1052813D0286A20F001002862F7
:10192000286A20F0040002E0286A40F001002862E2
:10193000E06841F2883B98B1FFF782FD82460BE0F8
:10194000286A40F004002862EEE700BFFFF778FD48
:10195000A0EB0A0159455AD8286A8007F6D50CE051
:10196000FFF76EFD824605E0FFF76AFDA0EB0A0176
:1019700059454CD8286A8007F6D41FB1E86920F091
:101980008050E861E06988B36968C1F38101022988
:1019900044D00228C6F8608004D0FFF751FD044609
:1019A00038E034E0FFF74CFD074604E0FFF748FD60
:1019B000C01B02282BD828688001F7D4206AB0F514
:1019C000803F05D16868A16820F400300843686052
:1019D000D4E908010843696821F474110843686078
:1019E000C6F86090FFF72CFD044606E025E000BF36
:1019F000FFF726FD001B022809D828688001F7D5CB
:101A00001BE000BFFFF71CFD001B022802D90320CA
:101A1000BDE8F88F28688001F4D40EE00128F7D0E3
:101A20006868226A00F48031914204D1616A00F44E
:101A30007010884201D00120EAE70020E8E70000AA
:101A40000010024000004242800442421400002084
:101A50000070004070B5040009D0606A002540B1F4
:101A600025616561A56294F8510040B10CE0012048
:101A700070BD6068B0F5827FF4D0E561F2E784F86C
:101A80005050204600F040F8022084F851002068B1
:101A9000016821F040010160A088218900F4827072
:101AA00001F404410843A18901F400610843217C49
:101AB00001F002010843217D01F001010843218B5F
:101AC00001F400710843217F01F03801084394F8C4
:101AD000201001F080010843218D01F400510843DA
:101AE00021680860A069042101EA1040216848606B
:101AF0002068C16921F40061C1616565012084F835
:101B00005100002070BD000030B585B00024009465
:101B100001940294039400681449884223D1144824
:101B2000816941F480518161816901F4805104919E
:101B3000816941F00401816180690E4D00F004006B
:101B40000490A02000900220019003200390694699
:101B50002846FFF773FB4020CDE90004694628467C
:101B60000294FFF76BFB05B030BD00000030014070
:101B700000100240000801402DE9FF4F81B00446EB
:101B800090F8500000260E9F1D4693464FF0010925
:101B900001280FD04FF0010A84F850A0FFF750FC45
:101BA000804694F85100616801280DD0B1F5827F1C
:101BB00008D103E0022005B0BDE8F08FA16809B9A3
:101BC000042801D00226C9E00298002865D0BBF1A4
:101BD000000FFBD0002DF9D094F85100042802D05A
:101BE000052084F8510000206065C4F838B0E5870E
:101BF000A58702992163E586A58620646064206834
:101C00000168490603D4016841F040010160E068C1
:101C1000B0F5006F606803D0F0B3012D47D081E0CC
:101C200008B1012D3CD1206B21680088C860206B71
:101C3000801C2063E08E401EE08631E020688168D1
:101C400089070FD5E18E69B1B9F1010F0AD1216B76
:101C50000988C160206B801C2063E08E401EE086F6
:101C60004FF0000920688168C9070CD0E18F51B19D
:101C7000C068A16B0880A06B801CA063E08F401E31
:101C8000E0874FF00109FFF7DBFBA0EB0800B8424B
:101C900006D3781C04D001E009E05BE003265BE09A
:101CA000E08E0028CAD1E08F0028C7D140E0206B29
:101CB000216800780873206B401C2063E08E401E72
:101CC000E0862FE02068816889070FD5E18E69B131
:101CD000B9F1010F0AD1216B09780173206B401C07
:101CE0002063E08E401EE0864FF000092068816886
:101CF000C9070CD0E18F51B1C068A16B0870A06B0F
:101D0000401CA063E08F401EE0874FF00109FFF701
:101D100097FBA0EB0800B84202D3781C02D0BAE7C8
:101D2000002FB8D0E08E0028CCD1E08F0028C9D198
:101D300042463946204600F058FC18B101262020C2
:101D400060650BE0A06818B92068C16880680090E1
:101D5000606D08B1012601E084F851A0002084F8EC
:101D60005000304627E710B5401EB0F1807F01D308
:101D7000012010BD4FF0E02460610F21601700F0DA
:101D8000F5FE0020A06107202061002010BD7047F3
:101D900070470000F8B5016804460868CA684B69D6
:101DA00010F00F0F4FF0000559D003F0010602F4B8
:101DB0009077374365D0C10705D0D10503D5616C55
:101DC00041F001016164410705D5D90703D0616C79
:101DD00041F002016164810705D5D90703D0616C28
:101DE00041F004016164010707D502F0200131438D
:101DF00003D0616C41F008016164616C00293AD044
:101E0000800604D5900602D5204600F042FD2068E9
:101E10004069616CC0F38010090700D460B32046AC
:101E200000F002FD20684069400621D5206814308A
:101E300050E8001F21F0400140E80012002AF5D1CF
:101E4000E06BA8B16D494163E06BFEF7B3FF00287A
:101E500011D0E06B416B01B0BDE8F040084783064C
:101E60000FD593060DD52046BDE8F84000F011BD12
:101E70002046FFF78DFFF8BD2046FFF789FF656418
:101E8000F8BD266B2023012E7CD1C6067AD5D60656
:101E900078D508684868009048694FF00206400607
:101EA00040D5E16B086840680004000CE8D0A28DC2
:101EB0008242E5D9E085886920282DD020680C3041
:101EC00050E8001F21F4807140E80012002AF5D18B
:101ED0002068143050E8001F21F0010140E8001292
:101EE000002AF5D12068143050E8001F21F040018D
:101EF00040E80012002AF5D184F8423025632068BA
:101F00000C3050E8001F21F0100140E80012002AB8
:101F1000F5D1E06BFEF72AFF6663A08DE18D401AD4
:101F200081B22AE0A08DE18D401A81B2E08D0028B7
:101F3000A6D00029A4D022680C3252E8000F20F469
:101F4000907042E80007002FF5D12068143050E867
:101F5000002F22F0010240E80027002FF5D184F87D
:101F60004230256320680C3050E8002F22F0100228
:101F700040E80023002BF5D166632046FFF707FFFA
:101F8000F8BDFFE705062BD5150629D594F84100C5
:101F90002128F5D1A068B0F5805F01D12069B0B1EA
:101FA000206A411C2162216800784860E08C401E54
:101FB0000004000CE084E3D12068C16821F08001B6
:101FC000C1602068C16841F04001C160D8E7206A63
:101FD0000088C0F308004860206A801C2062E5E7A2
:101FE0004006CDD55006CBD5CA68204622F0400227
:101FF000CA6084F8413000F004F9C1E72B270008DB
:1020000070B5040004D094F84100002510B106E03A
:10201000012070BD84F84050204600F023F82420B1
:1020200084F841002068C16821F40051C160204655
:1020300000F090FC2068016921F490410161206862
:10204000416921F02A0141612068C16841F40051D1
:10205000C1606564202084F8410084F84200656313
:10206000002070BD2DE9F04186B0002406460094A2
:1020700001940294039400682E49884256D12E4858
:10208000816941F480418161816901F48041049159
:10209000816941F0040181618069284D00F00400EC
:1020A00004904FF4007000900220019003200390F0
:1020B00069462846FFF7C2F82815CDE900046946AD
:1020C00028460294FFF7BAF81E4D1D488027C5E93F
:1020D0000004C5E902474FF020082C61C5E9054816
:1020E0002846EC61FFF722F808B1FEF746FDF563DC
:1020F0006E62144D12484435143801C5102091C544
:10210000104845F810494430C5E90548EC61FFF72F
:102110000DF808B1FEF731FDB56300221146252008
:102120006E62FFF7F9F92520FFF7E8F906B0BDE880
:10213000F08100000038014000100240000801401A
:10214000580002401C01002090F84230202B01D0A2
:102150000220704721B11AB10023036300F056BC7E
:1021600001207047704770472DE9F843044690F806
:1021700041001F4616460D46202802D00220BDE829
:10218000F8837DB176B100206064212084F841009D
:10219000FFF756F9A6848046E684A068B0F5805F14
:1021A00002D003E00120EAE7206910B12E460025A5
:1021B0000EE000260CE08021204600F06FFCA0B964
:1021C000AEB116F8010B21684860E08C401EE08437
:1021D000E08C43464FF0000200970028EBD14FF00F
:1021E0004001204600F05AFC30B10320C7E735F823
:1021F000020BC0F30800E6E7202084F8410000202D
:10220000BDE77047FEE700000D4808B5416941F0A1
:10221000010141614069002200F001000090114677
:102220000E20FFF779F90E20FFF768F9002211461A
:102230000F20FFF771F9BDE808400F20FFF75EB9E6
:102240000010024030B585B0002418480094019475
:1022500002940394816941F020018161816901F058
:1022600020010491816941F004018161816901F0DB
:1022700004010491816941F01001816180690C4D74
:1022800000F010000490012210212846FFF7D2F838
:10229000102000900120CDE901040220039069463E
:1022A0002846FEF7CBFF05B030BD0000001002400D
:1022B00000100140104810B50E4901604FF48271C2
:1022C000416000218160C1604FF400720161C0E98A
:1022D00005120822C0E90721416281620A21C16218
:1022E000FFF7B8FB002803D0BDE81040FEF745BC5F
:1022F00010BD0000003001407C0000200C4810B5EB
:102300000A4901604FF4E1314160002181600C22F3
:10231000C160C0E904128161C161FFF771FE00284C
:1023200003D0BDE81040FEF728BC10BD00380140C6
:10233000D40000202DE9F14F84B04FF0000BA64CE3
:10234000CDF800B0CDF804B0CDF808B0206810F09A
:10235000FF4F07D1606810F0FF4F03D1A06810F065
:10236000FF4F7CD001F0A4FB9C4ED6F80890376854
:1023700049463846FDF7D6FFF56876688046294617
:102380003046FDF7CFFF4146FDF7C6FF80462946A0
:102390004846FDF7C7FF814631463846FDF7C2FF84
:1023A0004946FDF767FF064629460846FDF7BAFF8E
:1023B000054639460846FDF7B5FF4FF07C51FDF75D
:1023C000ABFF2946FDF756FFD4F808A00546314675
:1023D0005046FDF7A7FFD4F8049007462946484623
:1023E000FDF7A0FF3946FDF797FF039027682946C0
:1023F0003846FDF797FF054641465046FDF792FFE8
:102400002946FDF789FF824641464846FDF78AFF87
:10241000054631463846FDF785FF2946FDF77CFF26
:102420006F4D06466868B0F5000F32DB03996868A7
:10243000FDF778FF0499FDF775FF0099FDF71AFF86
:10244000009051466868FDF76DFF0499FDF76AFF3B
:102450000199FDF70FFF01903146686800E036E012
:10246000FDF760FF0499FDF75DFF0299FDF702FF9C
:102470000290E0680099FDF7FDFEE0602069019997
:10248000FDF7F8FE206160690299FDF7F3FE6061D7
:1024900005E0CDF800B0CDF804B0CDF808B0039950
:1024A0002868FDF73FFFE168FDF7E4FEE060514674
:1024B0002868FDF737FF2169FDF7DCFE2061314612
:1024C0002868FDF72FFF6169FDF7D4FE60614FF0CA
:1024D000FF310498FDF796FF0546E168FDF722FFFE
:1024E000E060824628462169FDF71CFF2061834693
:1024F00028466169FDF716FF6061384C8146494600
:10250000D4E90260D4E900758046FDF70BFF019025
:1025100059463046FDF706FF009085F000405146D1
:10252000FDF700FF0099FDF7F7FE0199FDF7F4FEB6
:102530003946FDF79FFE206059464046FDF7F2FE02
:10254000019049463046FDF7EDFE00905146384671
:10255000FDF7E8FE0099FDF78DFE0199FDF7DCFE21
:102560002946FDF787FE606051464046FDF7DAFEDA
:10257000019049462846FDF7D5FE00905946384659
:10258000FDF7D0FE0099FDF7C7FE0199FDF772FE39
:102590003146FDF76FFEA06051463046FDF7C2FEA2
:1025A000064659462846FDF7BDFE054649463846CB
:1025B000FDF7B8FE2946FDF75DFE3146FDF7ACFE9E
:1025C0004146FDF757FEE06002F066F905B0BDE850
:1025D000F04F01F0DBBE0000A4010020C00100208C
:1025E00020000020FEE7FEE7704738B50B4600925A
:1025F00004460022802100F009F8002804D0606D14
:1026000040F020006065032038BD00002DE9F8434C
:102610001E46914688460446089DFEF711FF401B62
:10262000351AFEF70DFF074625480068C0F3CB308A
:10263000684338E0701C37D0FEF702FFC01BA84289
:1026400003D215B1009860B32CE02068416821F0F6
:10265000E00141606068B0F5827F0BD1A068B0F501
:10266000004F02D0B0F5806F04D12068016821F0DE
:1026700040010160A06AB0F5005F09D120680168DF
:1026800021F4005101602068016841F400510160AB
:10269000012084F85100002084F850000320BDE898
:1026A000F8830025401E00902068816838EA010008
:1026B00004D000214945BDD10020F0E70121F9E710
:1026C000140000207047FEF7C1BE30B58FB028213E
:1026D0006846FDF7C4FD14210AA8FDF7C0FD0121DD
:1026E0000804CDE900100024029402250491CDE9EC
:1026F00007504FF4E01009906846FFF71BF808B147
:1027000072B6FEE70F20CDE90A054FF48060CDE9EF
:102710000C4002210AA80E94FEF730FF002801D0D9
:1027200072B6FEE70FB030BD704710B5406A0021A9
:10273000C185C184FFF72CFB10BD70B5446A2068C9
:10274000406994F84110C0F3C0100025212904D13C
:1027500018B1E584204600F08EF82068406994F8AE
:102760004210C0F38010222904D118B1E58520461B
:1027700000F05AF8606C40F0100060642046FFF7EB
:1027800007FB70BD10B50146406A096809684FF043
:10279000000289062ED4C28501680C3151E8003F41
:1027A00023F4807341E80034002CF5D10168143122
:1027B00051E8003F23F0010341E80034002CF5D13B
:1027C0000168143151E8003F23F0400341E8003430
:1027D000002CF5D1202180F84210016B012909D18C
:1027E00001680C3151E8003F23F0100341E8003448
:1027F000002CF5D14263016B012902D0FFF7B2FC36
:1028000010BD818DFFF7C3FA10BD10B5406A0121DC
:102810004163016B012902D0FFF7A5FC10BD818D3A
:102820004908FFF7B4FA10BD01680C3151E8002FD8
:1028300022F4907241E80023002BF5D10168143195
:1028400051E8002F22F0010241E80023002BF5D1CE
:10285000016B012909D101680C3151E8002F22F0E8
:10286000100241E80023002BF5D1202180F842100E
:1028700000210163704701680C3151E8002F22F0FC
:10288000C00241E80023002BF5D1202180F841103F
:10289000704708B590F84210222901D0022008BDE7
:1028A00082684FF480539A4201D1016921B1816A53
:1028B0009A421BD04AB10AE00268816A5268C2F3A8
:1028C00008020A80816A891C08E0026972B1026804
:1028D000526802F07F020A70816A491C8162C18DD0
:1028E000491E0904090CC18503D01BE00268526827
:1028F000F1E70168CA6822F02002CA600168CA686C
:1029000022F48072CA6001684A6922F001024A61B9
:10291000202180F8421000214163026B012A03D07C
:10292000FFF720FC002008BD016301680C3151E86D
:10293000002F22F0100241E80023002BF5D101689E
:102940000A68D20602D50A6849680091818DFFF7AE
:102950001EFAE7E770B5044600680169E26821F4F1
:102960004051114301612169A0680843616908432E
:102970002168CA6841F20C639A430243CA60206826
:102980004169A26921F44071114341611E492068E7
:10299000884202D1FEF798FE01E0FEF785FE00EBCB
:1029A000C00101EB0012606864218000B2FBF0F30B
:1029B000B3FBF1F36FF018067343B2FBF0F5B2FB13
:1029C000F0F605EB8305322303EB0515B5FBF1F5B6
:1029D000B6FBF1F605F0F00505EB0615B2FBF0F6D7
:1029E000B2FBF0F0B0FBF1F06FF01802504306EBD1
:1029F000800003EB0010B0FBF1F0216800F00F0045
:102A00002844886070BD00000038014038B58162FC
:102A100004468285002013466064222284F8422006
:102A2000E56B1B4AAA62E56B1A4AEA62E56B1A4A31
:102A30002A63E26B50630A462168E06B091DFEF7CA
:102A4000B3FB2068016840680090206948B12068A5
:102A50000C3050E8001F41F4807140E80012002A59
:102A6000F5D12068143050E8001F41F0010140E822
:102A70000012002AF5D12068143050E8001F41F000
:102A8000400140E80012002AF5D1002038BD0000C6
:102A9000852700080B2800083B2700082DE9F04196
:102AA000984617460E460446069D27E0681C25D02A
:102AB0002DB1FEF7C5FCA0EB0800A8421ED9206886
:102AC0000C3050E8001F21F4D07140E80012002AB9
:102AD000F5D12068143050E8001F21F0010140E8D2
:102AE0000012002AF5D1202084F8410084F8420029
:102AF000002084F840000320BDE8F08120680068D1
:102B000036EA000004D00020B842CFD00020F3E71E
:102B10000120F9E70148FFF73DB90000D40000208B
:102B2000FEE700000FB4054B10B503A9044A029854
:102B300000F026FC10BC5DF814FB0000C541000845
:102B400034000020490050EAC12018BF04204A0D7B
:102B500018BF40F0010040F2FF72B2EB515F08BFB6
:102B600040F00200012808BF052070470907090E40
:102B7000002804DB00F1E02080F80014704700F02A
:102B80000F0000F1E02080F8141D70472DE9F74F89
:102B9000144694B00021C4E902111599079121F05F
:102BA0000045C9498D4206DC1599C4E9000117B0FA
:102BB0000020BDE8F08FC549DFF814A3A9423CDD31
:102BC0000799C44E0029C44FC44A1599534619DDCC
:102BD000FDF7C5FC554506D0C14AC24BFDF7BFFC09
:102BE000C4E900010AE04FF0D352BE4BFDF7B7FC39
:102BF00032463B46FDF7B3FCC4E9000117B00120A3
:102C0000BDE8F08FFDF70AFC554506D0B44AB54B38
:102C1000FDF704FCC4E900010AE04FF0D352B14BC8
:102C2000FDF7FCFB32463B46FDF7F8FBC4E900012B
:102C300017B04FF0FF30BDE8F08FAB49A9421599AE
:102C400078DB21F0004183468846A84AA84BFDF76F
:102C50008CFC0022A74BFDF7E1FBFDF717FF099065
:102C6000FDF7C0FE06460F469C4A5346FDF77DFC25
:102C700043465A46FDF776FC80468A46984A994B69
:102C800030463946FDF771FC2A0D01250B9242466C
:102C90005346FDF767FC032DC4E9000139D00B98BA
:102CA000C1F30A51401A05EB45111139814230DA5E
:102CB0009148C346784400EB0510CDF80CA00C9069
:102CC000D0E9002330463946FDF74FFC02460B465B
:102CD0000491069058460399FDF741FC80468A46C8
:102CE00002460B4658460399FDF739FC049B069AA9
:102CF000FDF735FC83460C9803913946D0E9022351
:102D00003046FDF732FC5A46039BFDF728FC6D1C4C
:102D1000BDE707980028A2BF099817B0BDE8F08F5B
:102D2000616881F000416160099817B04042BDE8D8
:102D3000F08FFFE784461598C1F31301C0F30A50E2
:102D4000A0F2F5304FEA601800F01F06C6F120002F
:102D5000139000200690079041F4801E05206D46D8
:102D600076B1664A08EB00017A4452F8213002EB52
:102D70008101B3404A68139922FA01F1194305E031
:102D80005F4908EB0002794451F82210A1FB0E279D
:102D9000A1FB0C131A449A4234BF0123002303EB16
:102DA000070A05EB8003D3E901B70F448F4234BF14
:102DB0000121002193448B4411B1934502D903E0D2
:102DC000934501D2012100E00021C3E901B751443C
:102DD00045F82010011EA0F10100C1DC0298059FFA
:102DE00000F10050800F12900298DDE90356800038
:102DF000FDF7F8FD834628460D91FDF7BCFC6FF00A
:102E00001D02FDF793FCCDE90E013046FDF7B3FC42
:102E10006FF03D02FDF78AFC80468A463846FDF792
:102E2000AAFC6FF05D02FDF781FC0746424653465F
:102E30001191FDF7F3FADDE90E23FDF7EFFA5A469B
:102E40000D9BFDF7EBFA00250E465A4628460D9BD2
:102E5000FDF785FBDDE90E23FDF781FB4246534676
:102E6000FDF77DFB3A46119BFDF77CFBDFF898A050
:102E7000244A5346FDF779FB07468846234A244BEC
:102E800031462846FDF771FB3A464346FDF7C6FA40
:102E9000074688464FF0A842534631462846FDF77C
:102EA00064FB3A464346FDF7B9FA159A12F0004F13
:102EB00004D0129A81F0004152421292C4E90001FA
:102EC000129817B0BDE8F08FFB21E93F7CD9024092
:102ED000FB21F93F7370032E8A19A33B0000405475
:102EE0003163621A61B4D03DFB21394183C8C96D99
:102EF000305FE43F0000E03FB01E00002C1E0000E9
:102F00000E1E0000182D4454FB21F93D3326A61156
:102F1000460B113C2DE9FF4D21F0004807460C46B9
:102F2000B8F1795F08DAFDF7B1FD002801BF002094
:102F3000324904B0BDE8F08D3A46234610461946A2
:102F4000FDF713FB054602462D480E460B460621AB
:102F5000784400F05DF82A463346FDF706FBDDE9CC
:102F6000022382468B4638462146FDF7FEFA044688
:102F70000F4652465B4628463146FDF7F6FA224692
:102F80003B46FDF7ECFA07468A464FF0FF322846EB
:102F90003146FDF7CBFB1B4A90450ADA3A465346C9
:102FA000FDF7DDFA04B00022BDE8F04D134BFDF74C
:102FB000D9BA154A4245A8BFA8F500154FF000043C
:102FC000B8BF124D22462B46FDF7C9FA0646884681
:102FD00022462B4600200949FDF7C1FA04460D465A
:102FE0003A46534630464146FDF7B9FA04B0224608
:102FF0002B46BDE8F04DFDF7B5BA00000000F03FEC
:10300000DC1B00003333D33F0000E93F0000D23F18
:103010002DE9F0414F1E00EBC7010446D1E9000144
:1030200015461E4637F006020DD02A463346FDF7F8
:103030009CFA7F1E04EBC703D3E90023FDF7EEF9EA
:1030400037F00602F1D1022F25D0042F13D0062F1E
:1030500018BFBDE8F0812A463346FDF786FAD4E969
:103060000A23FDF7DBF92A463346FDF77EFAD4E959
:103070000823FDF7D3F92A463346FDF776FAD4E95B
:103080000623FDF7CBF92A463346FDF76EFAD4E95D
:103090000423FDF7C3F92A463346FDF766FAD4E95F
:1030A0000223FDF7BBF92A463346FDF75EFAD4E961
:1030B0000023BDE8F041FDF7B1B900002DE9FF4D57
:1030C000054621F0004084B00C46B0F1795F0BDA80
:1030D0002846FFF737FD042808BF00F071F828469E
:1030E00008B02146BDE8F08D2A460B461046FDF794
:1030F0003CFA06460F462A462346FDF736FA804636
:1031000026488A4632463B4605217844FFF780FF31
:1031100083461098029160B3214A224B40465146A3
:10312000FDF723FACDE900015A4640465146029B7D
:10313000FDF71BFA82468846DDE906014FF0FF32B3
:10314000FDF7F4FA52464346FDF709FA32463B468C
:10315000FDF70BFADDE90623FDF701FADDE90023AF
:10316000FDF7FDF908B02A462346BDE8F04DFDF70E
:10317000F9B90B465A4630463946FDF7F6F9084A82
:10318000084BFDF74BF942465346FDF7EEF908B000
:103190002A462346BDE8F04DFDF740B9221B00004A
:1031A000495555555555C5BF0122FDF7BFBAFDF725
:1031B00035B90022134610461146FDF748BA000003
:1031C000024A00201107FDF7B1BA000001FDFFFF20
:1031D00002E008C8121F08C1002AFAD170477047E0
:1031E000002001E001C1121F002AFBD1704700003E
:1031F0000149086070470000380000202DE9FF5F9A
:1032000082B00021DDE90430020DDDF840B0034357
:1032100018D044F61050A2F2FF3242431514119810
:1032200001281FD0A5EB0B00401C5FEA000A4FF0FD
:1032300000064E4FDFF83891B046504615D5CAF11A
:10324000000413E0119801244AA3012801D16FEA78
:103250000B010298119AC0E90031C0E9024206B0A0
:10326000BDE8F09FCBF10000DFE704460021404AB3
:10327000491842EB0450CDE9001012E0E00707D0F6
:1032800032463B4640464946FDF76FF9804689463F
:1032900032463B4610461946FDF767F906460F468B
:1032A0006410002CEAD1DDE90401DDE90023BAF164
:1032B000000F06DAFDF759F942464B46FDF755F97E
:1032C00005E0FDF7C4F942464B46FDF7C0F9044658
:1032D0000E460022284BFDF7AFFB03D84FF0FF301E
:1032E000014607E00022254B20463146FDF796F8BF
:1032F000FDF789FB102409E0002C0ADB0A220023D9
:10330000FCF732FF039B30321A55641E50EA01026B
:10331000F2D1641C039AC4F111031444119A012AD6
:1033200003D0012208430DD10AE0084304D0002055
:103330004FF0110B119072E7A3EB0B056D1E0DE022
:103340005B4504DD4FF0000205F1010504E003DAFE
:103350004FF00002A5F10105002AECD00298119966
:10336000C0E90231C0E9004579E7000000001440DF
:103370000000F03F300000000000F0430000E03F9C
:103380002DE9FF4F95B09B468946064600250FE282
:10339000252877D100242746F84A0121059400E02A
:1033A000044316F8013F203B01FA03F01042F7D125
:1033B00030782A2811D06FF02F033078A0F1300236
:1033C000092A16D8059A44F0020402EB820203EBA4
:1033D00042021044761C0590EFE759F8042B059241
:1033E000002A03DA504244F40054059044F00204E9
:1033F000761C30782E2816D116F8010F44F00404FC
:103400002A280DD06FF02F023078A0F13003092B5D
:1034100009D807EB870302EB4303C718761CF3E7D1
:1034200059F8047B761C30786C280FD006DC4C28C9
:1034300017D068280DD06A2814D104E0742810D061
:103440007A280FD10DE044F400140AE044F480140B
:1034500001E044F440147278824202D104F58014F1
:10346000761C761C307866280BD013DC582877D071
:1034700009DC002875D04528F6D04628F4D0472826
:103480001AD19DE118E0632835D0642879D06528E9
:1034900012D195E1702873D008DC6728F1D0692833
:1034A0006FD06E280DD06F2806D1B5E073282CD0D0
:1034B000752875D0782874D05A46179990476D1C96
:1034C00075E1C4F30250022809D003280DD0D9F8C1
:1034D000001004280DD00D6009F1040967E1D9F846
:1034E0000010EA17C1E90052F6E7D9F800100D8084
:1034F000F2E70D70F0E719F8041B8DF800100020BA
:103500008DF80100EA46012003E059F804AB4FF0C2
:10351000FF3061074FF0000102D40DE008F1010116
:103520008846B9420FDA8045F8DB1AF808100029FE
:10353000F4D108E008F1010188468142FADB1AF86B
:1035400008100029F6D105985B46A0EB0807214634
:103550003846179A00F094FA284400EB080507E073
:103560004DE029E10DE01AF8010B5A4617999047F2
:10357000B8F10108F7D25B4621463846179A13E1A5
:1035800042E00A220092C4F302524FF0000A022ADB
:1035900008D059F804CB032A4FEAEC710AD00DE0A9
:1035A00029E02AE009F1070121F00702F2E802C14F
:1035B000914609E00FFA8CFC4FEAEC71042A03D122
:1035C0004FFA8CFC4FEAEC71002907DA0A46002119
:1035D000DCF1000C61EB02012D2202E0220504D592
:1035E0002B228DF80420012203E0E20701D02022E3
:1035F000F7E7904659E00A2102E010220DE0102181
:103600004FF0000A00910BE010224FF0000A44F046
:1036100004040827009203E008224FF0000A0092F9
:10362000C4F30252022A05D059F804CB0021032A20
:1036300008D009E009F1070121F00702F2E802C110
:10364000914605E01FFA8CFC042A01D10CF0FF0C16
:103650004FF00008220728D5702806D0009B83F081
:10366000100353EA0A0305D00EE040228DF804202F
:10367000012208E05CEA010206D030228DF8042025
:103680008DF8050002229046009B83F0080353EA60
:103690000A030AD15CEA010201D1620705D5302292
:1036A0008DF804204FF001087F1E582804D034A064
:1036B00003900EA802900DE036A0F9E7534660464D
:1036C000009AFCF751FD84460398825C0298401EE4
:1036D000029002705CEA0100F0D1029806A9081A73
:1036E00000F1200A600702D524F4803400E00127AD
:1036F000574502DDA7EB0A0000E0002000EB0A01BD
:10370000009005984144401A0590E00306D45B46BA
:103710002146179A059800F0B3F90544002706E002
:1037200001A85A46C05D179990476D1C7F1C4745FC
:10373000F6DBE0030CD55B462146179A059800F0AE
:103740009FF9054404E030205A46179990476D1CB4
:103750000099481E00900029F5DC08E002980299C3
:103760005A460078491C0291179990476D1CBAF18E
:103770000001AAF1010AF1DC65E10000092801005D
:1037800030313233343536373839616263646566D7
:103790000000000030313233343536373839414299
:1037A000434445460000000000F058F90544761CEB
:1037B000307800287FF4ECAD19B02846BDE8F08FD2
:1037C000620700D4062709F1070222F0070CFCE883
:1037D0000223E14603F000485FEA080C02D00FF232
:1037E000702C0DE05FEA045C02D50FF2682C07E054
:1037F0005FEAC47C02D00FF2602C01E0AFF2700CE3
:103800004FF0FF3823F00043CDF850C065280CD0AE
:1038100006DC452809D046281DD047283DD13DE08B
:10382000662818D067287ED138E00021112F01DBEF
:10383000112000E0781CCDE9000106A90EA8FFF7D1
:10384000DDFCDDE90F010E9A03910021009207F1E2
:10385000010A04914DE04FF000400097CDE90110BE
:1038600006A90EA8FFF7CAFCDDE90F0203920E9B22
:1038700011990022DDF80CA00093049211B9791C73
:1038800000EB010AB7EB0A0004D4C0F1FF3007F1E6
:10389000010A0490AAEB0700019044E0012F00DA2E
:1038A00001270021112F01DD112000E03846CDE96C
:1038B000000106A90EA8FFF7A1FCDDE90F010E9A91
:1038C0000391002104910092BA4621070CD4039978
:1038D000514500DA8A46BAF1010F05DD009AAAF1D6
:1038E0000101515C302908D0B84202DA10F1040F0E
:1038F00006DA0121CDE9011015E0AAF10101E9E79D
:10390000002805DC049901440491AAEB000102E0BF
:10391000411C514500DD8A460499401A401C019023
:103920004FF000400290200704D40198504501DB7D
:10393000CDF8048000208DF84F0002980DF14F075C
:10394000B0F1004F25D02B200E9002984FF00208C6
:1039500000280CDA404202902D200E9007E00A2148
:103960000298FCF744FF3031029007F8011DB8F1CE
:103970000001A8F10108F2DC02980028EFD1791EBD
:103980000E980870307800F0200040F0450007F8ED
:10399000020D12A8C01B00F107081498007800B1AE
:1039A000012000EB0A01019801EBE0710598414408
:1039B000401A401E0590E00306D45B462146179A44
:1039C000059800F05DF805441498007818B15A463F
:1039D000179990476D1CE00324D55B462146179A42
:1039E000059800F04DF805441CE00498002807DB1A
:1039F000DDE90301884203DD0098405C179901E08E
:103A0000179930205A469047049805F10105401C4B
:103A100004900198401E019004D12E205A46179917
:103A200090476D1CBAF10001AAF1010ADDDC05E046
:103A300017F8010B5A46179990476D1CB8F1000111
:103A4000A8F10108F4DC5B462146179A0598ABE61D
:103A50002D0000002B000000200000002DE9F041A7
:103A6000044600251E461746880404D405E039465E
:103A70002020B0476D1C641EF9D52846BDE8F081B2
:103A80002DE9F041044600251E469046C80301D5A5
:103A9000302700E02027880404D505E04146384659
:103AA000B0476D1C641EF9D52846BDE8F0810000C2
:103AB00070B5174CA0680146FCF734FC06466068F8
:103AC0000146FCF72FFC054620680146FCF72AFC5E
:103AD0002946FCF7CFFB3146FCF7CCFBFCF758FE40
:103AE00000F06CFFFCF767FE0A490546C8602946EE
:103AF0002068FCF749FC206029466068FCF744FC1C
:103B000060602946A068FCF73FFCA06070BD000023
:103B1000A4010020200000202DE9F04D8D4F21F060
:103B2000004A86B005460C46BA452ADBAAEB0700D8
:103B300028430AD08848824501DC1AD1CDB106B0AD
:103B40002846BDE8F04DFFF72FBB844A844B28463A
:103B5000FCF70BFD07460E46824A834B284621465A
:103B6000FCF703FD06B03A463346BDE8F04DFCF7DE
:103B700055BC0120FFF73CFB06B0BDE8F04DFFF758
:103B800018BB7A48824542DABAF1795F0BDA2846E7
:103B9000FEF7D8FF042808BFFFF712FB284606B03F
:103BA0002146BDE8F08D2A460B461046FCF7DDFCA9
:103BB000834602466E480E460B4606217844FFF7C0
:103BC00027FA5A463346FCF7D0FC804669488A46B5
:103BD0005A46334604217844FFF71AFA5A463346C8
:103BE000FCF7C3FC00223B46FCF718FC02460B46E0
:103BF00040465146FCF72BFD2A462346FCF7B5FC10
:103C000006B02A462346BDE8F04DFCF707BC28461F
:103C100024F0004100223D463B46FCF7A3FC4FF058
:103C2000FF32FCF783FD0646024653480F460B461B
:103C300006217844FFF7ECF932463B46FCF795FC49
:103C4000CDE900014D4832463B4604217844FFF758
:103C5000DFF932463B46FCF788FC00222B46FCF796
:103C6000DDFB834602913046394600F0A7FE8046D0
:103C700043480D46504517DCDDE900015A46029BDA
:103C8000FCF7E5FC42462B46FCF76FFC42462B4610
:103C9000FCF7C4FB0122FCF749FD304A304BFCF72E
:103CA0005EFC304A304B4CE04FF0000A52460B4667
:103CB0004046FCF7B3FBCDE9031052462B461046B5
:103CC0001946FCF752FC32463B46FCF74BFCDDE95B
:103CD0000332FCF7BCFC06460F46DDE900015A46FC
:103CE000029BFCF7B4FC8346009101223046394622
:103CF000FCF71CFD194A1A4BFCF734FC06460F462C
:103D0000012240462946FCF711FD5A46009BFCF76C
:103D10002CFC32463B46FCF722FC06460F460122AD
:103D200050462946FCF702FD0E4DDFF858802A4622
:103D30004346FCF717FC32463B46FCF713FC2A4689
:103D40004346FCF70FFC002CD8BF81F0004106B0C1
:103D5000BDE8F08D0000F03F0000F07F075C1433F9
:103D600026A6913C182D4454FB21F93F0000E03F6A
:103D7000880E00009E0E0000120E0000280E0000AB
:103D80003333EF3FFB21E93F2DE9F84F04460D4661
:103D900021F0004000917349814211DC7249884250
:103DA00001DC06D12CB120462946BDE8F84FFFF7CB
:103DB000FBB96E48002DCCBF6D496E49BDE8F88F48
:103DC0006D49814211DD6D498142D8BF4FF0FF3608
:103DD0006DDD20462946FEF7B5FE042808BFFFF733
:103DE000EFF920462946BDE8F88F6549654F25F073
:103DF0000045814233DD6449814219DD00263246A7
:103E00004FF0804320462946FCF708FB80468A464F
:103E1000012220462946FCF789FC00223B46FCF79C
:103E20009EFB42465346FCF712FC04460D463EE01C
:103E300001260022BA463B4620462946FCF7EEFA08
:103E400080460F460022534620462946FCF787FB52
:103E500042463B46FCF7FBFB04460D4627E04B4938
:103E600081421BDDDFF828A10226002253462046AE
:103E70002946FCF77AFB00223B46FCF7CFFA804646
:103E80000F460022534620462946FCF768FB42466F
:103E90003B46FCF7DCFB04460D4608E003262246C1
:103EA0002B4600203B49FCF7D2FB04460D46224638
:103EB0002B4610461946FCF758FB8B4682460246B5
:103EC0000B46FCF752FB07460246334888460B4632
:103ED00006217844FFF79CF852465B46FCF745FB09
:103EE00082462E488B463A46434605217844FFF7E2
:103EF0008FF83A464346FCF738FB02460B46002E45
:103F0000504659460CDAFCF789FA22462B46FCF754
:103F10002CFB01B022462B46BDE8F04FFCF722BB3C
:103F2000FCF77CFA22462B46FCF71FFB1C4A7A441E
:103F300002EBC603D3E90023FCF711FB22462B4614
:103F4000FCF70DFB174A7A4402EBC603D3E90023C2
:103F5000FCF708FB009A002AB8BF81F00041BDE8D9
:103F6000F88F0000000010440000F07F182D44542A
:103F7000FB21F93FFB21F9BF0000DC3F0000203EA0
:103F80000000F33F0000F03F0000E63F00800340E8
:103F90000000F83F0000F0BF2A0C0000E80B000012
:103FA000860B00004E0B00002DE9F04D9446CCF13D
:103FB000000423F000464CEA0404524F46EAD4744D
:103FC0009A46884621F00042BC4206D8454240EA63
:103FD000050442EAD474BC4204D9BDE8F04D6246FF
:103FE000FFF7E5B8AAF14055A5F17F6555EA0C0445
:103FF0000BD0022404EAAA74434DDFF810E144EA2E
:10400000D87452EA000B04D00CE0BDE8F04DFFF785
:10401000BBBE002C14BF012CBDE8F08D022C30D0AB
:10402000032C32D056EA0C0B0AD0BE4220D1BA4241
:1040300009D126F0804622F080423346114617E02F
:1040400000291ADB25E0DFF8C8B0FB44002C04BFD0
:10405000DBE90001BDE8F08D012C02BFDBE90001C6
:1040600081F00041BDE8F08D022C0AD0032C0CD069
:10407000BA4212D1B8F1000F0BDA23482549BDE846
:10408000F08D28462449BDE8F08D28467146BDE8EC
:10409000F08D1D482149BDE8F08D921B12153C2A78
:1040A000C4BF19481D490EDCBAF1000FBEBF12F1A2
:1040B0003C0F0020014606DB6246FCF7C8FA21F0FF
:1040C0000041FFF761FE002C08BFBDE8F08D012C18
:1040D00004BF81F00041BDE8F08D114A114B022C64
:1040E00007D0FCF73CFA2A46BDE8F04D0A4BFCF736
:1040F00036BAFCF734FA2A46BDE8F04D064BFCF719
:1041000031BA00000000F07F182D4454FB2109C093
:10411000120B0000FB21F9BFFB210940FB21F93FF5
:10412000075C143326A6A13C00B5244B21F00042C5
:1041300087B09A42DCBF0022134629DD204B9A4209
:1041400008D140B94FF00100FFF752F8FFF731F8FE
:1041500007B000BD03DBFFF727F807B000BD02AAD8
:10416000FEF714FD10F0030104BF0DF1080C9CE8EC
:104170000F000DD0012001290ED0022914D00DF11D
:10418000080C00909CE80F00FEF798FF07B000BDF8
:10419000FEF7C0FE07B000BD0DF1080C00909CE8D2
:1041A0000F00FEF78BFF05E00DF1080C9CE80F00F7
:1041B000FEF7B0FE07B081F0004100BDFB21E93FF2
:1041C0000000F07F13B54FF47A730122694602486C
:1041D000FDF7CAFF00981CBDD40000201FB5FDF7F5
:1041E0003DF9FEF772FAFEF72DF8FEF70DF8FEF72F
:1041F00061F8FEF783F84820FCF7A4FC1B48006830
:10420000C16841F01001C160642219491748FDF7E7
:104210009BFF00F041F8FCF7C9FC00F07DF9DFF8E6
:104220005490154C1348FCF773FC4D46C9F8040034
:10423000FCF7BCFC6868FEF77DF8A068FCF7A8FAFC
:10424000074688466068FCF7A3FA05460E462068D4
:10425000FCF79EFA8DE8E00102460B4607A0FEF748
:1042600061FC0120FCF7D8FFDCE70000D40000204F
:104270003C00002000000020D00100207961773D43
:1042800025662C726F6C6C3D25662C7069746368B2
:104290003D25660D0A00000030B585B06420FCF7AE
:1042A000BBFF752000F020F80D490024142288700F
:1042B0000C496846FBF7BAFF4FEA0D0505EB4400D1
:1042C000417815F8140000F037F80120FCF7A4FF3E
:1042D000641CE4B20A2CF1D305B0002030BD00000C
:1042E00018000020344A0008F8B5104E0446002299
:1042F00010213046FDF79EF844F080000C4C372525
:10430000621C20700123511E0A480095FDF734FC01
:10431000621C0123511E07480095FDF72DFC012268
:1043200010213046FDF786F86078F8BD0010014096
:10433000180000207C000020F8B5114F0E460446FE
:10434000002210213846FDF775F804F07F000D4C6F
:104350003725621C20700123511E0B480095FDF784
:104360000BFC2670621C0123511E07480095FDF7C7
:1043700003FC012210213846FDF75CF80020F8BD4F
:1043800000100140180000207C0000202DE9F84FAB
:104390005D4CD4F80C8041464046FBF7C3FFA6684D
:1043A000834631463046FBF7BDFFD4F804A00746EC
:1043B00051465046FBF7B6FFD4F8009005464946F3
:1043C0004846FBF7AFFF2946FBF7A6FF3946FBF748
:1043D00051FF5946FBF7A0FFFCF7DAF907460D46F7
:1043E00001215046FCF70EF83146FBF79BFF0646CD
:1043F00001214846FCF706F84146FBF793FF31469A
:10440000FBF78AFFFCF7C4F93A462B46FFF7CCFDD1
:1044100000223E4BFCF7A9F83D4A3E4BFCF717F94A
:10442000FCF7C9F904F110063060D4F80C90494645
:104430004846FBF777FF0090D4F808B05946584635
:10444000FBF770FFD4F80480074641464046FBF76F
:1044500069FFD4F800A0054651465046FBF762FFBD
:104460002946FBF759FF3946FBF756FF0099FBF742
:1044700001FFFCF78DF905460F4601214046FBF789
:10448000C1FF4946FBF74EFF804601215046FBF72E
:10449000B9FF5946FBF746FF4146FBF73DFFFCF7E6
:1044A00077F92A463B46FFF77FFD0022174BFCF7C2
:1044B0005CF8174A174BFCF7CAF8FCF77CF97060F8
:1044C00001212068FBF79EFF6168FBF72BFF054683
:1044D0000121A068FBF796FFE168FBF723FF29465F
:1044E000FBF7C8FEFCF754F9FFF716FB0022074B59
:1044F000FCF73BF8064A074BFCF7A9F8FCF75BF919
:10450000B060BDE8F88F0000C00100200080664068
:104510001F85EB51B81E09402DE9F05FD94CDA4DEB
:1045200000202060A868FCF733F906460F4668684B
:10453000FCF72EF932463B46FFF736FDDFF84C8399
:1045400000224346FCF711F8DFF84493DFF844A358
:104550004A465346FCF77BF8FCF72DF96060A868E3
:104560000146FBF7DFFE074668680146FBF7DAFE07
:10457000064628680146FBF7D5FE3146FBF77AFE72
:104580003946FBF777FEFCF703F900F017FA064609
:104590000F466868FCF7FCF832463B46FCF757F8D4
:1045A000FFF7BAFA00224346FBF7DFFF4A465346BD
:1045B000FCF74DF8FCF7FFF84FF0FF31A060FBF778
:1045C00021FFFCF7E5F800F0A9F9074688464FF00F
:1045D000FF316068FBF716FFFCF7DAF800F09EF990
:1045E00005460E464FF0FF312068FBF70BFFFCF746
:1045F000CFF800F093F92A463346FBF7B6FF3A4668
:104600004346FBF7B2FF804689464FF0FF31A06872
:10461000FBF7F8FEFCF7BCF8FFF786FD0F460646F1
:104620004FF0FF316068FBF7EDFEFCF7B1F8FFF7E4
:104630007BFD05468A464FF0FF312068FBF7E2FE1E
:10464000FCF7A6F8FFF770FD53462A46FBF78DFFEF
:1046500032463B46FBF789FF42464B46FBF77FFF5E
:10466000FCF7A9F8A4F1100B4FF0FF31CBF80000D4
:104670002068FBF7C7FEFCF78BF800F04FF9064601
:104680000F464FF0FF316068FBF7BCFEFCF780F887
:1046900000F044F980460D464FF0FF31A068FBF76B
:1046A000B1FEFCF775F8FFF73FFD42462B46FBF7DE
:1046B0005CFF32463B46FBF758FF074688464FF003
:1046C000FF31A068FBF79EFEFCF762F800F026F9C8
:1046D00081468A464FF0FF312068FBF793FEFCF7D6
:1046E00057F8FFF721FD05460E464FF0FF31606891
:1046F000FBF788FEFCF74CF8FFF716FD2A46334619
:10470000FBF733FF4A465346FBF72FFF3A46434633
:10471000FBF725FFFCF74FF8CBF804004FF0FF3113
:104720002068FBF76FFEFCF733F800F0F7F8064659
:1047300088464FF0FF31A068FBF764FEFCF728F8CD
:1047400000F0ECF807460D464FF0FF316068FBF7CC
:1047500059FEFCF71DF8FFF7E7FC3A462B46FBF73E
:1047600004FF32464346FBF700FF82460E464FF0F9
:10477000FF316068FBF746FEFCF70AF800F0CEF860
:10478000804689464FF0FF312068FBF73BFEFBF780
:10479000FFFFFFF7C9FC0D4607464FF0FF31A06849
:1047A000FBF730FEFBF7F4FFFFF7BEFC3A462B4663
:1047B000FBF7DBFE42464B46FBF7D7FE524633463D
:1047C000FBF7CDFEFBF7F7FFCBF808004FF0FF310A
:1047D0006068FBF717FEFBF7DBFF00F09FF806466B
:1047E00088464FF0FF31A068FBF70CFEFBF7D0FFC7
:1047F00000F094F807460D464FF0FF312068FBF7B4
:1048000001FEFBF7C5FFFFF78FFC3A462B46FBF78F
:10481000ACFE32464346FBF7A8FE81460F464FF0FA
:10482000FF312068FBF7EEFDFBF7B2FF00F076F8F2
:1048300005460E464FF0FF316068FBF7E3FDFBF7DE
:10484000A7FFFFF771FC824688464FF0FF31A06852
:10485000FBF7D8FDFBF79CFFFFF766FC524643468B
:10486000FBF783FE2A463346FBF77FFE4A463B466C
:10487000FBF775FEFBF79FFFCBF80C00BDE8F05F80
:1048800000F00AB8D0010020A4010020008066409A
:104890001F85EB51B81E09402DE9F0411D4CE06821
:1048A0000146FBF73FFD0746A0680146FBF73AFDCE
:1048B000064660680146FBF735FD0546206801465F
:1048C000FBF730FD2946FBF7D5FC3146FBF7D2FC60
:1048D0003946FBF7CFFCFBF75BFF00F06FF8FBF707
:1048E0006AFF0D490546886029462068FBF74CFDA4
:1048F000206029466068FBF747FD60602946A06894
:10490000FBF742FDA0602946E068FBF73DFDE06053
:10491000BDE8F081C00100202000002000B5254B3B
:1049200021F0004287B09A4203DC00221346009235
:104930002BE0214B9A4208D140B94FF00100FEF71D
:1049400057FCFEF736FC07B000BD03DBFEF72CFC7E
:1049500007B000BD02AAFEF719F910F003014FF0ED
:1049600001000DD0012914D002291AD00DF1080C34
:104970009CE80F00FEF7CEFA07B081F0004100BDC1
:104980000DF1080C00909CE80F00FEF797FB07B0B4
:1049900000BD0DF1080C9CE80F00FEF7BBFA07B054
:1049A00000BD0DF1080C00909CE80F00FEF786FB9F
:1049B000E2E70000FB21E93F0000F07F2DE9F04134
:1049C00006460F46FBF7BDFF041E0D4618BF01202B
:1049D000284320F00040C0F17F6000F1E040C00FAC
:1049E0000ED0301C18BF0120384320F00040C0F129
:1049F0007F6000F1E040C00F04BF0120FEF7F8FB2C
:104A000020462946BDE8F08101020203040506079D
:104A100008090A0B0C0D0E0F10100000000000001A
:104A2000000001020304060708090000000001025B
:104A3000030400006B806B036C001A041B181C0835
:104A40001D026A2000000000555555555555C53FBB
:104A50007D6FEB0312D6D4BF5544880E55C1C93FB4
:104A60003B8F68B52882A4BF88B20175E0EF493F4B
:104A700009F7FD0DE13D023F4B2D8A1C273A03C08B
:104A8000C88A599CE52A004059018D1B6C06E6BF77
:104A900082922EB1C5B8B33F4FBB610567ACDD3F15
:104AA000182D4454FB21E93F9BF681D20B73EF3F55
:104AB000182D4454FB21F93FE2652F227F2B7A3CCD
:104AC000075C143326A6813CBDCBF07A8807703C86
:104AD000075C143326A6913CC4EB98999999C9BFF9
:104AE000711623FEC671BCBF6D9A74AFF2B0B3BF2E
:104AF0009AFDDE522DDEADBF2F6C6A2C44B4A2BFEE
:104B00000D5555555555D53FFF8300922449C23F59
:104B10006E204CC5CD45B73F513DD0A0660DB13F8D
:104B2000EB0D76244B7BA93F11DA22E33AAD903F9F
:104B30004C5555555555A53F7751C1166CC156BFBB
:104B40009015CB19A001FA3EAD529C804F7E92BECB
:104B5000C4B1B4BD9EEE213ED43888BEE9FAA8BDEA
:104B6000000000000000000000004054FB21F93F5D
:104B70003163621A61B4D03D0000601A61B4D03D67
:104B80007370032E8A19A33B0000002E8A19A33BE1
:104B9000C14920259A837B390000000000000000F5
:104BA0006E83F9A22915444ED15727FCC0DD34F598
:104BB000999562DB4190433CAB6351FE61C5BBDE1E
:104BC0003A6E24B7E0D24D42EA2E49061C92D10932
:104BD0001CEB1DFE3EA729B1F53582E88444BB2EAF
:104BE00026709CE9417E5FB439D69139F4395383FC
:104BF0008B5F849C3B28F9BDFF97F81F0F9805DE5B
:104C00008B112FEF1F6D0A5ACF7E366DB709CB2758
:104C1000663F464F2DEA5F9EC7BA27757BF1E5EBED
:104C2000F739073DEA92528AB15FFB6B085D8D1F31
:104C3000A6F810111111813FD561C119A0012ABF39
:104C40007DFEB157E31DC73EEB9C2B8AE6E55ABEBD
:104C50007CD5CF5A3AD9E53D784C000800000020B9
:104C60003C000000D0310008B44C00083C0000209B
:104C7000A4050000E0310008000000000000000072
:104C80000100000010000000000000000024F400FB
:104C900000000000000000000000A0410AD7A33C73
:104CA0000000000000000000000000000000000004
:044CB0000000000000
:0400000508000131BD
:00000001FF
