:020000040800F2
:100000008007002045010008812500089B22000888
:100010007123000829120008F129000800000000DF
:10002000000000000000000000000000ED250008B6
:10003000D912000800000000EB250008EF25000899
:100040005F0100085F0100085F0100085F01000810
:100050005F0100085F0100085F0100085F01000800
:100060005F0100085F0100085F0100085F010008F0
:100070005F0100085F0100082D1200083912000816
:100080005F0100085F0100085F0100085F010008D0
:100090005F0100085F0100085F0100085F010008C0
:1000A0005F0100085F0100085F0100085F010008B0
:1000B0005F0100085F0100085F0100085F010008A0
:1000C0005F0100085F0100085F0100085F01000890
:1000D0005F010008E52900085F0100085F010008D2
:1000E000DB1200085F0100085F0100085F010008E3
:1000F0005F0100085F0100085F0100085F01000860
:100100005F0100085F0100085F0100085F0100084F
:100110005F0100085F0100085F0100085F0100083F
:100120005F0100085F0100085F0100085F0100082F
:10013000DFF80CD000F06AFE0048004731380008B4
:10014000800700200648804706480047FEE7FEE794
:10015000FEE7FEE7FEE7FEE7FEE7FEE7FEE7FEE777
:100160005126000831010008202A04DB203A21FA38
:1001700002F00021704721FA02F3D040C2F12002C0
:1001800091400843194670470649074A086850439A
:1001900043F2390210440860400870470149086082
:1001A000704700003C0000206D4EC641D2B201E015
:1001B00000F8012B491EFBD270470022F6E710B56C
:1001C00013460A4604461946FFF7F0FF204610BDC5
:1001D0000FB400B589B00BA800906A4603480A998D
:1001E00000F0D6FB09B05DF814FB000040000020D1
:1001F0002DE9FF4F087883B09946FF2805D0491CA8
:100200002D2804D00024002008E000200BE0012469
:10021000F9E700EB800003EB4000491C0B78FF2B53
:10022000F7D104B1404200230293147819461D46C9
:100230002D2C01D02B2C04D1521C2D2C13D000249A
:100240000294AA461478FF2C0FD00A25A3FB057848
:1002500001FB05814FF0000C03FB0C11521CE3194C
:100260004AEB0101EEE70124EAE7814453EA010089
:1002700002D019F5C87F06DA03980021C0E9001101
:1002800007B0BDE8F08F0025AE4E2F46DFF8B882EC
:10029000184600F07EFDCDE90001B9F1000002DA58
:1002A000C9F1000400E004460023A74A1AEB030B3F
:1002B00042EB045A12E0E00707D02A46334638469C
:1002C000414600F019FA074688462A46334610464A
:1002D000194600F011FA05460E466410002CEAD1CA
:1002E000DDE90001B9F1000F5A46534606DA00F085
:1002F000E1FC3A46434600F0DDFC05E000F0FCF985
:100300003A46434600F0F8F9029A0AB181F00041FA
:10031000039AC2E90001B3E72DE9FF4F1F468DB0F4
:10032000D7E901464FF0FF382E2045464FF000092F
:100330000B90B9696D1C0E988847396A82468847C8
:100340000028F6D1BAF1FF3F0AD024F4D064002E81
:1003500011DDBAF12B0F08D0BAF12D0F0BD102E04D
:10036000404611B08DE744F48064B9696D1C0E9865
:1003700088478246761E6946600501D52D2000E03B
:100380002B208DF8000001F1010B0DF1200809E090
:10039000B9696D1C0E98884782460F9844F4007422
:1003A000761E0560002E02DDBAF1300FF0D00B99F9
:1003B0008A453ED144F0800406E00F99681CA9F1FB
:1003C000010944F400740860B9696D1C761E0E982A
:1003D000884782463028F0D02BE00B998A4505D11A
:1003E000200603D444F08004761E18E0504602F044
:1003F000D1FC08B30DF11301761E44F400748B4553
:1004000008D2AAF130000BF8010B200607D5A9F19C
:10041000010003E0200602D409F101008146A00595
:1004200002D50F99681C0860B9696D1C0E98884741
:100430008246002ED1DC53E0002E51DDBAF1650F6B
:1004400002D0BAF1450F4BD1A00549D5B9696D1C51
:1004500024F44074761E0E9888478246002E0CDDE8
:100460002B2804D0BAF12D0F07D144F48074B96958
:100470006D1C0E9888478246761EE00501D52D2119
:1004800000E02B2108F8011BCDF82C8021E00DF1B4
:100490002901761E44F4007488450CD2AAF130007C
:1004A00010F0FF0088F8000002D10B99884509D9A7
:1004B00008F1010806E0E00501D5244801E042F218
:1004C0000F708146B9696D1C0E98884782460F9857
:1004D0000560002E04DD504602F05CFC0028D6D1F9
:1004E000F9690E988847FF208BF8000088F8000013
:1004F0000020069007904B466A4608A906A8FFF719
:1005000077FEA00502D46FF001002AE714F0240F53
:100510000AD0E00714D1DDE906123868031D3B60FC
:100520000068C0E900120BE0DDE9060100F0B8F94F
:100530000146E00704D13868021D3A600068016096
:1005400028460EE7000014400000F03FF1D8FFFFFE
:10055000F0B480EA0102D40F4200B2EB410F02D2A4
:100560000246084611464A0042D0C30DDDB2C1F32F
:10057000C752AD1A202D35DAC1F3160141F400023D
:1005800004B15242C5F1200602FA06F12A41104494
:10059000B3EBD05F23D0C4B1012DA0EBC35009DC75
:1005A000F0BC4FF0004202EAC352DBB200F500009B
:1005B00000F001BA400000F1807000EBC350A0F1E0
:1005C000807040EAD170490009E0490841EAC071F1
:1005D000A0EBC35000F50000400800EBC350F0BC96
:1005E00000F0E0B96142012202EB4101001BF6E795
:1005F000F0BC704781F00041AAE780F00040A7E717
:1006000080EA010210B502F00043400022D04A0007
:100610001FD0010E01EB1261C0F35600C2F3560267
:1006200040F4000042F40002A0FB022000047F39E5
:10063000140400D0401C50EA124001D44000491E6E
:10064000C2B20C0604EBD010401C4008802A02D035
:1006500003E0002010BD20F00100002900DA002096
:10066000184310BD30B480EA010202F0004530F0BA
:10067000004221F0004013D090B1C30DD40DC2F35D
:100680001601C0F31600E41A41F4000140F4000220
:100690007D34914201D3641C00E04900002C02DA51
:1006A00030BC002070474FF400000023914201D37A
:1006B000891A034340084FEA4101F7D151B19142F1
:1006C00002D14FF0004105E002D24FF0010101E0FC
:1006D0006FF0010103EBC450284430BC00F062B954
:1006E000420005D0C0F3C7525242914201DC0020C3
:1006F000704700EBC15070472DE9FE4F81EA0304BB
:1007000004F0004421F0004100944FF0000B23F06E
:10071000004350EA01045ED052EA03045BD0C3F305
:100720000A54C1F30A552C44A4F2F3340194A0FBFB
:100730000254C1F3130141F48011C3F3130343F4D2
:10074000801301FB024400FB034E840A970A44EA2B
:10075000815447EA8357A4FB076802958D0A05FB7D
:1007600007854FEA932C04FB0C542705029D4FEAA2
:10077000065847EA1637B5EB08056EEB070C870EEF
:10078000920E47EA811742EA8312A7FB0201B6EBF9
:100790000B0164EB00042B0D43EA0C335E1844EBB1
:1007A0001C50DA465146E7FB0201C5F313044FEA39
:1007B0000B3343EA14534FEA0432019C43EA060325
:1007C000A4F10C040294009CCDE900B400F07DF982
:1007D00003B0BDE8F08F00200146F9E770B521F0C5
:1007E000004303430CD0C1F30A550024D5EB0405A4
:1007F00064EB0403D617AD1AB34102DB00200146B7
:1008000070BD201841EB025170BDC10F80EAE0704D
:100810000844CA079623002100F0CDB89623002291
:10082000114600F0C8B80EB5C10F80EAE070084468
:10083000CA07002140F233438DE80E000A460B46FA
:1008400000F043F903B000BD00F0004220F000408A
:10085000C10DC0F3160040F400007F2901DA00202A
:100860007047962903DCC1F19601C84001E0963932
:100870008840002AF4D04042704700F0004230F037
:1008800000400AD0C10D01F56071C0F3160042EAC4
:100890000151C208400711437047002001467047CC
:1008A00001F0004330B421F0004150EA010206D0CB
:1008B0000A0DA2F56072C1F31301002A02DC30BCFC
:1008C00000207047440F44EAC104C100E01830BC66
:1008D00000EBC25000F066B8002801DBC0F1004018
:1008E000002901DBC1F1004181427047002801DB92
:1008F000C0F10040002901DBC1F10041884270478E
:1009000030B50B46014600202022012409E021FADF
:1009100002F59D4205D303FA02F5491B04FA02F5DC
:100920002844151EA2F10102F1DC30BD2DE9F05F73
:100930000546002092469B4688460646814640244E
:100940001BE02846414647462246FFF70DFC53462A
:100950005A46C01A914110D311461846224600F05B
:100960007DFA2D1A67EB01084F462246012000212F
:1009700000F074FA17EB00094E41201EA4F10104A7
:10098000DFDC484631462A464346BDE8F09F00007A
:10099000024B9361024BD36100F088BA51360008D4
:1009A0004D0E00080029A8BF7047401C490008BF31
:1009B00020F00100704710B4B0FA80FC00FA0CF08F
:1009C00050EA010404BF10BC704749B1CCF12004C7
:1009D00021FA04F411FA0CF118BF01212143084354
:1009E000A3EB0C01CB1D4FEA00614FEA102042BF80
:1009F000002010BC704700EBC35010440029A4BF76
:100A000010BC7047401C490008BF20F0010010BC1A
:100A10007047F0B4002802DCF0BC00207047C0F33F
:100A2000C751C0F3160040F40000CA0701D14000CE
:100A3000491E3F2202EB6105002211464FF40006D9
:100A400026FA01F31344D418844201D8001B1A4635
:100A50004000491C1729F3DD5100814202D24FF0BA
:100A6000FF3100E0002102EBC550F0BCFFF79ABF58
:100A700010B541000CD0C0F3C751962908DC7E297F
:100A800009DC06DB410204D000F0004040F07E505B
:100A900010BD002010BDC1F19604C4F1200100FA80
:100AA00001F1E040FFF77EFFA04010BD10B5141E1D
:100AB00073F1000408DA401C41F1000192185B4117
:100AC0001A4301D120F0010010BD2DE9F04D9246EE
:100AD0009B4611B1B1FA81F202E0B0FA80F2203205
:100AE000904600F0BBF904460F4640EA0A0041EA8E
:100AF0000B0153465A46084313D0114653EA0100EE
:100B000019D0C8F140025046FFF72EFB05460E46AD
:100B100050465946424600F0A1F9084305D001204D
:100B200004E020463946BDE8F08D0020054346EA42
:100B3000E0762C4337430A986305E40AA0EB0800EB
:100B40000022FD0A44EA47540A3002D5002001463B
:100B5000E9E7010510196941DDE908450019694116
:100B6000BDE8F04DA2E72DE9FE4F804681EA030083
:100B7000C00F0C46009021F0004123F00045B8EB77
:100B80000200A94105D24046214690461C460B462C
:100B9000024623F00040104347D0270DC7F30A0058
:100BA000C3F30A510290401A019040286BDAC3F354
:100BB000130040F4801B0098924620B10023D2EB32
:100BC000030A63EB0B0B01985946C0F140025046F3
:100BD00000F044F906460D4650465946019A00F089
:100BE0004CF910EB08006141002487EA115284EAB5
:100BF000E7731A4340D0009A62B3019A012A4FEA80
:100C0000075215DC001B61EB02014FF0004202EAC3
:100C10000752CDE90042001C41F5801132462B46B7
:100C2000FFF753FF03B0BDE8F08F40462146F9E7D8
:100C3000001B61EB0201001C41F5801300185B41B1
:100C40002018A2F5001747EB030140EAD570B6194A
:100C50006D4111E06D084FEA360645EAC0754FEA6E
:100C60000752001B61EB0201001C41F5801149088D
:100C70004FEA30000019514132462B4603B0BDE81F
:100C8000F04FFFF713BF0098012240000023D0EB84
:100C9000020263EBE073009821464FEAE074B8EB80
:100CA000000061EB0401E9E783F000435BE781F0BA
:100CB000004158E72DE9F04D81EA030404F0004BB0
:100CC00021F0004514464FF0000A23F0004150EA9D
:100CD000050220D054EA01021DD0C5F30A5702468E
:100CE000C5F31303C1F31300C1F30A5640F4801592
:100CF00043F48013A7EB0608101BD64608F2FD3814
:100D000073EB050002D308F1010801E092185B4182
:100D1000B8F1000F03DA00200146BDE8F08D002095
:100D20004FF48011064684460EE0171B73EB05074F
:100D300005D3121B63EB050306434CEA010C49087B
:100D40004FEA300092185B4150EA0107EDD152EAB8
:100D5000030012D082EA040083EA0501084305D0AB
:100D6000101BAB4106D20122002306E000224FF007
:100D7000004302E06FF0010253101AEB06004CEB47
:100D8000085110EB0A0041EB0B01BDE8F04DFFF7F5
:100D90008DBE0EB540F2334202920022CDE9002210
:100DA0001346FFF792FE03B000BDC1F30A52C1F330
:100DB000130140F2FF3341F480119A4202DA00201D
:100DC0000146704740F233439A42A2F2334202DCBA
:100DD0005242FFF7C9B900F041B8000030B5041E17
:100DE00071F1000404DB4FF00044404264EB010168
:100DF000141E73F1000405DB1C464FF00043524201
:100E000063EB0403994208BF904230BD064C074D86
:100E100006E0E06840F0010394E8070098471034CA
:100E2000AC42F6D3FFF788F9743B0008943B000806
:100E3000094910B508784C1C18B1401E0870205C98
:100E400010BD00210720ABBE207010BD02490878FC
:100E5000421C0A70704700004C000020202A04DB6E
:100E6000203A00FA02F1002070479140C2F12003BD
:100E700020FA03F3194390407047202A06DBCB1772
:100E8000203A41FA02F043EAE07306E041FA02F345
:100E9000D040C2F12002914008431946704700003B
:100EA000026811441378016018467047D160044904
:100EB00051610449116200211161114600F00AB824
:100EC000A10E0008C90E0008C0B24FF4F05100F0A6
:100ED00097B900002DE9F34F8BB04FF0000801F1F6
:100EE0000C000C464FF0010B46460DF1080A01902C
:100EF0006269012101989047051E2DD0252D2CD027
:100F0000216A8847C0B16269012101989047216A2E
:100F100088470028F7D1411E62690198904700E098
:100F2000761CA1690B988847216A88470028F7D169
:100F3000E1690B988847DBE7A1690B98884707466A
:100F4000A84201D1761CD3E7E1690B9888477F1C42
:100F500002D1B8F1000F6FD046E1002762693D462B
:100F60003946019890472A2804D1626901210198E5
:100F700090470125DFF8849262690121019890472A
:100F8000A0F130010A290AD24F45E5DC07EB8701C1
:100F900000EB4107303FDFD445F01005ECE7E906F0
:100FA00001D46FF000476C280AD04C2814D0682870
:100FB00015D06A280DD074281CD07A281AD01DE0CC
:100FC00062690121019890476C2802D045F0040520
:100FD00014E045F002050DE045F020050AE06269E5
:100FE000012101989047682802D045F0080505E0E6
:100FF00045F400656269012101989047C4E90157F1
:1010000065283DD019DC58287AD00CDC452837D02B
:1010100004DC252826D0412831D131E046282FD0C4
:1010200047282CD12CE05B2877D0612828D0632872
:101030007CD0642823D15AE0D0E06F2848D008DC67
:1010400066281DD067281BD0692821D06E2816D1AC
:1010500027E0702845D0732868D0752847D07828B5
:101060000DD14DE0A1690B988847054625283FF42E
:1010700069AFE1690B9888476D1C3FF46AAFB3E034
:1010800023466A466FF001000B99FFF745F99EE091
:1010900045F040006060A80723464FF0000236D4B8
:1010A0003EE0E8077FF447AF2068011D216000683B
:1010B000290501D506701BE7290701D5068017E72A
:1010C000A90703D5F117C0E9006111E706600FE732
:1010D00045F040006060A80723464FF0080216D490
:1010E0001EE040F60E0125EA0100606016E045F0C2
:1010F00040006060A80723464FF00A0207D40FE0C3
:1011000045F040006060A80708D5234610226FF024
:1011100001000B99AFF3008059E007E0234610224D
:101120006FF001000B99AFF3008050E04FF0000921
:101130004F464B46632802D05B2806D040E0E806C5
:1011400001D40120A06001273AE0626901210198E1
:1011500090475E2805D14FF0010962694946019820
:101160009047216939B900210A46534643F82120A6
:10117000491C0829FADBB0B3216969B9C11700EB32
:10118000D16253110AEB830122F01F02821A01205F
:101190000B68904003430B606269012101989047FE
:1011A0005D28E8D1B9F1000F09D00020514651F86F
:1011B0002020D24341F82020401C0828F7DB02AB56
:1011C000224600976FF001000B99AFF300800028D2
:1011D0000CDA401C08D1BBF1000F05D04FF0FF30F6
:1011E0000DB0BDE8F08FFFE74046F9E7E90701D110
:1011F00008F1010806444FF0000B79E6CCCCCC0C8A
:101200007F2801D9002208E0064A02EB5002C007FD
:10121000127800D1120902F00F020120904008401C
:1012200070470000343B0008FEE70000014800F072
:10123000D3B800003C030020014800F0CDB8000006
:10124000F802002030B590F840500124AC40C56B46
:101250006C60046863604368102B036803D0996076
:101260000068C26030BD9A600068C16030BD000097
:1012700038B5044609484068009009480068FFF7FF
:10128000CDFA054620680099081AFFF7C7FA2946E3
:10129000FFF7E8F90099216038BD0000001000E078
:1012A0002400002008490A6842F080720A60074959
:1012B00000224A600A6842F001020A600449484379
:1012C0000449086070470000FCED00E0001000E0F9
:1012D00040420F002400002070474FF4004000F00F
:1012E00029BA72B6FEE700002DE9F041224C234DE9
:1012F000234E20694FF04048E0B1E068FFF7BDFAA7
:101300002A463346FFF7F8F9FFF7CAFA02F0E2F887
:101310000546A06802F0C4F94146FFF771F902F0F2
:10132000ADFB2946FFF76CF92169C1F1010121618B
:10133000BDE8F081FEF728FFFFF775FA6FF01E0792
:101340003A46FFF74BFAFFF7ABFAA060FEF71CFF37
:10135000FFF769FA3A46FFF741FAFFF7A1FAE060B2
:10136000FFF78BFA2A463346FFF7C6F9FFF798FADC
:1013700002F0C0FACCE700002800002044174154D6
:10138000FB211940C06A7047406A7047806A704705
:1013900010B590F821100022022905D004218163A4
:1013A00080F82020012010BD01680B6823F00E0397
:1013B0000B6001680B6823F001030B6090F840306C
:1013C000C46B012101FA03F3636080F8211080F8F7
:1013D0002020104610BD00002DE9F05FC16B0A68A7
:1013E00001680B68046C4FF0040808FA04F8844D97
:1013F000844E854FDFF814C2DFF81492DFF814A290
:10140000DFF814B2DFF814E218EA020F65D05FEAE1
:10141000437862D50A68920603D40A6822F004026F
:101420000A60DFF8F0814FF48062016808F1140867
:1014300013011402414524D9A9420DD0B1420FD065
:10144000B9421AD0614515D0494515D0514501D151
:10145000120312E0594501D104220EE0714501D179
:1014600040220AE06D4D1435A94206D06B4A28325D
:10147000914201D11A4600E022466749091F0A60DD
:1014800029E0A94213D0B14215D0B94220D061451C
:101490001BD049451BD0514502D14FF4800217E0C3
:1014A000414502D14FF0806212E0594501D104223A
:1014B0000EE0714501D140220AE0584D1435A94291
:1014C00006D0564A2832914201D11A4600E02246FF
:1014D0004B4908394A60C16A71E04FF0020808FAC6
:1014E00004F818EA020F70D05FEA83786DD50A68B5
:1014F000920606D40A6822F00A020A60012180F8E6
:101500002110DFF810814FF40072016808F114080F
:1015100013011402414524D9A9420DD0B1420FD084
:10152000B9421AD0614515D0494515D0514501D170
:10153000120312E0594501D102220EE0714501D19A
:1015400020220AE0354D1435A94206D0334A28320C
:10155000914201D11A4600E022462F49091F0A6034
:1015600029E0A94213D0B14215D0B94220D061453B
:101570001BD049451BD0514502D14FF4001217E052
:10158000414502D14FF0007212E0594501D10222CB
:101590000EE0714501D120220AE0204D1435A94208
:1015A00006D01E4A2832914201D11A4600E0224656
:1015B000134908394A60002180F82010816A002907
:1015C0001CD0BDE8F05F0847FFE70825A54015429D
:1015D00014D01A0712D50A6822F00E020A6090F899
:1015E0004020C36B012101FA02F25A60816380F846
:1015F0002110002180F82010016BE0E7BDE8F09F8A
:10160000080002401C00024030000240440002403A
:10161000580002406C000240080402401C040240D2
:1016200030B560B11A4B026814219A4209D2194BA5
:101630001344B3FBF1F18900016417490AE001206A
:1016400030BD134B5B421344B3FBF1F189000164DD
:101650000F490839C163022180F82110136843F64D
:10166000F0718B43F0E901142143D0E902452C438A
:101670002143046921434469214384692143194377
:10168000116000214163012242770177084630BD95
:1016900008040240F8FFFDBF0000024070B5044698
:1016A00090F82000002501280CD0012084F82000AB
:1016B00094F821600020012E06D084F82000022535
:1016C000284670BD022070BD022684F82160A06308
:1016D0002068066826F0010606602046FFF7B2FD86
:1016E000E06A00282068016802D041F00E0106E09F
:1016F00021F0040101602068016841F00A010160E5
:101700002068016841F001010160D9E770B5044625
:1017100000F018F90546601C02D004480078044423
:1017200000F010F9401BA042FAD370BD1400002055
:1017300070470000044910B50A68024202D00860F0
:10174000FFF7F6FF10BD0000140401402DE9F84F2B
:10175000DFF8C8910024A9F1040B23460F2709F1F3
:10176000040AABF1040ED1E00125A54006EA05020A
:10177000AA4276D1DFF8A8C14E68A6EB0C086645F0
:101780002BD00DDC032E34D005DC36B3012E19D05E
:10179000022E2FD11BE0112E16D0122E2AD119E0C5
:1017A000B8F5881F19D006DCB8F5803F15D0B8F51C
:1017B000801F1FD111E0B8F5001F0ED0B8F5041F2F
:1017C00018D10AE0CB6815E0CB681B1D12E0CB688E
:1017D00008330FE0CB680C330CE08B682BB1012B86
:1017E0004FF0080303D0456104E0042302E00561E3
:1017F00000E00023FF2A01D8064601E000F10406BC
:101800004FEA840501D9A5F12005D6F8008007FA32
:1018100005FC28EA0C0803FA05F548EA0508C6F8AD
:1018200000804D68ED0070D53E4DAE6946F0010672
:10183000AE61AD6924F0030605F0010500953A4D4F
:1018400006EB050CDCF80850A607360F07FA06F879
:1018500025EA0805DFF8D480404503D14FF00008A1
:1018600025E052E0DFF8C880404502D14FF0010882
:101870001DE0DFF8C080404502D14FF0020816E0BD
:10188000DFF8B480404502D14FF003080FE0DFF8E5
:10189000AC80404502D14FF0040808E0DFF8A0809A
:1018A000404502D14FF0050801E04FF0060808FA64
:1018B00006F848EA0508CCF808804D68D9F80060B9
:1018C000ED024D4601D5164300E096432E604D686B
:1018D000DAF80060AD02554601D5164300E09643A4
:1018E0002E604D68DBF80060AD035D4601D5164300
:1018F00000E096432E604D68DEF80060ED0375460B
:1019000001D5164300E096432E60641C0A68164613
:10191000E2407FF429AFBDE8F88F000008040140E1
:1019200000001110001002400000014000080140BA
:10193000000C01400010014000140140001801405B
:10194000001C01400148806870470000140000201E
:1019500002488168027811448160704714000020B9
:10196000074810B5016841F010010160032000F044
:1019700075F80F2000F006F800F024F8002010BDE4
:101980000020024070B50D4D04464FF47A7128785E
:10199000B1FBF0F00A490968B1FBF0F000F0DCFAA5
:1019A00048B9102C07D200222146501E00F036F80C
:1019B00000206C6070BD012070BD0000140000208C
:1019C000200000200C4808B5816941F001018161C7
:1019D000816901F001010091C16941F08051C1614B
:1019E000C06900F0805000900448416821F0E06137
:1019F00041F00071416008BD00100240000001404C
:101A0000002809DB00F01F020121914040098000FD
:101A100000F1E020C0F8001170470000F0B40E4B58
:101A20001B680C46C3F30223C3F10705042D00D93C
:101A30000425191D072901D2002300E0DB1E012621
:101A400006FA05F1491E214099409E40761E164037
:101A50003143F0BC00F0F1BF0CED00E0064900F0AE
:101A6000070208684FF6FF03184040EA0220034AC5
:101A700010430860704700000CED00E00000FA051C
:101A80002DE9F0470F46050061D0434E306800F065
:101A90000700B84209D2306820F0070038433060B0
:101AA000306800F00700B84251D128683B4C8107EC
:101AB00012D5400703D5606840F4E0606060287884
:101AC000000703D5606840F4605060606068A968F2
:101AD00020F0F000084360602878C00728D06868CC
:101AE000012810D02168022810D0890700292EDA99
:101AF000616821F0030101436160FFF723FF804625
:101B000041F288390DE021688903EFE78901EDE7AB
:101B1000FFF718FFA0EB0801494502D90320BDE8F3
:101B2000F0876068696800F00C00B0EB810FEFD1BE
:101B3000306800F00700B8420BD9306820F0070089
:101B400038433060306800F00700B84201D001200F
:101B5000E5E72878400705D56068E96820F4E0608B
:101B6000084360602878000706D56068296920F47A
:101B7000605040EAC100606000F038F86168084ACF
:101B8000C1F30311515CC84006490860064800686B
:101B9000FFF7F8FE0020C2E70020024000100240DC
:101BA000BA3A000820000020180000200448054927
:101BB00000684968044AC1F30221515CC84070477B
:101BC0002000002000100240CA3A000804480549DD
:101BD00000684968044AC1F3C221515CC84070479B
:101BE0002000002000100240CA3A00080E4A516846
:101BF0000E4801F00C03042B11D0082B0FD10C4818
:101C0000C1F38343C903C05C0AD55168084AC1F3D4
:101C10004041921E515C054A5043B0FBF1F07047C1
:101C200004494843704700000010024000127A0047
:101C3000AA3A000800093D002DE9F84F040070D0D1
:101C40002078C04DC00749D06868C0F381000128E2
:101C500007D06868C0F38100022809D16868C00312
:101C600006D52868800339D560680028E7D035E0BC
:101C70006068B0F5803F0BD010B1B0F5A02F11D047
:101C8000286820F480302860286820F4802002E052
:101C9000286840F480302860606890B1FFF752FEF9
:101CA00006460AE0286840F480202860F0E700BF7C
:101CB000FFF748FE801B642873D828688003F7D597
:101CC0000CE0FFF73FFE064605E000BFFFF73AFED7
:101CD000801B6428F0D828688003F7D420789A4EB7
:101CE00080074FF001094FF0000839D5686810F0FF
:101CF0000C0F07D06868C0F38100022809D168681A
:101D0000C00306D42868800714D52069012808D1AB
:101D100010E02069B0B1C6F80090FFF713FE074647
:101D200005E00AE1FFF70EFEC01B0228C4D82868B0
:101D30008007F7D52868616920F0F80040EAC10003
:101D400028600DE0C6F80080FFF7FCFD074604E0C0
:101D5000FFF7F8FDC01B022823D828688007F7D4B6
:101D6000207800072CD57948A169D9B1C0F8009036
:101D7000FFF7E8FD074604E0FFF7E4FDC01B02287B
:101D80000FD8686A8007F7D571484FF4FA51006898
:101D9000B0FBF1F0009000BF0098411E0091FAD214
:101DA0000EE080E0C0F80080FFF7CCFD074604E0BD
:101DB000FFF7C8FDC01B022875D8686A8007F7D4F2
:101DC0002078400760D5E8690027C00008D4E8699A
:101DD00040F08050E861E869012700F080500090F1
:101DE0005C480168C90513D40168834641F48071D9
:101DF0000160FFF7A7FD824606E000BFFFF7A2FDE6
:101E0000A0EB0A0064284ED8DBF80000C005F5D529
:101E1000E06801280AD008B1052813D0286A20F00C
:101E200001002862286A20F0040002E0286A40F0DD
:101E300001002862E06841F2883B98B1FFF782FD1B
:101E400082460BE0286A40F004002862EEE700BFFB
:101E5000FFF778FDA0EB0A0159455AD8286A800798
:101E6000F6D50CE0FFF76EFD824605E0FFF76AFD50
:101E7000A0EB0A0159454CD8286A8007F6D41FB157
:101E8000E86920F08050E861E06988B36968C1F3CF
:101E90008101022944D00228C6F8608004D0FFF7EF
:101EA00051FD044638E034E0FFF74CFD074604E0FE
:101EB000FFF748FDC01B02282BD828688001F7D403
:101EC000206AB0F5803F05D16868A16820F4003031
:101ED00008436860D4E908010843696821F4741173
:101EE00008436860C6F86090FFF72CFD044606E0E2
:101EF00025E000BFFFF726FD001B022809D828684F
:101F00008001F7D51BE000BFFFF71CFD001B022876
:101F100002D90320BDE8F88F28688001F4D40EE0D0
:101F20000128F7D06868226A00F48031914204D118
:101F3000616A00F47010884201D00120EAE70020B5
:101F4000E8E70000001002400000424280044242E4
:101F5000200000200070004010B5401EB0F1807FCE
:101F600001D3012010BD4FF0E02460610F21601704
:101F700000F063FD0020A06107202061002010BD5B
:101F8000704710B504460068406994F84110C0F3EA
:101F9000C010212911D180B12068143050E8001FF1
:101FA00021F0800140E80012002AF5D1A06B08B1B1
:101FB000FFF7EEF9204600F0EAFB2068406994F84C
:101FC0004210C0F38010222911D180B12068143052
:101FD00050E8001F21F0400140E80012002AF5D12E
:101FE000E06B08B1FFF7D4F9204600F0A9FB002010
:101FF00010BD704770B5040004D094F8410000256E
:1020000010B106E0012070BD84F84050204600F079
:1020100023F8242084F841002068C16821F400518D
:10202000C160204600F0FEFB2068016921F4904168
:1020300001612068416921F02A0141612068C1687D
:1020400041F40051C1606564202084F8410084F8A7
:1020500042006563002070BDF0B585B000240646DF
:10206000009401940294039400682D49884255D14C
:102070002C48816941F480418161816901F480418A
:102080000491816941F0040181618069264D00F06D
:10209000040004904FF4007000900220019003208F
:1020A000039069462846FFF751FB2815CDE9000447
:1020B000694628460294FFF749FB1D4D1B488027BF
:1020C000C5E90004C5E9024720202C61C5E90540A7
:1020D0002846EC61FFF7A4FA08B1FFF702F9F563AF
:1020E0006E62134D11484435143801C5102091C556
:1020F0000F4845F8104944306C61AC61EC61FFF762
:102100008FFA08B1FFF7EDF8B563002211462520DC
:102110006E62FFF783FC2520FFF772FC05B0F0BD6F
:102120000038014000100240000801405800024001
:10213000F80200202DE9F843044690F84200994641
:1021400016460D46202802D00220BDE8F883ADB126
:10215000A6B100206064222184F842102063FFF7BA
:10216000F1FBA6858046E685A0684FF48057B8420B
:1021700001D1206920B12E46002526E00120E4E7A8
:10218000002622E04346002220212046CDF8009080
:1021900000F0ECFB08B10320D7E726B1A068B842F5
:1021A0001BD038B108E020684068C0F3080025F86B
:1021B000020B07E0206980B12068406800F07F00D2
:1021C00006F8010BE08D401EE085E08D0028D9D196
:1021D000202084F842000020B7E720684068EFE73D
:1021E00090F84230202B01D00220704721B11AB163
:1021F0000023036300F072BB0120704770477047F3
:102200002DE9F843044690F841001F4616460D4656
:10221000202802D00220BDE8F8837DB176B10020ED
:102220006064212084F84100FFF78CFBA68480467F
:10223000E684A068B0F5805F02D003E00120EAE701
:10224000206910B12E4600250EE000260CE080210A
:10225000204600F08BFBA0B9AEB116F8010B216847
:102260004860E08C401EE084E08C43464FF0000262
:1022700000970028EBD14FF04001204600F076FB9C
:1022800030B10320C7E735F8020BC0F30800E6E7DA
:10229000202084F841000020BDE7FEE70D4808B586
:1022A000416941F0010141614069002200F00100F3
:1022B000009011460E20FFF7B1FB0E20FFF7A0FBA8
:1022C000002211460F20FFF7A9FBBDE808400F20B0
:1022D000FFF796BB0010024000B585B000200390C8
:1022E0001248816941F020018161816901F020017A
:1022F0000491816941F0040181618069694600F0BF
:10230000040004904FF4004000900948019001201F
:1023100002900848FFF71AFA002201212820FFF74F
:102320007DFB2820FFF76CFB05B000BD00100240CC
:1023300000002110000801400C4810B50A49016056
:102340004FF4E1314160002181600C22C160C0E99D
:1023500004128161C161FFF74DFE002803D0BDE882
:102360001040FEF7BEBF10BD00380140B002002093
:10237000FEE700000C4941630C4981630C49C163CD
:102380000C4901640C4941640C4981644FF07C5153
:10239000C1640B490163002141608160C1608161BA
:1023A000C1610162704700001283403D8FC2F53C5D
:1023B0002DB23D3FFE65373F6666E63F2766BD3B73
:1023C0000000C0412DE9F047056B0E46044685F03C
:1023D0000047914639463046FEF77EFA01D23D4627
:1023E00005E029463046FEF781FA00D33546676896
:1023F000606C3946FEF704F9A66880463146206CC9
:10240000FEF7FEF82946FEF7F8F84146FEF7F2F827
:10241000A16CFEF727F92061A169FEF799F84946FA
:10242000FEF7EEF84FF0FF352946FEF759F9394629
:10243000FEF78EF8014660604C4A26F0004090425C
:102440000ADAE06BFEF7DCF820F00040E16CFEF702
:1024500043FA01D200201AE0A66816F1FF4F02D21B
:102460004FF07E5000E04248E16CFEF7C9F80746A5
:102470003146A06BFEF7C4F806466168E06BFEF7D4
:10248000BFF83146FEF7B6F83946FEF7B3F860619B
:10249000616BFEF7E7F860610646E169FEF758F800
:1024A0004946FEF7ADF82F462946FEF719F9A1680F
:1024B000FEF74EF8A0600546216AFEF749F8494646
:1024C000FEF79EF83946FEF70BF9E168FEF740F893
:1024D000E06020692562C4E90606FEF705FF25498C
:1024E000FEF78EF86168FEF733F8234E3146FEF7AB
:1024F000B9F80D21FEF7F4F801F0B6F8FEF785F90A
:102500006FF00C052946FEF7EBF83146FEF778F838
:102510001A4E60623146E068FEF7A4F80D21FEF71E
:10252000DFF801F0A1F8FEF770F92946FEF7D8F8B8
:102530003146FEF765F8E16AFEF75CF84946FEF7BA
:1025400091F8A0623146E068FEF78CF80D21FEF7A5
:10255000C7F801F089F8FEF758F92946FEF7C0F8E8
:102560003146FEF74DF8E062BDE8F0876F12033B9D
:10257000000080BF9A99993E56555541DA0FC940DF
:10258000FEE72DE9F04790460A46D8F80470044665
:102590001D4639461046FEF72DF88146494620680B
:1025A000FEF72EF8824649466068FEF729F8314664
:1025B000FDF7CEFF06463846D8F80810FEF71AF8A1
:1025C000A168FEF71DF8044631465046FDF7C0FFEE
:1025D0002146FDF7BDFF0446296BFEF77DF902D8C1
:1025E0002046BDE8F087286BFBE770477047FFF790
:1025F000AFB930B58FB028216846FDF7DEFD142154
:102600000AA8FDF7DAFD01210804CDE90010002435
:10261000029402250491CDE907504FF4E01009908F
:102620006846FFF709FB08B172B6FEE70F20CDE957
:102630000A054FF48060CDE90C4002210AA80E94EF
:10264000FFF71EFA002801D072B6FEE70FB030BDCA
:10265000704770B5446A2068406994F84110C0F32F
:10266000C0100025212904D118B1E584204600F0CE
:102670008EF82068406994F84210C0F38010222937
:1026800004D118B1E585204600F05AF8606C40F09E
:10269000100060642046FFF7ACFC70BD10B5014629
:1026A000406A096809684FF0000289062ED4C28585
:1026B00001680C3151E8003F23F4807341E8003495
:1026C000002CF5D10168143151E8003F23F00103DB
:1026D00041E80034002CF5D10168143151E8003F85
:1026E00023F0400341E80034002CF5D1202180F88C
:1026F0004210016B012909D101680C3151E8003FFA
:1027000023F0100341E80034002CF5D14263016B43
:10271000012902D0FFF772FD10BD818DFFF730FC5B
:1027200010BD10B5406A01214163016B012902D03F
:10273000FFF765FD10BD818D4908FFF721FC10BD35
:1027400001680C3151E8002F22F4907241E8002317
:10275000002BF5D10168143151E8002F22F001025D
:1027600041E80023002BF5D1016B012909D1016853
:102770000C3151E8002F22F0100241E80023002B19
:10278000F5D1202180F842100021016370470168D3
:102790000C3151E8002F22F0C00241E80023002B49
:1027A000F5D1202180F841107047000038B504466B
:1027B00000680068C00621D5114B12A01A1F111F16
:1027C000FDF706FD206801684168134A00914FF447
:1027D0000031904202D91148016002E00E48803871
:1027E00041602046FFF7CDFBE06B00684068204663
:1027F000BDE8384064220A49FFF7F2BC38BD00004A
:10280000AC0200204B703D25662C4B693D25662CA3
:102810004B643D2566000000800002400404024035
:10282000B000002070B5044600680169E26821F438
:102830004051114301612169A0680843616908435F
:102840002168CA6841F20C639A430243CA60206857
:102850004169A26921F44071114341611E49206818
:10286000884202D1FFF7B2F901E0FFF79FF900EBD0
:10287000C00101EB0012606864218000B2FBF0F33C
:10288000B3FBF1F36FF018067343B2FBF0F5B2FB44
:10289000F0F605EB8305322303EB0515B5FBF1F5E7
:1028A000B6FBF1F605F0F00505EB0615B2FBF0F608
:1028B000B2FBF0F0B0FBF1F06FF01802504306EB02
:1028C000800003EB0010B0FBF1F0216800F00F0076
:1028D0002844886070BD00000038014038B581622E
:1028E00004468285002013466064222284F8422038
:1028F000E56B1B4AAA62E56B1A4AEA62E56B1A4A63
:102900002A63E26B50630A462168E06B091DFEF7FB
:10291000C5FE2068016840680090206948B12068C1
:102920000C3050E8001F41F4807140E80012002A8A
:10293000F5D12068143050E8001F41F0010140E853
:102940000012002AF5D12068143050E8001F41F031
:10295000400140E80012002AF5D1002038BD0000F7
:102960009D26000823270008532600082DE9F04182
:10297000984617460E460446069D27E0681C25D05B
:102980002DB1FEF7DFFFA0EB0800A8421ED920689A
:102990000C3050E8001F21F4D07140E80012002AEA
:1029A000F5D12068143050E8001F21F0010140E803
:1029B0000012002AF5D1202084F8410084F842005A
:1029C000002084F840000320BDE8F0812068006802
:1029D00036EA000004D00020B842CFD00020F3E750
:1029E0000120F9E70148FFF7E1BE0000B002002036
:1029F000FEE700000FB4054B10B503A9044A029886
:102A000000F0D0F910BC5DF814FB00008936000816
:102A1000440000204100080218BF04200A0E18BF1D
:102A200040F001004FF07F4232EA010108BF40F060
:102A30000200012808BF052070470907090E002879
:102A400004DB00F1E02080F80014704700F00F0074
:102A500000F1E02080F8141D704700214FF07E50F7
:102A6000FDF700BE0121FDF73BBE00210846FDF742
:102A7000F9BD6FF05E010807FDF732BE2DE9F04D9C
:102A80000D4614464FF07F41B1EB440F9EBF4FF00F
:102A9000FF312960BDE8F08D4FF0004040EA04218D
:102AA000C4F3C750783810F01F024A4B4FEA601C3D
:102AB000C2F120067B44C4F3C750A0F178004FEA6E
:102AC000601003EB800053F82C3008BFD0E901C63A
:102AD00012D0D0F804C093402CFA06F73B43876825
:102AE0000CFA02FC27FA06F8C06807FA02F2F04076
:102AF0004CEA080C42EA0006A3FB0132ACFB01C021
:102B0000A6FB016101EB0C068E4234BF4FF0010CB5
:102B10004FF0000CC1186144BCF1000F02D081429B
:102B200002D903E0814201D2012000E000201044DC
:102B300000F120024FEA92188006CA0C40EA4230A7
:102B40004F03C5F80080FDF760FE82463846FDF76A
:102B500065FE6FF01201FDF7C3FD07463046FDF735
:102B60005DFE6FF02501FDF7BBFD834639465046FB
:102B7000FDF7EEFC5946FDF7EBFC00F500666FF340
:102B80000B0651463046FDF735FD3946FDF732FD5F
:102B90005946FDF732FD1049FDF732FD07460F4952
:102BA0003046FDF72DFD3946FDF7D2FC07460C49AE
:102BB0003046FDF725FD3946FDF7CAFC14F0004FFD
:102BC00008BFBDE8F08DC8F1805180F00040296059
:102BD000BDE8F08D5C100000DB0FC92F22AAFD2993
:102BE0000000C92F02E008C8121F08C1002AFAD14C
:102BF00070477047002001E001C1121F002AFBD17D
:102C0000704700000149086070470000480000203C
:102C10002DE9FF5F82B00021DDE90430020DDDF80F
:102C200040B0034318D044F61050A2F2FF324243A2
:102C30001514119801281FD0A5EB0B00401C5FEA6A
:102C4000000A4FF000064E4FDFF83891B04650466C
:102C500015D5CAF1000413E0119801244AA30128F4
:102C600001D16FEA0B010298119AC0E90031C0E965
:102C7000024206B0BDE8F09FCBF10000DFE704465A
:102C80000021404A491842EB0450CDE9001012E0FF
:102C9000E00707D032463B4640464946FDF72CFD4B
:102CA0008046894632463B4610461946FDF724FDCC
:102CB00006460F466410002CEAD1DDE90401DDE987
:102CC0000023BAF1000F06DAFDF716FD42464B4627
:102CD000FDF712FD05E0FDF7EDFF42464B46FDF71F
:102CE000E9FF04460E460022284BFEF777F803D88A
:102CF0004FF0FF30014607E00022254B20463146C9
:102D0000FDF731FFFEF751F8102409E0002C0ADB33
:102D10000A220023FDF70AFE039B30321A55641E77
:102D200050EA0102F2D1641C039AC4F11103144465
:102D3000119A012A03D0012208430DD10AE0084369
:102D400004D000204FF0110B119072E7A3EB0B059C
:102D50006D1E0DE05B4504DD4FF0000205F101053D
:102D600004E003DA4FF00002A5F10105002AECD0DF
:102D700002981199C0E90231C0E9004579E70000E5
:102D8000000014400000F03F300000000000F0435D
:102D90000000E03F30380A2801D2012070470020AF
:102DA000704700002DE9FF4F95B09B4689460646C7
:102DB00000250FE2252877D100242746F84A012173
:102DC000059400E0044316F8013F203B01FA03F0AC
:102DD0001042F7D130782A2811D06FF02F033078C5
:102DE000A0F13002092A16D8059A44F0020402EB39
:102DF000820203EB42021044761C0590EFE759F87B
:102E0000042B0592002A03DA504244F40054059042
:102E100044F00204761C30782E2816D116F8010FE3
:102E200044F004042A280DD06FF02F023078A0F16E
:102E30003003092B09D807EB870302EB4303C718BC
:102E4000761CF3E759F8047B761C30786C280FD099
:102E500006DC4C2817D068280DD06A2814D104E06D
:102E6000742810D07A280FD10DE044F400140AE041
:102E700044F4801401E044F440147278824202D198
:102E800004F58014761C761C307866280BD013DC91
:102E9000582877D009DC002875D04528F6D0462878
:102EA000F4D047281AD19DE118E0632835D0642872
:102EB00079D0652812D195E1702873D008DC672895
:102EC000F1D069286FD06E280DD06F2806D1B5E0FB
:102ED00073282CD0752875D0782874D05A46179945
:102EE00090476D1C75E1C4F30250022809D00328F5
:102EF0000DD0D9F8001004280DD00D6009F1040997
:102F000067E1D9F80010EA17C1E90052F6E7D9F8ED
:102F100000100D80F2E70D70F0E719F8041B8DF832
:102F2000001000208DF80100EA46012003E059F866
:102F300004AB4FF0FF3061074FF0000102D40DE009
:102F400008F101018846B9420FDA8045F8DB1AF82A
:102F500008100029F4D108E008F1010188468142F7
:102F6000FADB1AF808100029F6D105985B46A0EBA9
:102F7000080721463846179A00F094FA284400EBD7
:102F8000080507E04DE029E10DE01AF8010B5A466B
:102F900017999047B8F10108F7D25B4621463846A9
:102FA000179A13E142E00A220092C4F302524FF052
:102FB000000A022A08D059F804CB032A4FEAEC7120
:102FC0000AD00DE029E02AE009F1070121F007020B
:102FD000F2E802C1914609E00FFA8CFC4FEAEC716D
:102FE000042A03D14FFA8CFC4FEAEC71002907DA6E
:102FF0000A460021DCF1000C61EB02012D2202E007
:10300000220504D52B228DF80420012203E0E207DB
:1030100001D02022F7E7904659E00A2102E0102271
:103020000DE010214FF0000A00910BE010224FF04C
:10303000000A44F004040827009203E008224FF03D
:10304000000A0092C4F30252022A05D059F804CBB8
:103050000021032A08D009E009F1070121F0070245
:10306000F2E802C1914605E01FFA8CFC042A01D166
:103070000CF0FF0C4FF00008220728D5702806D06E
:10308000009B83F0100353EA0A0305D00EE04022B0
:103090008DF80420012208E05CEA010206D030220B
:1030A0008DF804208DF8050002229046009B83F0E5
:1030B000080353EA0A030AD15CEA010201D162075C
:1030C00005D530228DF804204FF001087F1E5828C6
:1030D00004D034A003900EA802900DE036A0F9E7CA
:1030E00053466046009AFDF721FC84460398825CB3
:1030F0000298401E029002705CEA0100F0D1029832
:1031000006A9081A00F1200A600702D524F48034C9
:1031100000E00127574502DDA7EB0A0000E0002090
:1031200000EB0A01009005984144401A0590E00325
:1031300006D45B462146179A059800F0B3F905447A
:10314000002706E001A85A46C05D179990476D1CFC
:103150007F1C4745F6DBE0030CD55B462146179AFA
:10316000059800F09FF9054404E030205A4617996D
:1031700090476D1C0099481E00900029F5DC08E07E
:10318000029802995A460078491C02911799904773
:103190006D1CBAF10001AAF1010AF1DC65E1000041
:1031A000092801003031323334353637383961621D
:1031B00063646566000000003031323334353637E1
:1031C00038394142434445460000000000F058F9B8
:1031D0000544761C307800287FF4ECAD19B0284601
:1031E000BDE8F08F620700D4062709F1070222F03C
:1031F000070CFCE80223E14603F000485FEA080CF4
:1032000002D00FF2702C0DE05FEA045C02D50FF2E1
:10321000682C07E05FEAC47C02D00FF2602C01E06A
:10322000AFF2700C4FF0FF3823F00043CDF850C0E0
:1032300065280CD006DC452809D046281DD0472833
:103240003DD13DE0662818D067287ED138E00021C6
:10325000112F01DB112000E0781CCDE9000106A947
:103260000EA8FFF7D5FCDDE90F010E9A03910021AE
:10327000009207F1010A04914DE04FF000400097E1
:10328000CDE9011006A90EA8FFF7C2FCDDE90F0287
:1032900003920E9B11990022DDF80CA0009304927A
:1032A00011B9791C00EB010AB7EB0A0004D4C0F194
:1032B000FF3007F1010A0490AAEB0700019044E0F7
:1032C000012F00DA01270021112F01DD112000E07C
:1032D0003846CDE9000106A90EA8FFF799FCDDE903
:1032E0000F010E9A0391002104910092BA46210722
:1032F0000CD40399514500DA8A46BAF1010F05DD75
:10330000009AAAF10101515C302908D0B84202DAD2
:1033100010F1040F06DA0121CDE9011015E0AAF140
:103320000101E9E7002805DC049901440491AAEBB6
:10333000000102E0411C514500DD8A460499401A13
:10334000401C01904FF000400290200704D40198E7
:10335000504501DBCDF8048000208DF84F00029825
:103360000DF14F07B0F1004F25D02B200E900298A1
:103370004FF0020800280CDA404202902D200E90F7
:1033800007E00A210298FDF7BBFA3031029007F8F6
:10339000011DB8F10001A8F10108F2DC0298002833
:1033A000EFD1791E0E980870307800F0200040F0C0
:1033B000450007F8020D12A8C01B00F10708149879
:1033C000007800B1012000EB0A01019801EBE071E7
:1033D00005984144401A401E0590E00306D45B4620
:1033E0002146179A059800F05DF805441498007876
:1033F00018B15A46179990476D1CE00324D55B46D7
:103400002146179A059800F04DF805441CE00498F1
:10341000002807DBDDE90301884203DD0098405CFA
:10342000179901E0179930205A469047049805F102
:103430000105401C04900198401E019004D12E20EB
:103440005A46179990476D1CBAF10001AAF1010A7A
:10345000DDDC05E017F8010B5A46179990476D1C03
:10346000B8F10001A8F10108F4DC5B462146179A87
:103470000598ABE62D0000002B00000020000000A6
:103480002DE9F041044600251E461746880404D461
:1034900005E039462020B0476D1C641EF9D528464A
:1034A000BDE8F0812DE9F041044600251E46904616
:1034B000C80301D5302700E02027880404D505E0A3
:1034C00041463846B0476D1C641EF9D52846BDE814
:1034D000F08100002DE9F843044602464F48694652
:1034E000B0EB420F09D94FF0E640B0EB420F94BF6A
:1034F00000204FF0FF30009030E0494B22F00040B8
:10350000834271D947492046FDF77AF8FDF7B0FAB2
:103510008046FDF799F900F00300009042494046CB
:10352000FDF76EF8054641494046FDF769F8064645
:103530003F494046FDF764F807463E494046FDF7DF
:103540005FF82146FDF759F83946FDF753F8314643
:10355000FDF750F82946FDF74DF804462546009C36
:10356000002C45DB294614F0010F08461CD0FDF75E
:1035700047F806463049FDF743F83049FDF73DF876
:103580003146FDF73DF82E49FCF7E2FF3146FDF7E5
:1035900037F82946FDF734F82946FCF7D9FF14F02F
:1035A000020F1CD0BDE8F883FDF72AF8054625492F
:1035B000FDF726F82449FCF7CBFF2946FDF720F854
:1035C0002249FCF7C5FF2946FDF71AF84FF07E5156
:1035D000FCF7BEFF14F0020F08BFBDE8F88380F0CF
:1035E0000040BDE8F883FFE71046FFF747FAB4E76D
:1035F0006800B0F17F4F3CBF4FF07E50BDE8F883CC
:1036000007D14FF00100FFF7FDFABDE8F843FFF7DF
:103610002CBA2846BDE8F843FFF724BAB61F927EBD
:10362000490E494683F9223F1A61342C0020A23307
:1036300000A0FD390000C93F336D4C39DA82083CE7
:10364000A0AA2ABEB93AB2BACA9F2A3DDDFFFFBE80
:1036500008B54FF47A73012269460248FEF76AFD05
:10366000009808BDB002002070B50546FDF7ECF8E3
:103670000446FDF7CAF82946FCF7BFFFB0F17C5FAE
:1036800000DD641C204670BD13B54FF47A7301222F
:1036900069460248FEF7B4FD00981CBDB002002048
:1036A0002DE9F0410026A0F50001B1F1FE4F7DD2D9
:1036B00000F500226FF07E0101EBE251C2F30254EB
:1036C00077184FF07E52A0EBC15602EB045557EA33
:1036D000040047D029463046FCF73AFF8046294689
:1036E0003046FCF787FF4146FCF7BCFF0546014624
:1036F000FCF786FF80464549FCF782FF4449FCF70A
:1037000027FF064641462846FCF77AFF3146FCF77C
:1037100077FF06463846FDF778F807463D49FCF73F
:103720006FFF3D49794451F82410FCF711FF3146F1
:10373000FCF70EFF064601212846FCF7D1FF314673
:10374000FCF706FF054638463449FCF759FF344973
:10375000794451F82410FCF7FBFE2946BDE8F041FE
:10376000FCF7F6BE4FF07E513046FCF743FF0546AE
:103770002C49FCF745FF2C49FCF7EAFE2946FCF7EB
:103780003FFF2A49FCF7E4FE2946FCF739FF6FF0BA
:103790008241FCF7DDFE044629460846FCF730FF6F
:1037A0002146FCF72DFF0146284600E003E0BDE876
:1037B000F041FCF7CDBE4FF07F42B2EB400F03D299
:1037C000BDE8F041FFF74EB9B0F1FF4F08BFBDE8CB
:1037D000F081B0F1004F06D90120FFF713FABDE8E0
:1037E000F041FFF742B930F0004105D06FF0160606
:1037F0001721FCF775FF5BE70220FFF703FAFFF7DD
:103800002CF980F00040BDE8F081000066F1CC3E6C
:10381000AAAA2A3FF4FD0538CC0300000070313F0E
:103820008003000021ED423E0A1180BEC1ABAA3EDA
:103830001CB5FEF795F8FEF7DCFEFEF74DFDFEF732
:103840002DFDFEF779FD4820FDF72CFD2448FEF7FD
:1038500091FD24480068C16841F01001C160204911
:10386000642260311F48FEF7BBFCDFF874801E4CF9
:1038700008F1500505F504791B48FDF7F9FC606077
:103880001748FDF781FD28601548FDF77FFD68604A
:10389000D8F82000A8601248FDF774FD104BE860CE
:1038A00003F150024846A168FEF76BFEE0600C4849
:1038B00062682169FEF786FD0120FDF727FF686831
:1038C000FCF7DBFF06460F46A068FCF7D6FF024672
:1038D0000B4606A0CDE90067FFF78CF8CCE70000A7
:1038E00050000020B00200200000002025662C259A
:1038F000660A00002DE9F84304460246524869462C
:10390000B0EB420F09D94FF0E640B0EB420F94BF45
:1039100000204FF0FF30009030E04C4B22F0004090
:10392000834271D94A492046FCF76AFEFDF7A0F8A8
:103930008046FCF789FF00F00300009045494046AF
:10394000FCF75EFE054644494046FCF759FE064634
:1039500042494046FCF754FE074641494046FCF7C1
:103960004FFE2146FCF749FE3946FCF743FE31463F
:10397000FCF740FE2946FCF73DFE04462546009C28
:10398000002C45DB294614F0010F08461ED0FCF739
:1039900037FE05463349FCF733FE3349FCF7D8FDC3
:1039A0002946FCF72DFE3149FCF7D2FD2946FCF7EC
:1039B00027FE4FF07E51FCF7CBFD14F0020F08BF3D
:1039C000BDE8F88380F00040BDE8F883FCF718FEFE
:1039D00006462749FCF714FE2649FCF70EFE314641
:1039E000FCF70EFE2449FCF7B3FD3146FCF708FE58
:1039F0002946FCF705FE2946FCF7AAFD14F0020F44
:103A0000E0D1BDE8F883FFE71046FFF737F8B4E7E9
:103A10006800B0F17F4F09D22846FEF7FBFF04286B
:103A200008BFFFF726F82846BDE8F88306D1012035
:103A3000FFF7E8F8BDE8F843FFF717B82846BDE8F8
:103A4000F843FFF70FB80000B61F927E490E4946B3
:103A500083F9223F1A61342C0020A23300A0FD39E3
:103A60000000C93FB93AB2BACA9F2A3DDDFFFFBE86
:103A7000336D4C39DA82083CA0AA2ABE70B50546DF
:103A8000FCF7C7FF044620F00040C0F1FF40C00F24
:103A900008D025F00040C0F1FF40C00F04BF012056
:103AA000FFF7B0F8204670BD0102020304050607C7
:103AB00008090A0B0C0D0E0F10100000000000008A
:103AC00000000102030406070809000000000102CB
:103AD00003040000000000000030F13D0070643E6F
:103AE0000000A33E0090CF3E0090F83E00400F3F04
:103AF00000E0203F0000000015B78337CDE37B389E
:103B00000EE1C53860F69138AF5F0F38E1BC3E3842
:103B100023F44739000000006E83F9A22915444EB2
:103B2000D15727FCC0DD34F5999562DB4190433CC9
:103B3000AB6351FEDDDDDDDDDCBBBBDDDDDDDDDD11
:103B4000DDDDDDDD988888888888888877777777D5
:103B500077888888855555566666666666666666A1
:103B6000666888888333333222222222222222224C
:103B70002228888D943B000800000020500000009F
:103B8000E42B0008E43B0008500000203007000050
:103B9000F42B0008000000000000000000000000FE
:103BA0000000000000000000010000001000000004
:103BB000000000000024F4000000000000000000ED
:103BC00000000000000000000000000000000000F5
:103BD00000000000000000000000000000000000E5
:043BE00000000000E1
:0400000508000131BD
:00000001FF
